{
  "transactions": [
    {
      "hash": "0x0ce84141a082bf03fc671996a7f30b3bff8311f3f162bc02c2a182b51ad66189",
      "transactionType": "CALL",
      "contractName": null,
      "contractAddress": "0xC44504Ab6a2C4dF9a9ce82aecFc453FeC3C8771C",
      "function": "registerNamespace(bytes32)",
      "arguments": [
        "0x6e73706f70537461720000000000000000000000000000000000000000000000"
      ],
      "transaction": {
        "type": "0x02",
        "from": "0xa0ee7a142d267c1f36714e4a8f75612f20a79720",
        "to": "0xc44504ab6a2c4df9a9ce82aecfc453fec3c8771c",
        "gas": "0x30fe7",
        "value": "0x0",
        "data": "0xb29e40896e73706f70537461720000000000000000000000000000000000000000000000",
        "nonce": "0x1b",
        "accessList": []
      },
      "additionalContracts": [],
      "isFixedGasLimit": false
    },
    {
      "hash": "0xcef6587b59e30a1ca600d03da550a1de7535f8fe1b15fa7087ef2e4fe64caf96",
      "transactionType": "CALL",
      "contractName": null,
      "contractAddress": "0xC44504Ab6a2C4dF9a9ce82aecFc453FeC3C8771C",
      "function": null,
      "arguments": null,
      "transaction": {
        "type": "0x02",
        "from": "0xa0ee7a142d267c1f36714e4a8f75612f20a79720",
        "to": "0xc44504ab6a2c4df9a9ce82aecfc453fec3c8771c",
        "gas": "0x113222",
        "value": "0x0",
        "data": "0x0ba51f497462706f705374617200000000000000506f70537461720000000000000000000009030104040100000000000000000000000000000000000000000000000000005403001f615f00000000000000000000000000000000000000000000000000000903010303608100000000000000000000000000000000000000000000000000000000000000000000000000000000000000000000000000000000000000c000000000000000000000000000000000000000000000000000000000000002000000000000000000000000000000000000000000000000000000000000000003000000000000000000000000000000000000000000000000000000000000006000000000000000000000000000000000000000000000000000000000000000a000000000000000000000000000000000000000000000000000000000000000e0000000000000000000000000000000000000000000000000000000000000000974696d657374616d70000000000000000000000000000000000000000000000000000000000000000000000000000000000000000000000000000000000000056f776e6572000000000000000000000000000000000000000000000000000000000000000000000000000000000000000000000000000000000000000000000361707000000000000000000000000000000000000000000000000000000000000000000000000000000000000000000000000000000000000000000000000004000000000000000000000000000000000000000000000000000000000000008000000000000000000000000000000000000000000000000000000000000000c0000000000000000000000000000000000000000000000000000000000000010000000000000000000000000000000000000000000000000000000000000001400000000000000000000000000000000000000000000000000000000000000001780000000000000000000000000000000000000000000000000000000000000000000000000000000000000000000000000000000000000000000000000000017900000000000000000000000000000000000000000000000000000000000000000000000000000000000000000000000000000000000000000000000000000c67616d6546696e69736865640000000000000000000000000000000000000000000000000000000000000000000000000000000000000000000000000000000b6d61747269784172726179000000000000000000000000000000000000000000",
        "nonce": "0x1c",
        "accessList": []
      },
      "additionalContracts": [],
      "isFixedGasLimit": false
    },
    {
      "hash": "0x512f9b300ffe25d4a1c1a2d8ded00345924f9896ef1fea9a7df83d10151af230",
      "transactionType": "CREATE",
      "contractName": "PopStarSystem",
      "contractAddress": "0x5621d0B4D8043524Ac5837918D6a95b1050eF228",
      "function": null,
      "arguments": null,
      "transaction": {
        "type": "0x02",
        "from": "0xa0ee7a142d267c1f36714e4a8f75612f20a79720",
        "gas": "0x3ede51",
        "value": "0x0",
        "data": "0x60c060405260076080908152662837b829ba30b960c91b60a05262000024906200003b565b6000553480156200003457600080fd5b506200005c565b805160009082908203620000525750600092915050565b6020015192915050565b613853806200006c6000396000f3fe608060405234801561001057600080fd5b506004361061007d5760003560e01c806345ec93541161005b57806345ec9354146100ec5780639211be97146100ff578063e1af802c14610112578063e1c7392a1461011a57600080fd5b806301ffc9a714610082578063119df25f146100aa57806319be214b146100d7575b600080fd5b610095610090366004612efb565b610122565b60405190151581526020015b60405180910390f35b6100b26101bb565b60405173ffffffffffffffffffffffffffffffffffffffff90911681526020016100a1565b6100ea6100e53660046130b6565b6101ca565b005b604051601f1936013581526020016100a1565b6100ea61010d3660046130b6565b610723565b6100b26109a2565b6100ea6109ac565b60007fffffffff0000000000000000000000000000000000000000000000000000000082167fb5dee1270000000000000000000000000000000000000000000000000000000014806101b557507fffffffff0000000000000000000000000000000000000000000000000000000082167f01ffc9a700000000000000000000000000000000000000000000000000000000145b92915050565b60006101c5610b37565b905090565b6040810151805160208201516000916101e291610b69565b905060006101fb82602001518360000151600054610cfc565b6040517f506f7053746172000000000000000000000000000000000000000000000000006020820152909150602701604051602081830303815290604052805190602001208260e0015160405160200161025591906131a9565b60405160208183030381529060405280519060200120148061027c57508060600151516064145b6102e7576040517f08c379a000000000000000000000000000000000000000000000000000000000815260206004820152600f60248201527f4e6f7420506f705374617220617070000000000000000000000000000000000060448201526064015b60405180910390fd5b806040015115610353576040517f08c379a000000000000000000000000000000000000000000000000000000000815260206004820152601060248201527f47616d652069732066696e69736865640000000000000000000000000000000060448201526064016102de565b80516020808301516060840151918601519091906000906103759084906131f4565b61038090600a613218565b8551885161038e91906131f4565b6103989190613240565b63ffffffff16905060008282815181106103b4576103b461325d565b6020026020010151905080600003610428576040517f08c379a000000000000000000000000000000000000000000000000000000000815260206004820152601860248201527f506c6561736520636c69636b206f6e207468652073746172000000000000000060448201526064016102de565b610433828285610e9c565b6104bf576040517f08c379a000000000000000000000000000000000000000000000000000000000815260206004820152602b60248201527f4e65656420746f20636f6e6e6563742074776f206f72206d6f7265206964656e60448201527f746963616c20737461727300000000000000000000000000000000000000000060648201526084016102de565b6104ca828285610fcc565b92506104d583611183565b925060006104e2846113a6565b905060006104fb89602001518a600001516000546114f0565b905060608060005b60648163ffffffff1610156106f657878163ffffffff168151811061052a5761052a61325d565b6020026020010151848263ffffffff168151811061054a5761054a61325d565b6020026020010151146106ee5761057f888263ffffffff16815181106105725761057261325d565b6020026020010151611651565b909350915061058c6109a2565b73ffffffffffffffffffffffffffffffffffffffff16631044b9da604051806101000160405280600a856105c091906132bb565b6105ca908f613240565b63ffffffff1681526020016105e0600a866132de565b6105ea908e613240565b63ffffffff1681526020018f6000015173ffffffffffffffffffffffffffffffffffffffff1681526020018f6020015181526020018581526020018681526020016040518060400160405280600381526020017f706f70000000000000000000000000000000000000000000000000000000000081525081526020016040518060400160405280600781526020017f506f7053746172000000000000000000000000000000000000000000000000008152508152506040518263ffffffff1660e01b81526004016106bb919061332d565b600060405180830381600087803b1580156106d557600080fd5b505af11580156106e9573d6000803e3d6000fd5b505050505b600101610503565b506020808c01518c516000548d51938e01516107149490898d611829565b50505050505050505050505050565b60408101518151610733826119e4565b610799576040517f08c379a000000000000000000000000000000000000000000000000000000000815260206004820152601060248201527f506978656c206e6f7420656e6f7567680000000000000000000000000000000060448201526064016102de565b4260006107a4611b26565b905060006107b1826113a6565b90506060806000805b600a8163ffffffff16101561097d5760005b600a8163ffffffff16101561097457806107e783600a613218565b6107f19190613240565b63ffffffff16925061080e8784815181106105725761057261325d565b909550935061081b6109a2565b73ffffffffffffffffffffffffffffffffffffffff16631044b9da604051806101000160405280848e600001516108529190613240565b63ffffffff168152602001858e6020015161086d9190613240565b63ffffffff1681526020018c73ffffffffffffffffffffffffffffffffffffffff1681526020018b81526020018781526020018881526020016040518060400160405280600381526020017f706f70000000000000000000000000000000000000000000000000000000000081525081526020016040518060400160405280600781526020017f506f7053746172000000000000000000000000000000000000000000000000008152508152506040518263ffffffff1660e01b8152600401610936919061332d565b600060405180830381600087803b15801561095057600080fd5b505af1158015610964573d6000803e3d6000fd5b5050600190920191506107cc9050565b506001016107ba565b5061099786886000548b600001518c60200151898b611829565b505050505050505050565b60006101c5611bd9565b6109b46109a2565b604080518082018252600a81527f44482d506f7053746172000000000000000000000000000000000000000000006020808301919091528251808401845260078082527f552b3146333145000000000000000000000000000000000000000000000000008284015284518086018652601281527f424153452f506f705374617253797374656d000000000000000000000000000081850152855180870187529182527f706f7053746172000000000000000000000000000000000000000000000000008285015285518087018752600d81527f506f705374617253797374656d000000000000000000000000000000000000009481019490945294517fc3aceb6000000000000000000000000000000000000000000000000000000000815273ffffffffffffffffffffffffffffffffffffffff969096169563c3aceb6095610b0395949092916004016133fe565b600060405180830381600087803b158015610b1d57600080fd5b505af1158015610b31573d6000803e3d6000fd5b50505050565b7fffffffffffffffffffffffffffffffffffffffffffffffffffffffffffffffcc36013560601c80610b665750335b90565b610bc7604051806101000160405280600073ffffffffffffffffffffffffffffffffffffffff168152602001600081526020016000815260200160008152602001606081526020016060815260200160608152602001606081525090565b6040805160028082526060820183526000926020830190803683370190505090508363ffffffff1660001b81600081518110610c0557610c0561325d565b6020026020010181815250508263ffffffff1660001b81600181518110610c2e57610c2e61325d565b602090810291909101810191909152604080517f7462000000000000000000000000000000000000000000000000000000000000928101929092526000602283018190527f506978656c00000000000000000000000000000000000000000000000000000060308401529182918291610ce09101604051602081830303815290604052610cba9061346b565b857e74040414202020000000000000000000000000000000000000000000000000611c25565b925092509250610cf1838383611d0f565b979650505050505050565b6040805160808082018352600080835260208301819052828401819052606080840152835160038082529281019094529192908160200160208202803683370190505090508460001b81600081518110610d5857610d5861325d565b6020026020010181815250508373ffffffffffffffffffffffffffffffffffffffff1660001b81600181518110610d9157610d9161325d565b6020026020010181815250508281600281518110610db157610db161325d565b602090810291909101810191909152604080517f7462000000000000000000000000000000000000000000000000000000000000818401527f706f70537461720000000000000000000000000000000000000000000000000060228201527f506f7053746172000000000000000000000000000000000000000000000000006030820152815180820390930183528101905260009081908190610e7d90610e579061346b565b857e09030104040100000000000000000000000000000000000000000000000000611c25565b925092509250610e8e838383611dc2565b9450505050505b9392505050565b600080610eaa600a866134ad565b90506000610eb9600a876134c1565b905060008215610efc57610ece6001886134d5565b905085858281518110610ee357610ee361325d565b602002602001015103610efc5760019350505050610e95565b6009831015610f3e57610f108760016134e8565b905085858281518110610f2557610f2561325d565b602002602001015103610f3e5760019350505050610e95565b8115610f7d57610f4f600a886134d5565b905085858281518110610f6457610f6461325d565b602002602001015103610f7d5760019350505050610e95565b6009821015610fbf57610f9187600a6134e8565b905085858281518110610fa657610fa661325d565b602002602001015103610fbf5760019350505050610e95565b5060009695505050505050565b60606000610fdb600a866134ad565b90506000610fea600a876134c1565b90506000821561104f57610fff6001886134d5565b9050858582815181106110145761101461325d565b60200260200101510361104f5760008582815181106110355761103561325d565b60200260200101818152505061104c818787610fcc565b94505b60098310156110b3576110638760016134e8565b9050858582815181106110785761107861325d565b6020026020010151036110b35760008582815181106110995761109961325d565b6020026020010181815250506110b0818787610fcc565b94505b8115611114576110c4600a886134d5565b9050858582815181106110d9576110d961325d565b6020026020010151036111145760008582815181106110fa576110fa61325d565b602002602001018181525050611111818787610fcc565b94505b60098210156111785761112887600a6134e8565b90508585828151811061113d5761113d61325d565b60200260200101510361117857600085828151811061115e5761115e61325d565b602002602001018181525050611175818787610fcc565b94505b509295945050505050565b60606000806059815b600a81101561139c576111a081605a6134e8565b9250600a5b8015611267578651600a7fffffffffffffffffffffffffffffffffffffffffffffffffffffffffffffffff909201918202830195508790869081106111ec576111ec61325d565b60200260200101516000146112625783851461125b578685815181106112145761121461325d565b602002602001015187858151811061122e5761122e61325d565b602002602001018181525050600087868151811061124e5761124e61325d565b6020026020010181815250505b600a840393505b6111a5565b5060008111801561129157508582815181106112855761128561325d565b60200260200101516000145b1561138657856112a282605a6134e8565b815181106112b2576112b261325d565b60200260200101516000146113815760005b600a811015611372576112d881600a6134fb565b6112e290836134e8565b94508685815181106112f6576112f661325d565b602002602001015160001461136a578685815181106113175761131761325d565b60200260200101518760018761132d91906134d5565b8151811061133d5761133d61325d565b602002602001018181525050600087868151811061135d5761135d61325d565b6020026020010181815250505b6001016112c4565b5061137e6001836134e8565b91505b611394565b6113916001836134e8565b91505b60010161118c565b5093949350505050565b6000805b60638110156114e7578281815181106113c5576113c561325d565b60200260200101516000146114df57605981111561142e57826113e98260016134e8565b815181106113f9576113f961325d565b60200260200101518382815181106114135761141361325d565b6020026020010151036114295750600092915050565b6114df565b611439600a826134ad565b60090361144c57826113e982600a6134e8565b826114588260016134e8565b815181106114685761146861325d565b60200260200101518382815181106114825761148261325d565b602002602001015114806114d157508261149d82600a6134e8565b815181106114ad576114ad61325d565b60200260200101518382815181106114c7576114c761325d565b6020026020010151145b156114df5750600092915050565b6001016113aa565b50600192915050565b60408051600380825260808201909252606091600091906020820184803683370190505090508460001b8160008151811061152d5761152d61325d565b6020026020010181815250508373ffffffffffffffffffffffffffffffffffffffff1660001b816001815181106115665761156661325d565b60200260200101818152505082816002815181106115865761158661325d565b602090810291909101810191909152604080517f7462000000000000000000000000000000000000000000000000000000000000818401527f706f70537461720000000000000000000000000000000000000000000000000060228201527f506f70537461720000000000000000000000000000000000000000000000000060308201528151808203909301835281019052600090611630906116289061346b565b836000611e1e565b90506116476116428260008451611eff565b611f8f565b9695505050505050565b60408051808201909152600681527f552b3236303600000000000000000000000000000000000000000000000000006020820152606060018390036116cd576040518060400160405280600681526020017f552b3236303500000000000000000000000000000000000000000000000000008152509150915091565b82600203611712576040518060400160405280600681526020017f552b3236303600000000000000000000000000000000000000000000000000008152509150915091565b82600303611757576040518060400160405280600681526020017f552b3237323600000000000000000000000000000000000000000000000000008152509150915091565b8260040361179c576040518060400160405280600681526020017f552b3237324300000000000000000000000000000000000000000000000000008152509150915091565b826005036117e1576040518060400160405280600681526020017f552b3237324100000000000000000000000000000000000000000000000000008152509150915091565b50506040805160208082018352600082528251808401909352600783527f23303030303030000000000000000000000000000000000000000000000000009083015290915091565b604080517fffffffff0000000000000000000000000000000000000000000000000000000060e087811b8216602084015286901b16602482015283151560f81b6028820152815180820360090181526029909101909152600061188b83611fa0565b9050600061189884611fb3565b6040805160038082526080820190925291925060009190602082016060803683370190505090508a60001b816000815181106118d6576118d661325d565b6020026020010181815250508973ffffffffffffffffffffffffffffffffffffffff1660001b8160018151811061190f5761190f61325d565b602002602001018181525050888160028151811061192f5761192f61325d565b602090810291909101810191909152604080517f7462000000000000000000000000000000000000000000000000000000000000818401527f706f70537461720000000000000000000000000000000000000000000000000060228201527f506f705374617200000000000000000000000000000000000000000000000000603082015281518082039093018352810190526119d7906119ce9061346b565b82868686611fe4565b5050505050505050505050565b6000611a44604051806101000160405280600073ffffffffffffffffffffffffffffffffffffffff168152602001600081526020016000815260200160008152602001606081526020016060815260200160608152602001606081525090565b60005b600a8160ff161015611b1c5760005b600a8160ff161015611b09578451611a8e90611a769060ff841690613240565b8360ff168760200151611a899190613240565b610b69565b9250826080015151600014611aa857506000949350505050565b60a08301515115611abe57506000949350505050565b60e083015151151580611ae75750825173ffffffffffffffffffffffffffffffffffffffff1615155b15611af757506000949350505050565b80611b0181613512565b915050611a56565b5080611b1481613512565b915050611a47565b5060019392505050565b604080516064808252610ca082019092526060916000919060208201610c808036833701905050905060005b6064811015611bd3576000600544611b6a84436134e8565b6040805160208101939093528201526060016040516020818303038152906040528051906020012060001c611b9f91906134ad565b611baa9060016134e8565b905080838381518110611bbf57611bbf61325d565b602090810291909101015250600101611b52565b50919050565b7f629a4c26e296b22a8e0856e9f6ecb2d1008d7e00081111962cd175fa7488e1755460009073ffffffffffffffffffffffffffffffffffffffff1680611c20573391505090565b919050565b6060600060606000611c35611bd9565b90503073ffffffffffffffffffffffffffffffffffffffff821603611c6b57611c5f8787876120b4565b93509350935050611d06565b6040517f419b58fd00000000000000000000000000000000000000000000000000000000815273ffffffffffffffffffffffffffffffffffffffff82169063419b58fd90611cc1908a908a908a9060040161356c565b600060405180830381865afa158015611cde573d6000803e3d6000fd5b505050506040513d6000823e601f3d908101601f19168201604052611c5f91908101906135da565b93509350939050565b611d6d604051806101000160405280600073ffffffffffffffffffffffffffffffffffffffff168152602001600081526020016000815260200160008152602001606081526020016060815260200160608152602001606081525090565b611d76846121bc565b60608501526040840152602083015273ffffffffffffffffffffffffffffffffffffffff168152611da783836121f4565b60e085015260c084015260a083015260808201529392505050565b60408051608081018252600080825260208083018281529383019182526060808401528601516024870151602888015160f81c151590925260e091821c9093529190911c8152611e128383612287565b60608201529392505050565b60606000611e2a611bd9565b90503073ffffffffffffffffffffffffffffffffffffffff821603611e5c57611e548585856122ae565b915050610e95565b6040517f1e78897700000000000000000000000000000000000000000000000000000000815273ffffffffffffffffffffffffffffffffffffffff821690631e78897790611eb290889088908890600401613647565b600060405180830381865afa158015611ecf573d6000803e3d6000fd5b505050506040513d6000823e601f3d908101601f19168201604052611e549190810190613673565b509392505050565b6000818311158015611f12575083518211155b611f4e578383836040517f23230fa30000000000000000000000000000000000000000000000000000000081526004016102de939291906136a8565b60208401611f5c84826134e8565b90506000611f6a85856134d5565b6fffffffffffffffffffffffffffffffff1660809290921b9190911795945050505050565b60606000610e9583602060006122f0565b60006101b58251602002603881901b1790565b6060611fbe8261236b565b604051602001611fce91906131a9565b6040516020818303038152906040529050919050565b6000611fee611bd9565b90503073ffffffffffffffffffffffffffffffffffffffff82160361201f5761201a868686868661237b565b6120ac565b6040517f298314fb00000000000000000000000000000000000000000000000000000000815273ffffffffffffffffffffffffffffffffffffffff82169063298314fb9061207990899089908990899089906004016136cd565b600060405180830381600087803b15801561209357600080fd5b505af11580156120a7573d6000803e3d6000fd5b505050505b505050505050565b60606000606060006120c585612398565b90506120d28787836123bb565b935060006120df866123f4565b905080156121b1576120f18888612431565b935066ffffffffffffff841667ffffffffffffffff81111561211557612115612f3d565b6040519080825280601f01601f19166020018201604052801561213f576020820181803683370190505b5092506020830160005b828160ff1610156121ae5760006121618b8b84612444565b9050600061217e888460ff166028026038011c64ffffffffff1690565b905061218d82826000876124c4565b61219781856134e8565b9350505080806121a690613512565b915050612149565b50505b505093509350939050565b6000806000806121d185600060209101015190565b6034860151605487015160749097015160609290921c9790969550909350915050565b60608080806000603887901c64ffffffffff1661221a612215888484611eff565b6125ed565b955090508064ffffffffff606089901c160161223a612215888484611eff565b945090508064ffffffffff608889901c160161225a612215888484611eff565b935090508064ffffffffff60b089901c160161227a612215888484611eff565b9250505092959194509250565b60606000603884901c64ffffffffff166122a5611642858484611eff565b95945050505050565b60606122e86122be858585612444565b6122e1846122cc8888612431565b9060ff166028026038011c64ffffffffff1690565b600061266d565b949350505050565b606060006122fe8560801c90565b90506fffffffffffffffffffffffffffffffff851660008582816123245761232461328c565b04905060405193506020840160208202810160405281855260005b8281101561235f578451871c82529387019360209091019060010161233f565b50505050509392505050565b606081610e958160206000612690565b612391858585858561238c8b6126e4565b612848565b5050505050565b600060086123a8600260206134d5565b6123b291906134fb565b9190911c919050565b6060816000036123da5750604080516020810190915260008152610e95565b60006123e68585612b52565b90506122a58184600061266d565b60006008600180612407600260206134d5565b61241191906134d5565b61241b91906134d5565b61242591906134fb565b8260ff911c1692915050565b6000610e956124408484612ba8565b5490565b60008383604051602001612459929190613712565b604051602081830303815290604052805190602001208260f81b7effffffffffffffffffffffffffffffffffffffffffffffffffffffffffffff19167f3b4102da22e32d82fc925482184f16c09fd4281692720b87d124aef6da48a0f1181860001c90509392505050565b811561258957602082106124ee576020820484019350602082816124ea576124ea61328c565b0691505b811561258957602082900360008185101561253057507fffffffffffffffffffffffffffffffffffffffffffffffffffffffffffffffff600885021c19612559565b507fffffffffffffffffffffffffffffffffffffffffffffffffffffffffffffffff600882021c195b8554600885021b81198451168282161784525081851161257a575050610b31565b50600194909401939283900392015b5b602083106125ab5783548152600190930192601f199092019160200161258a565b8215610b315760007fffffffffffffffffffffffffffffffffffffffffffffffffffffffffffffffff600885021c198251865482169119161782525050505050565b606060006125fb8360801c90565b90506fffffffffffffffffffffffffffffffff83168067ffffffffffffffff81111561262957612629612f3d565b6040519080825280601f01601f191660200182016040528015612653576020820181803683370190505b50925060208301612665838284612bfe565b505050919050565b60405160208101601f19603f8584010116604052838252611ef7858585846124c4565b825160609060006126a185836134fb565b9050604051925060208301601f19603f83860101166040528184526000602088015b8482101561235f578051871b835291870191600191909101906020016126c3565b604080517f746200000000000000000000000000000000000000000000000000000000000060208201527f73746f726500000000000000000000000000000000000000000000000000000060228201527f5461626c657300000000000000000000000000000000000000000000000000006030820152600091016040516020818303038152906040526127769061346b565b82036127a257507e60030220202000000000000000000000000000000000000000000000000000919050565b604080517f746200000000000000000000000000000000000000000000000000000000000060208201527f73746f726500000000000000000000000000000000000000000000000000000060228201527f5461626c6573000000000000000000000000000000000000000000000000000060308201526101b59161283f91016040516020818303038152906040526128399061346b565b84612c68565b60206000612c84565b857f8dbb3a9672eebfd3773e72dd9c102393436816d832c7ba9e1e1ac8fcadcac7a98686868660405161287e949392919061374d565b60405180910390a27f7462000000000000000000000000000000000000000000000000000000000000867fffff00000000000000000000000000000000000000000000000000000000000016036120ac5760006128da87612cd5565b905060005b81518110156129bd5760008282815181106128fc576128fc61325d565b602002602001015190506129286001826affffffffffffffffffffff1916612dd090919063ffffffff16565b156129aa576040517f57066c9c000000000000000000000000000000000000000000000000000000008152606082901c906357066c9c90612977908c908c908c908c908c908c9060040161378c565b600060405180830381600087803b15801561299157600080fd5b505af11580156129a5573d6000803e3d6000fd5b505050505b50806129b5816137e5565b9150506128df565b5060006129ca8888612b52565b905060006020870190506129e2826000838a51612dee565b60006129ed856123f4565b1115612a715760006129ff8a8a612ba8565b878155905060208601915060008060005b612a19886123f4565b8160ff161015612a6c57612a2e8d8d83612444565b9250612a498a8260ff166028026038011c64ffffffffff1690565b9150612a588360008785612dee565b612a6282866134e8565b9450600101612a10565b505050505b60005b83518110156120a7576000848281518110612a9157612a9161325d565b60200260200101519050612abd6002826affffffffffffffffffffff1916612dd090919063ffffffff16565b15612b3f576040517f5b28cdaf000000000000000000000000000000000000000000000000000000008152606082901c90635b28cdaf90612b0c908e908e908e908e908e908e9060040161378c565b600060405180830381600087803b158015612b2657600080fd5b505af1158015612b3a573d6000803e3d6000fd5b505050505b5080612b4a816137e5565b915050612a74565b60008282604051602001612b67929190613712565b60408051601f1981840301815291905280516020909101207f86425bff6b57326c7859e89024fe4f238ca327a1ae4a230180dd2f0e88aaa7d9189392505050565b60008282604051602001612bbd929190613712565b60408051601f1981840301815291905280516020909101207f14e2fcc58e58e68ec7edc30c8d50dccc3ce2714a623ec81f46b6a63922d76569189392505050565b5b60208110612c1e578251825260209283019290910190601f1901612bff565b80600003612c2b57505050565b60007fffffffffffffffffffffffffffffffffffffffffffffffffffffffffffffffff600883021c19905080198351168185511617835250505050565b6040805160208101849052908101829052600090606001612b67565b600060208210612caa57602082048401935060208281612ca657612ca661328c565b0691505b508254600882021b602082900380841115611ef7576001850154600882021c82179150509392505050565b60408051600180825281830190925260609160009190602080830190803683370190505090508281600081518110612d0f57612d0f61325d565b602090810291909101810191909152604080517f7462000000000000000000000000000000000000000000000000000000000000818401527f73746f726500000000000000000000000000000000000000000000000000000060228201527f53746f7265486f6f6b730000000000000000000000000000000000000000000060308201528151808203909301835281019052600090612db990612db19061346b565b8360006122ae565b90506122e8612dcb8260008451611eff565b612eea565b60008160ff1682612de18560581c90565b1660ff1614905092915050565b8215612e865760208310612e1857602083048401935060208381612e1457612e1461328c565b0692505b8215612e8657602083900360007fffffffffffffffffffffffffffffffffffffffffffffffffffffffffffffffff600884021c1990506008850281811c91508451811c9050811987541682821617875550818311612e77575050610b31565b50600194909401939182019190035b5b60208110612ea85781518455600190930192602090910190601f1901612e87565b8015610b315760007fffffffffffffffffffffffffffffffffffffffffffffffffffffffffffffffff600883021c198554845182169119161785555050505050565b60606000610e9583601560006122f0565b600060208284031215612f0d57600080fd5b81357fffffffff0000000000000000000000000000000000000000000000000000000081168114610e9557600080fd5b7f4e487b7100000000000000000000000000000000000000000000000000000000600052604160045260246000fd5b6040516080810167ffffffffffffffff81118282101715612f8f57612f8f612f3d565b60405290565b604051601f8201601f1916810167ffffffffffffffff81118282101715612fbe57612fbe612f3d565b604052919050565b600067ffffffffffffffff821115612fe057612fe0612f3d565b50601f01601f191660200190565b600082601f830112612fff57600080fd5b813561301261300d82612fc6565b612f95565b81815284602083860101111561302757600080fd5b816020850160208301376000918101602001919091529392505050565b803563ffffffff81168114611c2057600080fd5b60006040828403121561306a57600080fd5b6040516040810181811067ffffffffffffffff8211171561308d5761308d612f3d565b60405290508061309c83613044565b81526130aa60208401613044565b60208201525092915050565b6000602082840312156130c857600080fd5b813567ffffffffffffffff808211156130e057600080fd5b9083019060a082860312156130f457600080fd5b6130fc612f6c565b823573ffffffffffffffffffffffffffffffffffffffff8116811461312057600080fd5b815260208301358281111561313457600080fd5b61314087828601612fee565b6020830152506131538660408501613058565b604082015260808301358281111561316a57600080fd5b61317687828601612fee565b60608301525095945050505050565b60005b838110156131a0578181015183820152602001613188565b50506000910152565b600082516131bb818460208701613185565b9190910192915050565b7f4e487b7100000000000000000000000000000000000000000000000000000000600052601160045260246000fd5b63ffffffff828116828216039080821115613211576132116131c5565b5092915050565b63ffffffff818116838216028082169190828114613238576132386131c5565b505092915050565b63ffffffff818116838216019080821115613211576132116131c5565b7f4e487b7100000000000000000000000000000000000000000000000000000000600052603260045260246000fd5b7f4e487b7100000000000000000000000000000000000000000000000000000000600052601260045260246000fd5b600063ffffffff808416806132d2576132d261328c565b92169190910692915050565b600063ffffffff808416806132f5576132f561328c565b92169190910492915050565b60008151808452613319816020860160208601613185565b601f01601f19169290920160200192915050565b6020815261334460208201835163ffffffff169052565b6000602083015161335d604084018263ffffffff169052565b50604083015173ffffffffffffffffffffffffffffffffffffffff81166060840152506060830151608083015260808301516101008060a08501526133a6610120850183613301565b915060a0850151601f19808685030160c08701526133c48483613301565b935060c08701519150808685030160e08701526133e18483613301565b935060e08701519150808685030183870152506116478382613301565b60a08152600061341160a0830188613301565b82810360208401526134238188613301565b905082810360408401526134378187613301565b9050828103606084015261344b8186613301565b9050828103608084015261345f8185613301565b98975050505050505050565b80516020808301519190811015611bd3577fffffffffffffffffffffffffffffffffffffffffffffffffffffffffffffffff60209190910360031b1b16919050565b6000826134bc576134bc61328c565b500690565b6000826134d0576134d061328c565b500490565b818103818111156101b5576101b56131c5565b808201808211156101b5576101b56131c5565b80820281158282048414176101b5576101b56131c5565b600060ff821660ff8103613528576135286131c5565b60010192915050565b600081518084526020808501945080840160005b8381101561356157815187529582019590820190600101613545565b509495945050505050565b8381526060602082015260006135856060830185613531565b9050826040830152949350505050565b600082601f8301126135a657600080fd5b81516135b461300d82612fc6565b8181528460208386010111156135c957600080fd5b6122e8826020830160208701613185565b6000806000606084860312156135ef57600080fd5b835167ffffffffffffffff8082111561360757600080fd5b61361387838801613595565b945060208601519350604086015191508082111561363057600080fd5b5061363d86828701613595565b9150509250925092565b8381526060602082015260006136606060830185613531565b905060ff83166040830152949350505050565b60006020828403121561368557600080fd5b815167ffffffffffffffff81111561369c57600080fd5b6122e884828501613595565b6060815260006136bb6060830186613301565b60208301949094525060400152919050565b85815260a0602082015260006136e660a0830187613531565b82810360408401526136f88187613301565b9050846060840152828103608084015261345f8185613301565b82815260006020808301845182860160005b8281101561374057815184529284019290840190600101613724565b5091979650505050505050565b6080815260006137606080830187613531565b82810360208401526137728187613301565b90508460408401528281036060840152610cf18185613301565b86815260c0602082015260006137a560c0830188613531565b82810360408401526137b78188613301565b905085606084015282810360808401526137d18186613301565b9150508260a0830152979650505050505050565b60007fffffffffffffffffffffffffffffffffffffffffffffffffffffffffffffffff8203613816576138166131c5565b506001019056fea2646970667358221220832aed408e5bee0e34e2713256e5d73db50078b7e93835b4e280e6487a0e0ba664736f6c63430008150033",
        "nonce": "0x1d",
        "accessList": []
      },
      "additionalContracts": [],
      "isFixedGasLimit": false
    },
    {
      "hash": "0xec6d99613138ef346752c7ad626c8a83b5cd0ea0efde23444b9faf43cb8dce35",
      "transactionType": "CALL",
      "contractName": null,
      "contractAddress": "0xC44504Ab6a2C4dF9a9ce82aecFc453FeC3C8771C",
      "function": "registerSystem(bytes32,address,bool)",
      "arguments": [
        "0x7379706f705374617200000000000000506f705374617253797374656d000000",
        "0x5621d0B4D8043524Ac5837918D6a95b1050eF228",
        "true"
      ],
      "transaction": {
        "type": "0x02",
        "from": "0xa0ee7a142d267c1f36714e4a8f75612f20a79720",
        "to": "0xc44504ab6a2c4df9a9ce82aecfc453fec3c8771c",
        "gas": "0x3df81",
        "value": "0x0",
        "data": "0x3350b6a97379706f705374617200000000000000506f705374617253797374656d0000000000000000000000000000005621d0b4d8043524ac5837918d6a95b1050ef2280000000000000000000000000000000000000000000000000000000000000001",
        "nonce": "0x1e",
        "accessList": []
      },
      "additionalContracts": [],
      "isFixedGasLimit": false
    },
    {
      "hash": "0x8f5f9c717afd30cf1e076bcf433cccb9837a0b4f55dd5cba2ddeed543890b416",
      "transactionType": "CALL",
      "contractName": null,
      "contractAddress": "0xC44504Ab6a2C4dF9a9ce82aecFc453FeC3C8771C",
      "function": "registerFunctionSelector(bytes32,string)",
      "arguments": [
        "0x7379706f705374617200000000000000506f705374617253797374656d000000",
        "\"init()\""
      ],
      "transaction": {
        "type": "0x02",
        "from": "0xa0ee7a142d267c1f36714e4a8f75612f20a79720",
        "to": "0xc44504ab6a2c4df9a9ce82aecfc453fec3c8771c",
        "gas": "0x25ca9",
        "value": "0x0",
        "data": "0x26d981027379706f705374617200000000000000506f705374617253797374656d00000000000000000000000000000000000000000000000000000000000000000000400000000000000000000000000000000000000000000000000000000000000006696e697428290000000000000000000000000000000000000000000000000000",
        "nonce": "0x1f",
        "accessList": []
      },
      "additionalContracts": [],
      "isFixedGasLimit": false
    },
    {
      "hash": "0xa321e2b1ae71c397451c011e32d7f3b03e9010cb7810d0400a764d5d63600bc5",
      "transactionType": "CALL",
      "contractName": null,
      "contractAddress": "0xC44504Ab6a2C4dF9a9ce82aecFc453FeC3C8771C",
      "function": "registerFunctionSelector(bytes32,string)",
      "arguments": [
        "0x7379706f705374617200000000000000506f705374617253797374656d000000",
        "\"interact((address,string,(uint32,uint32),string))\""
      ],
      "transaction": {
        "type": "0x02",
        "from": "0xa0ee7a142d267c1f36714e4a8f75612f20a79720",
        "to": "0xc44504ab6a2c4df9a9ce82aecfc453fec3c8771c",
        "gas": "0x289d2",
        "value": "0x0",
        "data": "0x26d981027379706f705374617200000000000000506f705374617253797374656d00000000000000000000000000000000000000000000000000000000000000000000400000000000000000000000000000000000000000000000000000000000000031696e7465726163742828616464726573732c737472696e672c2875696e7433322c75696e743332292c737472696e672929000000000000000000000000000000",
        "nonce": "0x20",
        "accessList": []
      },
      "additionalContracts": [],
      "isFixedGasLimit": false
    },
    {
      "hash": "0xe66e807a11557ad01b51ea8d054a28e8384e97b7124732f73b6732dba245cef6",
      "transactionType": "CALL",
      "contractName": null,
      "contractAddress": "0xC44504Ab6a2C4dF9a9ce82aecFc453FeC3C8771C",
      "function": "registerFunctionSelector(bytes32,string)",
      "arguments": [
        "0x7379706f705374617200000000000000506f705374617253797374656d000000",
        "\"pop((address,string,(uint32,uint32),string))\""
      ],
      "transaction": {
        "type": "0x02",
        "from": "0xa0ee7a142d267c1f36714e4a8f75612f20a79720",
        "to": "0xc44504ab6a2c4df9a9ce82aecfc453fec3c8771c",
        "gas": "0x26565",
        "value": "0x0",
        "data": "0x26d981027379706f705374617200000000000000506f705374617253797374656d0000000000000000000000000000000000000000000000000000000000000000000040000000000000000000000000000000000000000000000000000000000000002c706f702828616464726573732c737472696e672c2875696e7433322c75696e743332292c737472696e6729290000000000000000000000000000000000000000",
        "nonce": "0x21",
        "accessList": []
      },
      "additionalContracts": [],
      "isFixedGasLimit": false
    }
  ],
  "receipts": [
    {
      "transactionHash": "0x0ce84141a082bf03fc671996a7f30b3bff8311f3f162bc02c2a182b51ad66189",
      "transactionIndex": "0x0",
      "blockHash": "0x91cc0431f22767a8236d3ae52ce09e8c9a65bd35f31ff53e0768796972a7e396",
      "blockNumber": "0x29",
      "from": "0xa0Ee7A142d267C1f36714E4a8F75612F20a79720",
      "to": "0xC44504Ab6a2C4dF9a9ce82aecFc453FeC3C8771C",
      "cumulativeGasUsed": "0x21801",
      "gasUsed": "0x21801",
      "contractAddress": null,
      "logs": [
        {
          "address": "0xC44504Ab6a2C4dF9a9ce82aecFc453FeC3C8771C",
          "topics": [
            "0x8c0b5119d4cec7b284c6b1b39252a03d1e2f2d7451a5895562524c113bb952be",
            "0x746273746f72650000000000000000005265736f757263654964730000000000"
          ],
          "data": "0x0000000000000000000000000000000000000000000000000000000000000060000000000000000000000000000000000000000000000000000000000000000000000000000000000000000000000000000000000000000000000000000000a000000000000000000000000000000000000000000000000000000000000000016e73706f7053746172000000000000000000000000000000000000000000000000000000000000000000000000000000000000000000000000000000000000010100000000000000000000000000000000000000000000000000000000000000",
          "blockHash": "0x91cc0431f22767a8236d3ae52ce09e8c9a65bd35f31ff53e0768796972a7e396",
          "blockNumber": "0x29",
          "transactionHash": "0x0ce84141a082bf03fc671996a7f30b3bff8311f3f162bc02c2a182b51ad66189",
          "transactionIndex": "0x0",
          "logIndex": "0x0",
          "removed": false
        },
        {
          "address": "0xC44504Ab6a2C4dF9a9ce82aecFc453FeC3C8771C",
          "topics": [
            "0x8c0b5119d4cec7b284c6b1b39252a03d1e2f2d7451a5895562524c113bb952be",
            "0x7462776f726c640000000000000000004e616d6573706163654f776e65720000"
          ],
          "data": "0x0000000000000000000000000000000000000000000000000000000000000060000000000000000000000000000000000000000000000000000000000000000000000000000000000000000000000000000000000000000000000000000000a000000000000000000000000000000000000000000000000000000000000000016e73706f705374617200000000000000000000000000000000000000000000000000000000000000000000000000000000000000000000000000000000000014a0ee7a142d267c1f36714e4a8f75612f20a79720000000000000000000000000",
          "blockHash": "0x91cc0431f22767a8236d3ae52ce09e8c9a65bd35f31ff53e0768796972a7e396",
          "blockNumber": "0x29",
          "transactionHash": "0x0ce84141a082bf03fc671996a7f30b3bff8311f3f162bc02c2a182b51ad66189",
          "transactionIndex": "0x0",
          "logIndex": "0x1",
          "removed": false
        },
        {
          "address": "0xC44504Ab6a2C4dF9a9ce82aecFc453FeC3C8771C",
          "topics": [
            "0x8c0b5119d4cec7b284c6b1b39252a03d1e2f2d7451a5895562524c113bb952be",
            "0x7462776f726c640000000000000000005265736f757263654163636573730000"
          ],
          "data": "0x0000000000000000000000000000000000000000000000000000000000000060000000000000000000000000000000000000000000000000000000000000000000000000000000000000000000000000000000000000000000000000000000c000000000000000000000000000000000000000000000000000000000000000026e73706f70537461720000000000000000000000000000000000000000000000000000000000000000000000a0ee7a142d267c1f36714e4a8f75612f20a7972000000000000000000000000000000000000000000000000000000000000000010100000000000000000000000000000000000000000000000000000000000000",
          "blockHash": "0x91cc0431f22767a8236d3ae52ce09e8c9a65bd35f31ff53e0768796972a7e396",
          "blockNumber": "0x29",
          "transactionHash": "0x0ce84141a082bf03fc671996a7f30b3bff8311f3f162bc02c2a182b51ad66189",
          "transactionIndex": "0x0",
          "logIndex": "0x2",
          "removed": false
        }
      ],
      "status": "0x1",
      "logsBloom": "0x00000000000000000000000000000000000000001000000080000000000000000000000000000000080000000000000000000000000000000000000000000000000000000000000000000000000000000000000000000000000000000000000010800000000000000000000200001000000000000000008000000000000000000008000000000000000000000000000020000000000000000000000000000000000000000000000000000000000000000000000000000000080080000000000000000000000000000020000000000000000000000000000000000000000000000000000000004000000000000000000000080000000000000000000000000000",
      "type": "0x2",
      "effectiveGasPrice": "0xb349e265"
    },
    {
      "transactionHash": "0xcef6587b59e30a1ca600d03da550a1de7535f8fe1b15fa7087ef2e4fe64caf96",
      "transactionIndex": "0x0",
      "blockHash": "0x0ebb73e78211a4190814a3ca073afc746ba19d58b1dfc918a9de9d5a91f394a7",
      "blockNumber": "0x2a",
      "from": "0xa0Ee7A142d267C1f36714E4a8F75612F20a79720",
      "to": "0xC44504Ab6a2C4dF9a9ce82aecFc453FeC3C8771C",
      "cumulativeGasUsed": "0xbc202",
      "gasUsed": "0xbc202",
      "contractAddress": null,
      "logs": [
        {
          "address": "0xC44504Ab6a2C4dF9a9ce82aecFc453FeC3C8771C",
          "topics": [
            "0x8dbb3a9672eebfd3773e72dd9c102393436816d832c7ba9e1e1ac8fcadcac7a9",
            "0x746273746f72650000000000000000005461626c657300000000000000000000"
          ],
          "data": "0x000000000000000000000000000000000000000000000000000000000000008000000000000000000000000000000000000000000000000000000000000000c000000000000000000000000000000000000001c0000000016000000000000320000000000000000000000000000000000000000000000000000000000000014000000000000000000000000000000000000000000000000000000000000000017462706f705374617200000000000000506f705374617200000000000000000000000000000000000000000000000000000000000000000000000000000000600009030104040100000000000000000000000000000000000000000000000000005403001f615f000000000000000000000000000000000000000000000000000009030103036081000000000000000000000000000000000000000000000000000000000000000000000000000000000000000000000000000000000000032000000000000000000000000000000000000000000000000000000000000000200000000000000000000000000000000000000000000000000000000000000003000000000000000000000000000000000000000000000000000000000000006000000000000000000000000000000000000000000000000000000000000000a000000000000000000000000000000000000000000000000000000000000000e0000000000000000000000000000000000000000000000000000000000000000974696d657374616d70000000000000000000000000000000000000000000000000000000000000000000000000000000000000000000000000000000000000056f776e65720000000000000000000000000000000000000000000000000000000000000000000000000000000000000000000000000000000000000000000003617070000000000000000000000000000000000000000000000000000000000000000000000000000000000000000000000000000000000000000000000000200000000000000000000000000000000000000000000000000000000000000004000000000000000000000000000000000000000000000000000000000000008000000000000000000000000000000000000000000000000000000000000000c0000000000000000000000000000000000000000000000000000000000000010000000000000000000000000000000000000000000000000000000000000001400000000000000000000000000000000000000000000000000000000000000001780000000000000000000000000000000000000000000000000000000000000000000000000000000000000000000000000000000000000000000000000000017900000000000000000000000000000000000000000000000000000000000000000000000000000000000000000000000000000000000000000000000000000c67616d6546696e69736865640000000000000000000000000000000000000000000000000000000000000000000000000000000000000000000000000000000b6d61747269784172726179000000000000000000000000000000000000000000",
          "blockHash": "0x0ebb73e78211a4190814a3ca073afc746ba19d58b1dfc918a9de9d5a91f394a7",
          "blockNumber": "0x2a",
          "transactionHash": "0xcef6587b59e30a1ca600d03da550a1de7535f8fe1b15fa7087ef2e4fe64caf96",
          "transactionIndex": "0x0",
          "logIndex": "0x0",
          "removed": false
        },
        {
          "address": "0xC44504Ab6a2C4dF9a9ce82aecFc453FeC3C8771C",
          "topics": [
            "0x8c0b5119d4cec7b284c6b1b39252a03d1e2f2d7451a5895562524c113bb952be",
            "0x746273746f72650000000000000000005265736f757263654964730000000000"
          ],
          "data": "0x0000000000000000000000000000000000000000000000000000000000000060000000000000000000000000000000000000000000000000000000000000000000000000000000000000000000000000000000000000000000000000000000a000000000000000000000000000000000000000000000000000000000000000017462706f705374617200000000000000506f705374617200000000000000000000000000000000000000000000000000000000000000000000000000000000010100000000000000000000000000000000000000000000000000000000000000",
          "blockHash": "0x0ebb73e78211a4190814a3ca073afc746ba19d58b1dfc918a9de9d5a91f394a7",
          "blockNumber": "0x2a",
          "transactionHash": "0xcef6587b59e30a1ca600d03da550a1de7535f8fe1b15fa7087ef2e4fe64caf96",
          "transactionIndex": "0x0",
          "logIndex": "0x1",
          "removed": false
        }
      ],
      "status": "0x1",
      "logsBloom": "0x00000000000000000000000000000000000000001000000000000000000000000000000000000000000000100000000000000000000200000000000000000000000000000000000000000000000000000000000200000000000000000000080000000000000000000000000200001000000000000000008000000000000000000000000000000000000000010000000020000000000000000000000000000000000000000000000000000000000000000000000002000000080080000000000000000000000000000000000000000000000000000000000000000000000000000000000000004000000000000000000000080000000000000000000000000000",
      "type": "0x2",
      "effectiveGasPrice": "0xb33ad56b"
    },
    {
      "transactionHash": "0x512f9b300ffe25d4a1c1a2d8ded00345924f9896ef1fea9a7df83d10151af230",
      "transactionIndex": "0x1",
      "blockHash": "0x0ebb73e78211a4190814a3ca073afc746ba19d58b1dfc918a9de9d5a91f394a7",
      "blockNumber": "0x2a",
      "from": "0xa0Ee7A142d267C1f36714E4a8F75612F20a79720",
      "to": null,
      "cumulativeGasUsed": "0x3c21cd",
      "gasUsed": "0x305fcb",
      "contractAddress": "0x5621d0B4D8043524Ac5837918D6a95b1050eF228",
      "logs": [],
      "status": "0x1",
      "logsBloom": "0x00000000000000000000000000000000000000000000000000000000000000000000000000000000000000000000000000000000000000000000000000000000000000000000000000000000000000000000000000000000000000000000000000000000000000000000000000000000000000000000000000000000000000000000000000000000000000000000000000000000000000000000000000000000000000000000000000000000000000000000000000000000000000000000000000000000000000000000000000000000000000000000000000000000000000000000000000000000000000000000000000000000000000000000000000000000",
      "type": "0x2",
      "effectiveGasPrice": "0xb33ad56b"
    },
    {
      "transactionHash": "0xec6d99613138ef346752c7ad626c8a83b5cd0ea0efde23444b9faf43cb8dce35",
      "transactionIndex": "0x2",
      "blockHash": "0x0ebb73e78211a4190814a3ca073afc746ba19d58b1dfc918a9de9d5a91f394a7",
      "blockNumber": "0x2a",
      "from": "0xa0Ee7A142d267C1f36714E4a8F75612F20a79720",
      "to": "0xC44504Ab6a2C4dF9a9ce82aecFc453FeC3C8771C",
      "cumulativeGasUsed": "0x3eefa2",
      "gasUsed": "0x2cdd5",
      "contractAddress": null,
      "logs": [
        {
          "address": "0xC44504Ab6a2C4dF9a9ce82aecFc453FeC3C8771C",
          "topics": [
            "0x8c0b5119d4cec7b284c6b1b39252a03d1e2f2d7451a5895562524c113bb952be",
            "0x746273746f72650000000000000000005265736f757263654964730000000000"
          ],
          "data": "0x0000000000000000000000000000000000000000000000000000000000000060000000000000000000000000000000000000000000000000000000000000000000000000000000000000000000000000000000000000000000000000000000a000000000000000000000000000000000000000000000000000000000000000017379706f705374617200000000000000506f705374617253797374656d00000000000000000000000000000000000000000000000000000000000000000000010100000000000000000000000000000000000000000000000000000000000000",
          "blockHash": "0x0ebb73e78211a4190814a3ca073afc746ba19d58b1dfc918a9de9d5a91f394a7",
          "blockNumber": "0x2a",
          "transactionHash": "0xec6d99613138ef346752c7ad626c8a83b5cd0ea0efde23444b9faf43cb8dce35",
          "transactionIndex": "0x2",
          "logIndex": "0x8",
          "removed": false
        },
        {
          "address": "0xC44504Ab6a2C4dF9a9ce82aecFc453FeC3C8771C",
          "topics": [
            "0x8dbb3a9672eebfd3773e72dd9c102393436816d832c7ba9e1e1ac8fcadcac7a9",
            "0x7462776f726c6400000000000000000053797374656d73000000000000000000"
          ],
          "data": "0x000000000000000000000000000000000000000000000000000000000000008000000000000000000000000000000000000000000000000000000000000000c00000000000000000000000000000000000000000000000000000000000000000000000000000000000000000000000000000000000000000000000000000010000000000000000000000000000000000000000000000000000000000000000017379706f705374617200000000000000506f705374617253797374656d00000000000000000000000000000000000000000000000000000000000000000000155621d0b4d8043524ac5837918d6a95b1050ef2280100000000000000000000000000000000000000000000000000000000000000000000000000000000000000",
          "blockHash": "0x0ebb73e78211a4190814a3ca073afc746ba19d58b1dfc918a9de9d5a91f394a7",
          "blockNumber": "0x2a",
          "transactionHash": "0xec6d99613138ef346752c7ad626c8a83b5cd0ea0efde23444b9faf43cb8dce35",
          "transactionIndex": "0x2",
          "logIndex": "0x9",
          "removed": false
        },
        {
          "address": "0xC44504Ab6a2C4dF9a9ce82aecFc453FeC3C8771C",
          "topics": [
            "0x8c0b5119d4cec7b284c6b1b39252a03d1e2f2d7451a5895562524c113bb952be",
            "0x7462776f726c6400000000000000000053797374656d52656769737472790000"
          ],
          "data": "0x0000000000000000000000000000000000000000000000000000000000000060000000000000000000000000000000000000000000000000000000000000000000000000000000000000000000000000000000000000000000000000000000a000000000000000000000000000000000000000000000000000000000000000010000000000000000000000005621d0b4d8043524ac5837918d6a95b1050ef22800000000000000000000000000000000000000000000000000000000000000207379706f705374617200000000000000506f705374617253797374656d000000",
          "blockHash": "0x0ebb73e78211a4190814a3ca073afc746ba19d58b1dfc918a9de9d5a91f394a7",
          "blockNumber": "0x2a",
          "transactionHash": "0xec6d99613138ef346752c7ad626c8a83b5cd0ea0efde23444b9faf43cb8dce35",
          "transactionIndex": "0x2",
          "logIndex": "0xa",
          "removed": false
        },
        {
          "address": "0xC44504Ab6a2C4dF9a9ce82aecFc453FeC3C8771C",
          "topics": [
            "0x8c0b5119d4cec7b284c6b1b39252a03d1e2f2d7451a5895562524c113bb952be",
            "0x7462776f726c640000000000000000005265736f757263654163636573730000"
          ],
          "data": "0x0000000000000000000000000000000000000000000000000000000000000060000000000000000000000000000000000000000000000000000000000000000000000000000000000000000000000000000000000000000000000000000000c000000000000000000000000000000000000000000000000000000000000000026e73706f705374617200000000000000000000000000000000000000000000000000000000000000000000005621d0b4d8043524ac5837918d6a95b1050ef22800000000000000000000000000000000000000000000000000000000000000010100000000000000000000000000000000000000000000000000000000000000",
          "blockHash": "0x0ebb73e78211a4190814a3ca073afc746ba19d58b1dfc918a9de9d5a91f394a7",
          "blockNumber": "0x2a",
          "transactionHash": "0xec6d99613138ef346752c7ad626c8a83b5cd0ea0efde23444b9faf43cb8dce35",
          "transactionIndex": "0x2",
          "logIndex": "0xb",
          "removed": false
        }
      ],
      "status": "0x1",
      "logsBloom": "0x80000000000000000000000000000000000000001800000080000000000000000000000000000000000000100000000000000000000000000000000000000000000000000000040000000000000000000000000000000000000000000000080000800000000000000000000200001000000000000000008000000000000000000008000000000000000000010000000020000000000000000000000000000000000000000000000000000000000000000100000000000000080081000000000000000000000000000000000000000000000000000000000000000000000000000000000000004000008000000000000000080000000000000000000000000000",
      "type": "0x2",
      "effectiveGasPrice": "0xb33ad56b"
    },
    {
      "transactionHash": "0x8f5f9c717afd30cf1e076bcf433cccb9837a0b4f55dd5cba2ddeed543890b416",
      "transactionIndex": "0x3",
      "blockHash": "0x0ebb73e78211a4190814a3ca073afc746ba19d58b1dfc918a9de9d5a91f394a7",
      "blockNumber": "0x2a",
      "from": "0xa0Ee7A142d267C1f36714E4a8F75612F20a79720",
      "to": "0xC44504Ab6a2C4dF9a9ce82aecFc453FeC3C8771C",
      "cumulativeGasUsed": "0x40a566",
      "gasUsed": "0x1b5c4",
      "contractAddress": null,
      "logs": [
        {
          "address": "0xC44504Ab6a2C4dF9a9ce82aecFc453FeC3C8771C",
          "topics": [
            "0x8dbb3a9672eebfd3773e72dd9c102393436816d832c7ba9e1e1ac8fcadcac7a9",
            "0x7462776f726c6400000000000000000046756e6374696f6e53656c6563746f72"
          ],
          "data": "0x000000000000000000000000000000000000000000000000000000000000008000000000000000000000000000000000000000000000000000000000000000c00000000000000000000000000000000000000000000000000000000000000000000000000000000000000000000000000000000000000000000000000000012000000000000000000000000000000000000000000000000000000000000000018dd2ca7f0000000000000000000000000000000000000000000000000000000000000000000000000000000000000000000000000000000000000000000000247379706f705374617200000000000000506f705374617253797374656d000000e1c7392a000000000000000000000000000000000000000000000000000000000000000000000000000000000000000000000000000000000000000000000000",
          "blockHash": "0x0ebb73e78211a4190814a3ca073afc746ba19d58b1dfc918a9de9d5a91f394a7",
          "blockNumber": "0x2a",
          "transactionHash": "0x8f5f9c717afd30cf1e076bcf433cccb9837a0b4f55dd5cba2ddeed543890b416",
          "transactionIndex": "0x3",
          "logIndex": "0x6",
          "removed": false
        },
        {
          "address": "0xC44504Ab6a2C4dF9a9ce82aecFc453FeC3C8771C",
          "topics": [
            "0x8dbb3a9672eebfd3773e72dd9c102393436816d832c7ba9e1e1ac8fcadcac7a9",
            "0x6f74776f726c6400000000000000000046756e6374696f6e5369676e61747572"
          ],
          "data": "0x000000000000000000000000000000000000000000000000000000000000008000000000000000000000000000000000000000000000000000000000000000c00000000000000000000000000000000000000000000000001c0000000000001c00000000000000000000000000000000000000000000000000000000000000e000000000000000000000000000000000000000000000000000000000000000018dd2ca7f000000000000000000000000000000000000000000000000000000000000000000000000000000000000000000000000000000000000000000000000000000000000000000000000000000000000000000000000000000000000001c706f70537461725f506f705374617253797374656d5f696e6974282900000000",
          "blockHash": "0x0ebb73e78211a4190814a3ca073afc746ba19d58b1dfc918a9de9d5a91f394a7",
          "blockNumber": "0x2a",
          "transactionHash": "0x8f5f9c717afd30cf1e076bcf433cccb9837a0b4f55dd5cba2ddeed543890b416",
          "transactionIndex": "0x3",
          "logIndex": "0x7",
          "removed": false
        }
      ],
      "status": "0x1",
      "logsBloom": "0x00000800004000000000000000000000000000000000000000000000000000000000000000000000000000100000000000000000000000000000000000000000000000000000000000000000000000000000000000000000000000000000080000000000000000000000000000001000000000000000008000000000000000000000000000000000000000010000000000000000000000000000000000040000000000000000000000000000000000000000000000000000000000000000000000000000000000000100000000000000000000000000000000000000000000000000000000000000000000000000000040080000000000000000000000000200",
      "type": "0x2",
      "effectiveGasPrice": "0xb33ad56b"
    },
    {
      "transactionHash": "0xa321e2b1ae71c397451c011e32d7f3b03e9010cb7810d0400a764d5d63600bc5",
      "transactionIndex": "0x0",
      "blockHash": "0x88771ed6d5469ff801f547e6369fda428279911f52dc434a6488decc3205296a",
      "blockNumber": "0x2b",
      "from": "0xa0Ee7A142d267C1f36714E4a8F75612F20a79720",
      "to": "0xC44504Ab6a2C4dF9a9ce82aecFc453FeC3C8771C",
      "cumulativeGasUsed": "0x1bc53",
      "gasUsed": "0x1bc53",
      "contractAddress": null,
      "logs": [
        {
          "address": "0xC44504Ab6a2C4dF9a9ce82aecFc453FeC3C8771C",
          "topics": [
            "0x8dbb3a9672eebfd3773e72dd9c102393436816d832c7ba9e1e1ac8fcadcac7a9",
            "0x7462776f726c6400000000000000000046756e6374696f6e53656c6563746f72"
          ],
          "data": "0x000000000000000000000000000000000000000000000000000000000000008000000000000000000000000000000000000000000000000000000000000000c0000000000000000000000000000000000000000000000000000000000000000000000000000000000000000000000000000000000000000000000000000001200000000000000000000000000000000000000000000000000000000000000001bc45450f0000000000000000000000000000000000000000000000000000000000000000000000000000000000000000000000000000000000000000000000247379706f705374617200000000000000506f705374617253797374656d0000009211be97000000000000000000000000000000000000000000000000000000000000000000000000000000000000000000000000000000000000000000000000",
          "blockHash": "0x88771ed6d5469ff801f547e6369fda428279911f52dc434a6488decc3205296a",
          "blockNumber": "0x2b",
          "transactionHash": "0xa321e2b1ae71c397451c011e32d7f3b03e9010cb7810d0400a764d5d63600bc5",
          "transactionIndex": "0x0",
          "logIndex": "0x0",
          "removed": false
        },
        {
          "address": "0xC44504Ab6a2C4dF9a9ce82aecFc453FeC3C8771C",
          "topics": [
            "0x8dbb3a9672eebfd3773e72dd9c102393436816d832c7ba9e1e1ac8fcadcac7a9",
            "0x6f74776f726c6400000000000000000046756e6374696f6e5369676e61747572"
          ],
          "data": "0x000000000000000000000000000000000000000000000000000000000000008000000000000000000000000000000000000000000000000000000000000000c0000000000000000000000000000000000000000000000000470000000000004700000000000000000000000000000000000000000000000000000000000000e00000000000000000000000000000000000000000000000000000000000000001bc45450f0000000000000000000000000000000000000000000000000000000000000000000000000000000000000000000000000000000000000000000000000000000000000000000000000000000000000000000000000000000000000047706f70537461725f506f705374617253797374656d5f696e7465726163742828616464726573732c737472696e672c2875696e7433322c75696e743332292c737472696e67292900000000000000000000000000000000000000000000000000",
          "blockHash": "0x88771ed6d5469ff801f547e6369fda428279911f52dc434a6488decc3205296a",
          "blockNumber": "0x2b",
          "transactionHash": "0xa321e2b1ae71c397451c011e32d7f3b03e9010cb7810d0400a764d5d63600bc5",
          "transactionIndex": "0x0",
          "logIndex": "0x1",
          "removed": false
        }
      ],
      "status": "0x1",
      "logsBloom": "0x00000800004000000000000000000000000000000000000000000000000000000000000000000000000000100000000000000000000000000000000000000000000000000000000000000000000000000000000000000000000000000000080000000000000000000000000000001000000000000000008000000000000000000000000000000000000000010000000000000000000000000000000000040000000000000000000000000000000000000000000000000000000000000000000000000000000000000100000000000000000000000000000000000000000000000000000000000000000000000000000040080000000000000000000000000200",
      "type": "0x2",
      "effectiveGasPrice": "0xb33148c1"
    },
    {
      "transactionHash": "0xe66e807a11557ad01b51ea8d054a28e8384e97b7124732f73b6732dba245cef6",
      "transactionIndex": "0x1",
      "blockHash": "0x88771ed6d5469ff801f547e6369fda428279911f52dc434a6488decc3205296a",
      "blockNumber": "0x2b",
      "from": "0xa0Ee7A142d267C1f36714E4a8F75612F20a79720",
      "to": "0xC44504Ab6a2C4dF9a9ce82aecFc453FeC3C8771C",
      "cumulativeGasUsed": "0x3786a",
      "gasUsed": "0x1bc17",
      "contractAddress": null,
      "logs": [
        {
          "address": "0xC44504Ab6a2C4dF9a9ce82aecFc453FeC3C8771C",
          "topics": [
            "0x8dbb3a9672eebfd3773e72dd9c102393436816d832c7ba9e1e1ac8fcadcac7a9",
            "0x7462776f726c6400000000000000000046756e6374696f6e53656c6563746f72"
          ],
          "data": "0x000000000000000000000000000000000000000000000000000000000000008000000000000000000000000000000000000000000000000000000000000000c00000000000000000000000000000000000000000000000000000000000000000000000000000000000000000000000000000000000000000000000000000012000000000000000000000000000000000000000000000000000000000000000016c2720140000000000000000000000000000000000000000000000000000000000000000000000000000000000000000000000000000000000000000000000247379706f705374617200000000000000506f705374617253797374656d00000019be214b000000000000000000000000000000000000000000000000000000000000000000000000000000000000000000000000000000000000000000000000",
          "blockHash": "0x88771ed6d5469ff801f547e6369fda428279911f52dc434a6488decc3205296a",
          "blockNumber": "0x2b",
          "transactionHash": "0xe66e807a11557ad01b51ea8d054a28e8384e97b7124732f73b6732dba245cef6",
          "transactionIndex": "0x1",
          "logIndex": "0x2",
          "removed": false
        },
        {
          "address": "0xC44504Ab6a2C4dF9a9ce82aecFc453FeC3C8771C",
          "topics": [
            "0x8dbb3a9672eebfd3773e72dd9c102393436816d832c7ba9e1e1ac8fcadcac7a9",
            "0x6f74776f726c6400000000000000000046756e6374696f6e5369676e61747572"
          ],
          "data": "0x000000000000000000000000000000000000000000000000000000000000008000000000000000000000000000000000000000000000000000000000000000c0000000000000000000000000000000000000000000000000420000000000004200000000000000000000000000000000000000000000000000000000000000e000000000000000000000000000000000000000000000000000000000000000016c2720140000000000000000000000000000000000000000000000000000000000000000000000000000000000000000000000000000000000000000000000000000000000000000000000000000000000000000000000000000000000000042706f70537461725f506f705374617253797374656d5f706f702828616464726573732c737472696e672c2875696e7433322c75696e743332292c737472696e672929000000000000000000000000000000000000000000000000000000000000",
          "blockHash": "0x88771ed6d5469ff801f547e6369fda428279911f52dc434a6488decc3205296a",
          "blockNumber": "0x2b",
          "transactionHash": "0xe66e807a11557ad01b51ea8d054a28e8384e97b7124732f73b6732dba245cef6",
          "transactionIndex": "0x1",
          "logIndex": "0x3",
          "removed": false
        }
      ],
      "status": "0x1",
      "logsBloom": "0x00000800004000000000000000000000000000000000000000000000000000000000000000000000000000100000000000000000000000000000000000000000000000000000000000000000000000000000000000000000000000000000080000000000000000000000000000001000000000000000008000000000000000000000000000000000000000010000000000000000000000000000000000040000000000000000000000000000000000000000000000000000000000000000000000000000000000000100000000000000000000000000000000000000000000000000000000000000000000000000000040080000000000000000000000000200",
      "type": "0x2",
      "effectiveGasPrice": "0xb33148c1"
    }
  ],
  "libraries": [],
  "pending": [],
  "returns": {},
  "timestamp": 1716092272,
  "chain": 31337,
  "multi": false,
  "commit": "a7f9d7e"
}