{
  "transactions": [
    {
      "hash": "0x7df79a6d868aa16d7d52b71b3a1797ec09cf8a7a27f9986c6ba4808a6f0bf90e",
      "transactionType": "CALL",
      "contractName": null,
      "contractAddress": "0xC44504Ab6a2C4dF9a9ce82aecFc453FeC3C8771C",
      "function": "registerNamespace(bytes32)",
      "arguments": [
        "0x6e73706f70537461720000000000000000000000000000000000000000000000"
      ],
      "transaction": {
        "type": "0x02",
        "from": "0xa0ee7a142d267c1f36714e4a8f75612f20a79720",
        "to": "0xc44504ab6a2c4df9a9ce82aecfc453fec3c8771c",
        "gas": "0x30fe7",
        "value": "0x0",
        "data": "0xb29e40896e73706f70537461720000000000000000000000000000000000000000000000",
        "nonce": "0x1b",
        "accessList": []
      },
      "additionalContracts": [],
      "isFixedGasLimit": false
    },
    {
      "hash": "0xaf2c6edfdbc5ab7187b6d74dd2e2e0ed7aa502e0a5fe6b0d0061eb6c018e2daa",
      "transactionType": "CALL",
      "contractName": null,
      "contractAddress": "0xC44504Ab6a2C4dF9a9ce82aecFc453FeC3C8771C",
      "function": null,
      "arguments": null,
      "transaction": {
        "type": "0x02",
        "from": "0xa0ee7a142d267c1f36714e4a8f75612f20a79720",
        "to": "0xc44504ab6a2c4df9a9ce82aecfc453fec3c8771c",
        "gas": "0x113222",
        "value": "0x0",
        "data": "0x0ba51f497462706f705374617200000000000000506f70537461720000000000000000000009030104040100000000000000000000000000000000000000000000000000005403001f615f00000000000000000000000000000000000000000000000000000903010303608100000000000000000000000000000000000000000000000000000000000000000000000000000000000000000000000000000000000000c000000000000000000000000000000000000000000000000000000000000002000000000000000000000000000000000000000000000000000000000000000003000000000000000000000000000000000000000000000000000000000000006000000000000000000000000000000000000000000000000000000000000000a000000000000000000000000000000000000000000000000000000000000000e0000000000000000000000000000000000000000000000000000000000000000974696d657374616d70000000000000000000000000000000000000000000000000000000000000000000000000000000000000000000000000000000000000056f776e6572000000000000000000000000000000000000000000000000000000000000000000000000000000000000000000000000000000000000000000000361707000000000000000000000000000000000000000000000000000000000000000000000000000000000000000000000000000000000000000000000000004000000000000000000000000000000000000000000000000000000000000008000000000000000000000000000000000000000000000000000000000000000c0000000000000000000000000000000000000000000000000000000000000010000000000000000000000000000000000000000000000000000000000000001400000000000000000000000000000000000000000000000000000000000000001780000000000000000000000000000000000000000000000000000000000000000000000000000000000000000000000000000000000000000000000000000017900000000000000000000000000000000000000000000000000000000000000000000000000000000000000000000000000000000000000000000000000000c67616d6546696e69736865640000000000000000000000000000000000000000000000000000000000000000000000000000000000000000000000000000000b6d61747269784172726179000000000000000000000000000000000000000000",
        "nonce": "0x1c",
        "accessList": []
      },
      "additionalContracts": [],
      "isFixedGasLimit": false
    },
    {
      "hash": "0x554dbf3e38bf5bccd4a2d95a5db011f8e1bf47d8e3a3d13ce77202c83cb1162c",
      "transactionType": "CREATE",
      "contractName": "PopStarSystem",
      "contractAddress": "0x5621d0B4D8043524Ac5837918D6a95b1050eF228",
      "function": null,
      "arguments": null,
      "transaction": {
        "type": "0x02",
        "from": "0xa0ee7a142d267c1f36714e4a8f75612f20a79720",
        "gas": "0x3ec8c4",
        "value": "0x0",
        "data": "0x60c060405260076080908152662837b829ba30b960c91b60a05262000024906200003b565b6000553480156200003457600080fd5b506200005c565b805160009082908203620000525750600092915050565b6020015192915050565b61383e806200006c6000396000f3fe608060405234801561001057600080fd5b506004361061007d5760003560e01c806345ec93541161005b57806345ec9354146100ec5780639211be97146100ff578063e1af802c14610112578063e1c7392a1461011a57600080fd5b806301ffc9a714610082578063119df25f146100aa57806319be214b146100d7575b600080fd5b610095610090366004612ee6565b610122565b60405190151581526020015b60405180910390f35b6100b26101bb565b60405173ffffffffffffffffffffffffffffffffffffffff90911681526020016100a1565b6100ea6100e53660046130a1565b6101ca565b005b604051601f1936013581526020016100a1565b6100ea61010d3660046130a1565b610723565b6100b26109a2565b6100ea6109ac565b60007fffffffff0000000000000000000000000000000000000000000000000000000082167fb5dee1270000000000000000000000000000000000000000000000000000000014806101b557507fffffffff0000000000000000000000000000000000000000000000000000000082167f01ffc9a700000000000000000000000000000000000000000000000000000000145b92915050565b60006101c5610b31565b905090565b6040810151805160208201516000916101e291610b63565b905060006101fb82602001518360000151600054610cf6565b6040517f506f7053746172000000000000000000000000000000000000000000000000006020820152909150602701604051602081830303815290604052805190602001208260e001516040516020016102559190613194565b60405160208183030381529060405280519060200120148061027c57508060600151516064145b6102e7576040517f08c379a000000000000000000000000000000000000000000000000000000000815260206004820152600f60248201527f4e6f7420506f705374617220617070000000000000000000000000000000000060448201526064015b60405180910390fd5b806040015115610353576040517f08c379a000000000000000000000000000000000000000000000000000000000815260206004820152601060248201527f47616d652069732066696e69736865640000000000000000000000000000000060448201526064016102de565b80516020808301516060840151918601519091906000906103759084906131df565b61038090600a613203565b8551885161038e91906131df565b610398919061322b565b63ffffffff16905060008282815181106103b4576103b4613248565b6020026020010151905080600003610428576040517f08c379a000000000000000000000000000000000000000000000000000000000815260206004820152601860248201527f506c6561736520636c69636b206f6e207468652073746172000000000000000060448201526064016102de565b610433828285610e96565b6104bf576040517f08c379a000000000000000000000000000000000000000000000000000000000815260206004820152602b60248201527f4e65656420746f20636f6e6e6563742074776f206f72206d6f7265206964656e60448201527f746963616c20737461727300000000000000000000000000000000000000000060648201526084016102de565b6104ca828285610fc6565b92506104d58361117d565b925060006104e2846113a0565b905060006104fb89602001518a600001516000546114ea565b905060608060005b60648163ffffffff1610156106f657878163ffffffff168151811061052a5761052a613248565b6020026020010151848263ffffffff168151811061054a5761054a613248565b6020026020010151146106ee5761057f888263ffffffff168151811061057257610572613248565b602002602001015161164b565b909350915061058c6109a2565b73ffffffffffffffffffffffffffffffffffffffff16631044b9da604051806101000160405280600a856105c091906132a6565b6105ca908f61322b565b63ffffffff1681526020016105e0600a866132c9565b6105ea908e61322b565b63ffffffff1681526020018f6000015173ffffffffffffffffffffffffffffffffffffffff1681526020018f6020015181526020018581526020018681526020016040518060400160405280600381526020017f706f70000000000000000000000000000000000000000000000000000000000081525081526020016040518060400160405280600781526020017f506f7053746172000000000000000000000000000000000000000000000000008152508152506040518263ffffffff1660e01b81526004016106bb9190613318565b600060405180830381600087803b1580156106d557600080fd5b505af11580156106e9573d6000803e3d6000fd5b505050505b600101610503565b506020808c01518c516000548d51938e01516107149490898d611814565b50505050505050505050505050565b60408101518151610733826119cf565b610799576040517f08c379a000000000000000000000000000000000000000000000000000000000815260206004820152601060248201527f506978656c206e6f7420656e6f7567680000000000000000000000000000000060448201526064016102de565b4260006107a4611b11565b905060006107b1826113a0565b90506060806000805b600a8163ffffffff16101561097d5760005b600a8163ffffffff16101561097457806107e783600a613203565b6107f1919061322b565b63ffffffff16925061080e87848151811061057257610572613248565b909550935061081b6109a2565b73ffffffffffffffffffffffffffffffffffffffff16631044b9da604051806101000160405280848e60000151610852919061322b565b63ffffffff168152602001858e6020015161086d919061322b565b63ffffffff1681526020018c73ffffffffffffffffffffffffffffffffffffffff1681526020018b81526020018781526020018881526020016040518060400160405280600381526020017f706f70000000000000000000000000000000000000000000000000000000000081525081526020016040518060400160405280600781526020017f506f7053746172000000000000000000000000000000000000000000000000008152508152506040518263ffffffff1660e01b81526004016109369190613318565b600060405180830381600087803b15801561095057600080fd5b505af1158015610964573d6000803e3d6000fd5b5050600190920191506107cc9050565b506001016107ba565b5061099786886000548b600001518c60200151898b611814565b505050505050505050565b60006101c5611bc4565b6109b46109a2565b73ffffffffffffffffffffffffffffffffffffffff1663c3aceb606040518060400160405280600781526020017f506f7053746172000000000000000000000000000000000000000000000000008152506040518060400160405280600781526020017f552b3146333145000000000000000000000000000000000000000000000000008152506040518060400160405280601281526020017f424153452f506f705374617253797374656d00000000000000000000000000008152506040518060400160405280600781526020017f706f7053746172000000000000000000000000000000000000000000000000008152506040518060400160405280600d81526020017f506f705374617253797374656d000000000000000000000000000000000000008152506040518663ffffffff1660e01b8152600401610afd9594939291906133e9565b600060405180830381600087803b158015610b1757600080fd5b505af1158015610b2b573d6000803e3d6000fd5b50505050565b7fffffffffffffffffffffffffffffffffffffffffffffffffffffffffffffffcc36013560601c80610b605750335b90565b610bc1604051806101000160405280600073ffffffffffffffffffffffffffffffffffffffff168152602001600081526020016000815260200160008152602001606081526020016060815260200160608152602001606081525090565b6040805160028082526060820183526000926020830190803683370190505090508363ffffffff1660001b81600081518110610bff57610bff613248565b6020026020010181815250508263ffffffff1660001b81600181518110610c2857610c28613248565b602090810291909101810191909152604080517f7462000000000000000000000000000000000000000000000000000000000000928101929092526000602283018190527f506978656c00000000000000000000000000000000000000000000000000000060308401529182918291610cda9101604051602081830303815290604052610cb490613456565b857e74040414202020000000000000000000000000000000000000000000000000611c10565b925092509250610ceb838383611cfa565b979650505050505050565b6040805160808082018352600080835260208301819052828401819052606080840152835160038082529281019094529192908160200160208202803683370190505090508460001b81600081518110610d5257610d52613248565b6020026020010181815250508373ffffffffffffffffffffffffffffffffffffffff1660001b81600181518110610d8b57610d8b613248565b6020026020010181815250508281600281518110610dab57610dab613248565b602090810291909101810191909152604080517f7462000000000000000000000000000000000000000000000000000000000000818401527f706f70537461720000000000000000000000000000000000000000000000000060228201527f506f7053746172000000000000000000000000000000000000000000000000006030820152815180820390930183528101905260009081908190610e7790610e5190613456565b857e09030104040100000000000000000000000000000000000000000000000000611c10565b925092509250610e88838383611dad565b9450505050505b9392505050565b600080610ea4600a86613498565b90506000610eb3600a876134ac565b905060008215610ef657610ec86001886134c0565b905085858281518110610edd57610edd613248565b602002602001015103610ef65760019350505050610e8f565b6009831015610f3857610f0a8760016134d3565b905085858281518110610f1f57610f1f613248565b602002602001015103610f385760019350505050610e8f565b8115610f7757610f49600a886134c0565b905085858281518110610f5e57610f5e613248565b602002602001015103610f775760019350505050610e8f565b6009821015610fb957610f8b87600a6134d3565b905085858281518110610fa057610fa0613248565b602002602001015103610fb95760019350505050610e8f565b5060009695505050505050565b60606000610fd5600a86613498565b90506000610fe4600a876134ac565b90506000821561104957610ff96001886134c0565b90508585828151811061100e5761100e613248565b60200260200101510361104957600085828151811061102f5761102f613248565b602002602001018181525050611046818787610fc6565b94505b60098310156110ad5761105d8760016134d3565b90508585828151811061107257611072613248565b6020026020010151036110ad57600085828151811061109357611093613248565b6020026020010181815250506110aa818787610fc6565b94505b811561110e576110be600a886134c0565b9050858582815181106110d3576110d3613248565b60200260200101510361110e5760008582815181106110f4576110f4613248565b60200260200101818152505061110b818787610fc6565b94505b60098210156111725761112287600a6134d3565b90508585828151811061113757611137613248565b60200260200101510361117257600085828151811061115857611158613248565b60200260200101818152505061116f818787610fc6565b94505b509295945050505050565b60606000806059815b600a8110156113965761119a81605a6134d3565b9250600a5b8015611261578651600a7fffffffffffffffffffffffffffffffffffffffffffffffffffffffffffffffff909201918202830195508790869081106111e6576111e6613248565b602002602001015160001461125c578385146112555786858151811061120e5761120e613248565b602002602001015187858151811061122857611228613248565b602002602001018181525050600087868151811061124857611248613248565b6020026020010181815250505b600a840393505b61119f565b5060008111801561128b575085828151811061127f5761127f613248565b60200260200101516000145b15611380578561129c82605a6134d3565b815181106112ac576112ac613248565b602002602001015160001461137b5760005b600a81101561136c576112d281600a6134e6565b6112dc90836134d3565b94508685815181106112f0576112f0613248565b60200260200101516000146113645786858151811061131157611311613248565b60200260200101518760018761132791906134c0565b8151811061133757611337613248565b602002602001018181525050600087868151811061135757611357613248565b6020026020010181815250505b6001016112be565b506113786001836134d3565b91505b61138e565b61138b6001836134d3565b91505b600101611186565b5093949350505050565b6000805b60638110156114e1578281815181106113bf576113bf613248565b60200260200101516000146114d957605981111561142857826113e38260016134d3565b815181106113f3576113f3613248565b602002602001015183828151811061140d5761140d613248565b6020026020010151036114235750600092915050565b6114d9565b611433600a82613498565b60090361144657826113e382600a6134d3565b826114528260016134d3565b8151811061146257611462613248565b602002602001015183828151811061147c5761147c613248565b602002602001015114806114cb57508261149782600a6134d3565b815181106114a7576114a7613248565b60200260200101518382815181106114c1576114c1613248565b6020026020010151145b156114d95750600092915050565b6001016113a4565b50600192915050565b60408051600380825260808201909252606091600091906020820184803683370190505090508460001b8160008151811061152757611527613248565b6020026020010181815250508373ffffffffffffffffffffffffffffffffffffffff1660001b8160018151811061156057611560613248565b602002602001018181525050828160028151811061158057611580613248565b602090810291909101810191909152604080517f7462000000000000000000000000000000000000000000000000000000000000818401527f706f70537461720000000000000000000000000000000000000000000000000060228201527f506f7053746172000000000000000000000000000000000000000000000000006030820152815180820390930183528101905260009061162a9061162290613456565b836000611e09565b905061164161163c8260008451611eea565b611f7a565b9695505050505050565b60408051808201909152600681527f552b3236303600000000000000000000000000000000000000000000000000006020820152606060018390036116c4575060408051808201909152600781527f23464646463030000000000000000000000000000000000000000000000000006020820152915091565b82600203611706575060408051808201909152600781527f23303030304646000000000000000000000000000000000000000000000000006020820152915091565b82600303611748575060408051808201909152600781527f23646538386636000000000000000000000000000000000000000000000000006020820152915091565b8260040361178a575060408051808201909152600781527f23464630303030000000000000000000000000000000000000000000000000006020820152915091565b826005036117cc575060408051808201909152600781527f23663938363930000000000000000000000000000000000000000000000000006020820152915091565b50506040805160208082018352600082528251808401909352600783527f23303030303030000000000000000000000000000000000000000000000000009083015290915091565b604080517fffffffff0000000000000000000000000000000000000000000000000000000060e087811b8216602084015286901b16602482015283151560f81b6028820152815180820360090181526029909101909152600061187683611f8b565b9050600061188384611f9e565b6040805160038082526080820190925291925060009190602082016060803683370190505090508a60001b816000815181106118c1576118c1613248565b6020026020010181815250508973ffffffffffffffffffffffffffffffffffffffff1660001b816001815181106118fa576118fa613248565b602002602001018181525050888160028151811061191a5761191a613248565b602090810291909101810191909152604080517f7462000000000000000000000000000000000000000000000000000000000000818401527f706f70537461720000000000000000000000000000000000000000000000000060228201527f506f705374617200000000000000000000000000000000000000000000000000603082015281518082039093018352810190526119c2906119b990613456565b82868686611fcf565b5050505050505050505050565b6000611a2f604051806101000160405280600073ffffffffffffffffffffffffffffffffffffffff168152602001600081526020016000815260200160008152602001606081526020016060815260200160608152602001606081525090565b60005b600a8160ff161015611b075760005b600a8160ff161015611af4578451611a7990611a619060ff84169061322b565b8360ff168760200151611a74919061322b565b610b63565b9250826080015151600014611a9357506000949350505050565b60a08301515115611aa957506000949350505050565b60e083015151151580611ad25750825173ffffffffffffffffffffffffffffffffffffffff1615155b15611ae257506000949350505050565b80611aec816134fd565b915050611a41565b5080611aff816134fd565b915050611a32565b5060019392505050565b604080516064808252610ca082019092526060916000919060208201610c808036833701905050905060005b6064811015611bbe576000600544611b5584436134d3565b6040805160208101939093528201526060016040516020818303038152906040528051906020012060001c611b8a9190613498565b611b959060016134d3565b905080838381518110611baa57611baa613248565b602090810291909101015250600101611b3d565b50919050565b7f629a4c26e296b22a8e0856e9f6ecb2d1008d7e00081111962cd175fa7488e1755460009073ffffffffffffffffffffffffffffffffffffffff1680611c0b573391505090565b919050565b6060600060606000611c20611bc4565b90503073ffffffffffffffffffffffffffffffffffffffff821603611c5657611c4a87878761209f565b93509350935050611cf1565b6040517f419b58fd00000000000000000000000000000000000000000000000000000000815273ffffffffffffffffffffffffffffffffffffffff82169063419b58fd90611cac908a908a908a90600401613557565b600060405180830381865afa158015611cc9573d6000803e3d6000fd5b505050506040513d6000823e601f3d908101601f19168201604052611c4a91908101906135c5565b93509350939050565b611d58604051806101000160405280600073ffffffffffffffffffffffffffffffffffffffff168152602001600081526020016000815260200160008152602001606081526020016060815260200160608152602001606081525090565b611d61846121a7565b60608501526040840152602083015273ffffffffffffffffffffffffffffffffffffffff168152611d9283836121df565b60e085015260c084015260a083015260808201529392505050565b60408051608081018252600080825260208083018281529383019182526060808401528601516024870151602888015160f81c151590925260e091821c9093529190911c8152611dfd8383612272565b60608201529392505050565b60606000611e15611bc4565b90503073ffffffffffffffffffffffffffffffffffffffff821603611e4757611e3f858585612299565b915050610e8f565b6040517f1e78897700000000000000000000000000000000000000000000000000000000815273ffffffffffffffffffffffffffffffffffffffff821690631e78897790611e9d90889088908890600401613632565b600060405180830381865afa158015611eba573d6000803e3d6000fd5b505050506040513d6000823e601f3d908101601f19168201604052611e3f919081019061365e565b509392505050565b6000818311158015611efd575083518211155b611f39578383836040517f23230fa30000000000000000000000000000000000000000000000000000000081526004016102de93929190613693565b60208401611f4784826134d3565b90506000611f5585856134c0565b6fffffffffffffffffffffffffffffffff1660809290921b9190911795945050505050565b60606000610e8f83602060006122db565b60006101b58251602002603881901b1790565b6060611fa982612356565b604051602001611fb99190613194565b6040516020818303038152906040529050919050565b6000611fd9611bc4565b90503073ffffffffffffffffffffffffffffffffffffffff82160361200a576120058686868686612366565b612097565b6040517f298314fb00000000000000000000000000000000000000000000000000000000815273ffffffffffffffffffffffffffffffffffffffff82169063298314fb9061206490899089908990899089906004016136b8565b600060405180830381600087803b15801561207e57600080fd5b505af1158015612092573d6000803e3d6000fd5b505050505b505050505050565b60606000606060006120b085612383565b90506120bd8787836123a6565b935060006120ca866123df565b9050801561219c576120dc888861241c565b935066ffffffffffffff841667ffffffffffffffff81111561210057612100612f28565b6040519080825280601f01601f19166020018201604052801561212a576020820181803683370190505b5092506020830160005b828160ff16101561219957600061214c8b8b8461242f565b90506000612169888460ff166028026038011c64ffffffffff1690565b905061217882826000876124af565b61218281856134d3565b935050508080612191906134fd565b915050612134565b50505b505093509350939050565b6000806000806121bc85600060209101015190565b6034860151605487015160749097015160609290921c9790969550909350915050565b60608080806000603887901c64ffffffffff16612205612200888484611eea565b6125d8565b955090508064ffffffffff606089901c1601612225612200888484611eea565b945090508064ffffffffff608889901c1601612245612200888484611eea565b935090508064ffffffffff60b089901c1601612265612200888484611eea565b9250505092959194509250565b60606000603884901c64ffffffffff1661229061163c858484611eea565b95945050505050565b60606122d36122a985858561242f565b6122cc846122b7888861241c565b9060ff166028026038011c64ffffffffff1690565b6000612658565b949350505050565b606060006122e98560801c90565b90506fffffffffffffffffffffffffffffffff8516600085828161230f5761230f613277565b04905060405193506020840160208202810160405281855260005b8281101561234a578451871c82529387019360209091019060010161232a565b50505050509392505050565b606081610e8f816020600061267b565b61237c85858585856123778b6126cf565b612833565b5050505050565b60006008612393600260206134c0565b61239d91906134e6565b9190911c919050565b6060816000036123c55750604080516020810190915260008152610e8f565b60006123d18585612b3d565b905061229081846000612658565b600060086001806123f2600260206134c0565b6123fc91906134c0565b61240691906134c0565b61241091906134e6565b8260ff911c1692915050565b6000610e8f61242b8484612b93565b5490565b600083836040516020016124449291906136fd565b604051602081830303815290604052805190602001208260f81b7effffffffffffffffffffffffffffffffffffffffffffffffffffffffffffff19167f3b4102da22e32d82fc925482184f16c09fd4281692720b87d124aef6da48a0f1181860001c90509392505050565b811561257457602082106124d9576020820484019350602082816124d5576124d5613277565b0691505b811561257457602082900360008185101561251b57507fffffffffffffffffffffffffffffffffffffffffffffffffffffffffffffffff600885021c19612544565b507fffffffffffffffffffffffffffffffffffffffffffffffffffffffffffffffff600882021c195b8554600885021b811984511682821617845250818511612565575050610b2b565b50600194909401939283900392015b5b602083106125965783548152600190930192601f1990920191602001612575565b8215610b2b5760007fffffffffffffffffffffffffffffffffffffffffffffffffffffffffffffffff600885021c198251865482169119161782525050505050565b606060006125e68360801c90565b90506fffffffffffffffffffffffffffffffff83168067ffffffffffffffff81111561261457612614612f28565b6040519080825280601f01601f19166020018201604052801561263e576020820181803683370190505b50925060208301612650838284612be9565b505050919050565b60405160208101601f19603f8584010116604052838252611ee2858585846124af565b8251606090600061268c85836134e6565b9050604051925060208301601f19603f83860101166040528184526000602088015b8482101561234a578051871b835291870191600191909101906020016126ae565b604080517f746200000000000000000000000000000000000000000000000000000000000060208201527f73746f726500000000000000000000000000000000000000000000000000000060228201527f5461626c6573000000000000000000000000000000000000000000000000000060308201526000910160405160208183030381529060405261276190613456565b820361278d57507e60030220202000000000000000000000000000000000000000000000000000919050565b604080517f746200000000000000000000000000000000000000000000000000000000000060208201527f73746f726500000000000000000000000000000000000000000000000000000060228201527f5461626c6573000000000000000000000000000000000000000000000000000060308201526101b59161282a910160405160208183030381529060405261282490613456565b84612c53565b60206000612c6f565b857f8dbb3a9672eebfd3773e72dd9c102393436816d832c7ba9e1e1ac8fcadcac7a9868686866040516128699493929190613738565b60405180910390a27f7462000000000000000000000000000000000000000000000000000000000000867fffff00000000000000000000000000000000000000000000000000000000000016036120975760006128c587612cc0565b905060005b81518110156129a85760008282815181106128e7576128e7613248565b602002602001015190506129136001826affffffffffffffffffffff1916612dbb90919063ffffffff16565b15612995576040517f57066c9c000000000000000000000000000000000000000000000000000000008152606082901c906357066c9c90612962908c908c908c908c908c908c90600401613777565b600060405180830381600087803b15801561297c57600080fd5b505af1158015612990573d6000803e3d6000fd5b505050505b50806129a0816137d0565b9150506128ca565b5060006129b58888612b3d565b905060006020870190506129cd826000838a51612dd9565b60006129d8856123df565b1115612a5c5760006129ea8a8a612b93565b878155905060208601915060008060005b612a04886123df565b8160ff161015612a5757612a198d8d8361242f565b9250612a348a8260ff166028026038011c64ffffffffff1690565b9150612a438360008785612dd9565b612a4d82866134d3565b94506001016129fb565b505050505b60005b8351811015612092576000848281518110612a7c57612a7c613248565b60200260200101519050612aa86002826affffffffffffffffffffff1916612dbb90919063ffffffff16565b15612b2a576040517f5b28cdaf000000000000000000000000000000000000000000000000000000008152606082901c90635b28cdaf90612af7908e908e908e908e908e908e90600401613777565b600060405180830381600087803b158015612b1157600080fd5b505af1158015612b25573d6000803e3d6000fd5b505050505b5080612b35816137d0565b915050612a5f565b60008282604051602001612b529291906136fd565b60408051601f1981840301815291905280516020909101207f86425bff6b57326c7859e89024fe4f238ca327a1ae4a230180dd2f0e88aaa7d9189392505050565b60008282604051602001612ba89291906136fd565b60408051601f1981840301815291905280516020909101207f14e2fcc58e58e68ec7edc30c8d50dccc3ce2714a623ec81f46b6a63922d76569189392505050565b5b60208110612c09578251825260209283019290910190601f1901612bea565b80600003612c1657505050565b60007fffffffffffffffffffffffffffffffffffffffffffffffffffffffffffffffff600883021c19905080198351168185511617835250505050565b6040805160208101849052908101829052600090606001612b52565b600060208210612c9557602082048401935060208281612c9157612c91613277565b0691505b508254600882021b602082900380841115611ee2576001850154600882021c82179150509392505050565b60408051600180825281830190925260609160009190602080830190803683370190505090508281600081518110612cfa57612cfa613248565b602090810291909101810191909152604080517f7462000000000000000000000000000000000000000000000000000000000000818401527f73746f726500000000000000000000000000000000000000000000000000000060228201527f53746f7265486f6f6b730000000000000000000000000000000000000000000060308201528151808203909301835281019052600090612da490612d9c90613456565b836000612299565b90506122d3612db68260008451611eea565b612ed5565b60008160ff1682612dcc8560581c90565b1660ff1614905092915050565b8215612e715760208310612e0357602083048401935060208381612dff57612dff613277565b0692505b8215612e7157602083900360007fffffffffffffffffffffffffffffffffffffffffffffffffffffffffffffffff600884021c1990506008850281811c91508451811c9050811987541682821617875550818311612e62575050610b2b565b50600194909401939182019190035b5b60208110612e935781518455600190930192602090910190601f1901612e72565b8015610b2b5760007fffffffffffffffffffffffffffffffffffffffffffffffffffffffffffffffff600883021c198554845182169119161785555050505050565b60606000610e8f83601560006122db565b600060208284031215612ef857600080fd5b81357fffffffff0000000000000000000000000000000000000000000000000000000081168114610e8f57600080fd5b7f4e487b7100000000000000000000000000000000000000000000000000000000600052604160045260246000fd5b6040516080810167ffffffffffffffff81118282101715612f7a57612f7a612f28565b60405290565b604051601f8201601f1916810167ffffffffffffffff81118282101715612fa957612fa9612f28565b604052919050565b600067ffffffffffffffff821115612fcb57612fcb612f28565b50601f01601f191660200190565b600082601f830112612fea57600080fd5b8135612ffd612ff882612fb1565b612f80565b81815284602083860101111561301257600080fd5b816020850160208301376000918101602001919091529392505050565b803563ffffffff81168114611c0b57600080fd5b60006040828403121561305557600080fd5b6040516040810181811067ffffffffffffffff8211171561307857613078612f28565b6040529050806130878361302f565b81526130956020840161302f565b60208201525092915050565b6000602082840312156130b357600080fd5b813567ffffffffffffffff808211156130cb57600080fd5b9083019060a082860312156130df57600080fd5b6130e7612f57565b823573ffffffffffffffffffffffffffffffffffffffff8116811461310b57600080fd5b815260208301358281111561311f57600080fd5b61312b87828601612fd9565b60208301525061313e8660408501613043565b604082015260808301358281111561315557600080fd5b61316187828601612fd9565b60608301525095945050505050565b60005b8381101561318b578181015183820152602001613173565b50506000910152565b600082516131a6818460208701613170565b9190910192915050565b7f4e487b7100000000000000000000000000000000000000000000000000000000600052601160045260246000fd5b63ffffffff8281168282160390808211156131fc576131fc6131b0565b5092915050565b63ffffffff818116838216028082169190828114613223576132236131b0565b505092915050565b63ffffffff8181168382160190808211156131fc576131fc6131b0565b7f4e487b7100000000000000000000000000000000000000000000000000000000600052603260045260246000fd5b7f4e487b7100000000000000000000000000000000000000000000000000000000600052601260045260246000fd5b600063ffffffff808416806132bd576132bd613277565b92169190910692915050565b600063ffffffff808416806132e0576132e0613277565b92169190910492915050565b60008151808452613304816020860160208601613170565b601f01601f19169290920160200192915050565b6020815261332f60208201835163ffffffff169052565b60006020830151613348604084018263ffffffff169052565b50604083015173ffffffffffffffffffffffffffffffffffffffff81166060840152506060830151608083015260808301516101008060a08501526133916101208501836132ec565b915060a0850151601f19808685030160c08701526133af84836132ec565b935060c08701519150808685030160e08701526133cc84836132ec565b935060e087015191508086850301838701525061164183826132ec565b60a0815260006133fc60a08301886132ec565b828103602084015261340e81886132ec565b9050828103604084015261342281876132ec565b9050828103606084015261343681866132ec565b9050828103608084015261344a81856132ec565b98975050505050505050565b80516020808301519190811015611bbe577fffffffffffffffffffffffffffffffffffffffffffffffffffffffffffffffff60209190910360031b1b16919050565b6000826134a7576134a7613277565b500690565b6000826134bb576134bb613277565b500490565b818103818111156101b5576101b56131b0565b808201808211156101b5576101b56131b0565b80820281158282048414176101b5576101b56131b0565b600060ff821660ff8103613513576135136131b0565b60010192915050565b600081518084526020808501945080840160005b8381101561354c57815187529582019590820190600101613530565b509495945050505050565b838152606060208201526000613570606083018561351c565b9050826040830152949350505050565b600082601f83011261359157600080fd5b815161359f612ff882612fb1565b8181528460208386010111156135b457600080fd5b6122d3826020830160208701613170565b6000806000606084860312156135da57600080fd5b835167ffffffffffffffff808211156135f257600080fd5b6135fe87838801613580565b945060208601519350604086015191508082111561361b57600080fd5b5061362886828701613580565b9150509250925092565b83815260606020820152600061364b606083018561351c565b905060ff83166040830152949350505050565b60006020828403121561367057600080fd5b815167ffffffffffffffff81111561368757600080fd5b6122d384828501613580565b6060815260006136a660608301866132ec565b60208301949094525060400152919050565b85815260a0602082015260006136d160a083018761351c565b82810360408401526136e381876132ec565b9050846060840152828103608084015261344a81856132ec565b82815260006020808301845182860160005b8281101561372b5781518452928401929084019060010161370f565b5091979650505050505050565b60808152600061374b608083018761351c565b828103602084015261375d81876132ec565b90508460408401528281036060840152610ceb81856132ec565b86815260c06020820152600061379060c083018861351c565b82810360408401526137a281886132ec565b905085606084015282810360808401526137bc81866132ec565b9150508260a0830152979650505050505050565b60007fffffffffffffffffffffffffffffffffffffffffffffffffffffffffffffffff8203613801576138016131b0565b506001019056fea2646970667358221220c019ca8b68c68a4f8b738d4e6afe9c66485c8b4867d4a47097dd5af2a37545d664736f6c63430008150033",
        "nonce": "0x1d",
        "accessList": []
      },
      "additionalContracts": [],
      "isFixedGasLimit": false
    },
    {
      "hash": "0x60ed3821cc97bab6caa0463ea7184d9de74861198f75760ae8af90ca297b0c6c",
      "transactionType": "CALL",
      "contractName": null,
      "contractAddress": "0xC44504Ab6a2C4dF9a9ce82aecFc453FeC3C8771C",
      "function": "registerSystem(bytes32,address,bool)",
      "arguments": [
        "0x7379706f705374617200000000000000506f705374617253797374656d000000",
        "0x5621d0B4D8043524Ac5837918D6a95b1050eF228",
        "true"
      ],
      "transaction": {
        "type": "0x02",
        "from": "0xa0ee7a142d267c1f36714e4a8f75612f20a79720",
        "to": "0xc44504ab6a2c4df9a9ce82aecfc453fec3c8771c",
        "gas": "0x3df81",
        "value": "0x0",
        "data": "0x3350b6a97379706f705374617200000000000000506f705374617253797374656d0000000000000000000000000000005621d0b4d8043524ac5837918d6a95b1050ef2280000000000000000000000000000000000000000000000000000000000000001",
        "nonce": "0x1e",
        "accessList": []
      },
      "additionalContracts": [],
      "isFixedGasLimit": false
    },
    {
      "hash": "0xdf6d6f2e9803b174ebd48257286f91e82589e05af7e683e0cdd816f980035128",
      "transactionType": "CALL",
      "contractName": null,
      "contractAddress": "0xC44504Ab6a2C4dF9a9ce82aecFc453FeC3C8771C",
      "function": "registerFunctionSelector(bytes32,string)",
      "arguments": [
        "0x7379706f705374617200000000000000506f705374617253797374656d000000",
        "\"init()\""
      ],
      "transaction": {
        "type": "0x02",
        "from": "0xa0ee7a142d267c1f36714e4a8f75612f20a79720",
        "to": "0xc44504ab6a2c4df9a9ce82aecfc453fec3c8771c",
        "gas": "0x25ca9",
        "value": "0x0",
        "data": "0x26d981027379706f705374617200000000000000506f705374617253797374656d00000000000000000000000000000000000000000000000000000000000000000000400000000000000000000000000000000000000000000000000000000000000006696e697428290000000000000000000000000000000000000000000000000000",
        "nonce": "0x1f",
        "accessList": []
      },
      "additionalContracts": [],
      "isFixedGasLimit": false
    },
    {
      "hash": "0xdc531494866c60ff65ddf597a91db4712a9de11d929b592f144b0a0dcc0bffa2",
      "transactionType": "CALL",
      "contractName": null,
      "contractAddress": "0xC44504Ab6a2C4dF9a9ce82aecFc453FeC3C8771C",
      "function": "registerFunctionSelector(bytes32,string)",
      "arguments": [
        "0x7379706f705374617200000000000000506f705374617253797374656d000000",
        "\"interact((address,string,(uint32,uint32),string))\""
      ],
      "transaction": {
        "type": "0x02",
        "from": "0xa0ee7a142d267c1f36714e4a8f75612f20a79720",
        "to": "0xc44504ab6a2c4df9a9ce82aecfc453fec3c8771c",
        "gas": "0x289d2",
        "value": "0x0",
        "data": "0x26d981027379706f705374617200000000000000506f705374617253797374656d00000000000000000000000000000000000000000000000000000000000000000000400000000000000000000000000000000000000000000000000000000000000031696e7465726163742828616464726573732c737472696e672c2875696e7433322c75696e743332292c737472696e672929000000000000000000000000000000",
        "nonce": "0x20",
        "accessList": []
      },
      "additionalContracts": [],
      "isFixedGasLimit": false
    },
    {
      "hash": "0xd60bad7f08da1738dbf50f1ab17029dd1442d918158663297f11f7395629da8b",
      "transactionType": "CALL",
      "contractName": null,
      "contractAddress": "0xC44504Ab6a2C4dF9a9ce82aecFc453FeC3C8771C",
      "function": "registerFunctionSelector(bytes32,string)",
      "arguments": [
        "0x7379706f705374617200000000000000506f705374617253797374656d000000",
        "\"pop((address,string,(uint32,uint32),string))\""
      ],
      "transaction": {
        "type": "0x02",
        "from": "0xa0ee7a142d267c1f36714e4a8f75612f20a79720",
        "to": "0xc44504ab6a2c4df9a9ce82aecfc453fec3c8771c",
        "gas": "0x26565",
        "value": "0x0",
        "data": "0x26d981027379706f705374617200000000000000506f705374617253797374656d0000000000000000000000000000000000000000000000000000000000000000000040000000000000000000000000000000000000000000000000000000000000002c706f702828616464726573732c737472696e672c2875696e7433322c75696e743332292c737472696e6729290000000000000000000000000000000000000000",
        "nonce": "0x21",
        "accessList": []
      },
      "additionalContracts": [],
      "isFixedGasLimit": false
    }
  ],
  "receipts": [
    {
      "transactionHash": "0x7df79a6d868aa16d7d52b71b3a1797ec09cf8a7a27f9986c6ba4808a6f0bf90e",
      "transactionIndex": "0x0",
      "blockHash": "0x36f6abda81f2fd14d815f0954c0055564a60d2f35a216574f48bae0b1b534563",
      "blockNumber": "0x2a",
      "from": "0xa0Ee7A142d267C1f36714E4a8F75612F20a79720",
      "to": "0xC44504Ab6a2C4dF9a9ce82aecFc453FeC3C8771C",
      "cumulativeGasUsed": "0x21801",
      "gasUsed": "0x21801",
      "contractAddress": null,
      "logs": [
        {
          "address": "0xC44504Ab6a2C4dF9a9ce82aecFc453FeC3C8771C",
          "topics": [
            "0x8c0b5119d4cec7b284c6b1b39252a03d1e2f2d7451a5895562524c113bb952be",
            "0x746273746f72650000000000000000005265736f757263654964730000000000"
          ],
          "data": "0x0000000000000000000000000000000000000000000000000000000000000060000000000000000000000000000000000000000000000000000000000000000000000000000000000000000000000000000000000000000000000000000000a000000000000000000000000000000000000000000000000000000000000000016e73706f7053746172000000000000000000000000000000000000000000000000000000000000000000000000000000000000000000000000000000000000010100000000000000000000000000000000000000000000000000000000000000",
          "blockHash": "0x36f6abda81f2fd14d815f0954c0055564a60d2f35a216574f48bae0b1b534563",
          "blockNumber": "0x2a",
          "transactionHash": "0x7df79a6d868aa16d7d52b71b3a1797ec09cf8a7a27f9986c6ba4808a6f0bf90e",
          "transactionIndex": "0x0",
          "logIndex": "0x0",
          "removed": false
        },
        {
          "address": "0xC44504Ab6a2C4dF9a9ce82aecFc453FeC3C8771C",
          "topics": [
            "0x8c0b5119d4cec7b284c6b1b39252a03d1e2f2d7451a5895562524c113bb952be",
            "0x7462776f726c640000000000000000004e616d6573706163654f776e65720000"
          ],
          "data": "0x0000000000000000000000000000000000000000000000000000000000000060000000000000000000000000000000000000000000000000000000000000000000000000000000000000000000000000000000000000000000000000000000a000000000000000000000000000000000000000000000000000000000000000016e73706f705374617200000000000000000000000000000000000000000000000000000000000000000000000000000000000000000000000000000000000014a0ee7a142d267c1f36714e4a8f75612f20a79720000000000000000000000000",
          "blockHash": "0x36f6abda81f2fd14d815f0954c0055564a60d2f35a216574f48bae0b1b534563",
          "blockNumber": "0x2a",
          "transactionHash": "0x7df79a6d868aa16d7d52b71b3a1797ec09cf8a7a27f9986c6ba4808a6f0bf90e",
          "transactionIndex": "0x0",
          "logIndex": "0x1",
          "removed": false
        },
        {
          "address": "0xC44504Ab6a2C4dF9a9ce82aecFc453FeC3C8771C",
          "topics": [
            "0x8c0b5119d4cec7b284c6b1b39252a03d1e2f2d7451a5895562524c113bb952be",
            "0x7462776f726c640000000000000000005265736f757263654163636573730000"
          ],
          "data": "0x0000000000000000000000000000000000000000000000000000000000000060000000000000000000000000000000000000000000000000000000000000000000000000000000000000000000000000000000000000000000000000000000c000000000000000000000000000000000000000000000000000000000000000026e73706f70537461720000000000000000000000000000000000000000000000000000000000000000000000a0ee7a142d267c1f36714e4a8f75612f20a7972000000000000000000000000000000000000000000000000000000000000000010100000000000000000000000000000000000000000000000000000000000000",
          "blockHash": "0x36f6abda81f2fd14d815f0954c0055564a60d2f35a216574f48bae0b1b534563",
          "blockNumber": "0x2a",
          "transactionHash": "0x7df79a6d868aa16d7d52b71b3a1797ec09cf8a7a27f9986c6ba4808a6f0bf90e",
          "transactionIndex": "0x0",
          "logIndex": "0x2",
          "removed": false
        }
      ],
      "status": "0x1",
      "logsBloom": "0x00000000000000000000000000000000000000001000000080000000000000000000000000000000080000000000000000000000000000000000000000000000000000000000000000000000000000000000000000000000000000000000000010800000000000000000000200001000000000000000008000000000000000000008000000000000000000000000000020000000000000000000000000000000000000000000000000000000000000000000000000000000080080000000000000000000000000000020000000000000000000000000000000000000000000000000000000004000000000000000000000080000000000000000000000000000",
      "type": "0x2",
      "effectiveGasPrice": "0xb33ab7fe"
    },
    {
      "transactionHash": "0xaf2c6edfdbc5ab7187b6d74dd2e2e0ed7aa502e0a5fe6b0d0061eb6c018e2daa",
      "transactionIndex": "0x0",
      "blockHash": "0xdd7c1e0b3d2f72f00ace3757bca49fba717ac55c45e48cf600eb9259e8014c85",
      "blockNumber": "0x2b",
      "from": "0xa0Ee7A142d267C1f36714E4a8F75612F20a79720",
      "to": "0xC44504Ab6a2C4dF9a9ce82aecFc453FeC3C8771C",
      "cumulativeGasUsed": "0xbc202",
      "gasUsed": "0xbc202",
      "contractAddress": null,
      "logs": [
        {
          "address": "0xC44504Ab6a2C4dF9a9ce82aecFc453FeC3C8771C",
          "topics": [
            "0x8dbb3a9672eebfd3773e72dd9c102393436816d832c7ba9e1e1ac8fcadcac7a9",
            "0x746273746f72650000000000000000005461626c657300000000000000000000"
          ],
          "data": "0x000000000000000000000000000000000000000000000000000000000000008000000000000000000000000000000000000000000000000000000000000000c000000000000000000000000000000000000001c0000000016000000000000320000000000000000000000000000000000000000000000000000000000000014000000000000000000000000000000000000000000000000000000000000000017462706f705374617200000000000000506f705374617200000000000000000000000000000000000000000000000000000000000000000000000000000000600009030104040100000000000000000000000000000000000000000000000000005403001f615f000000000000000000000000000000000000000000000000000009030103036081000000000000000000000000000000000000000000000000000000000000000000000000000000000000000000000000000000000000032000000000000000000000000000000000000000000000000000000000000000200000000000000000000000000000000000000000000000000000000000000003000000000000000000000000000000000000000000000000000000000000006000000000000000000000000000000000000000000000000000000000000000a000000000000000000000000000000000000000000000000000000000000000e0000000000000000000000000000000000000000000000000000000000000000974696d657374616d70000000000000000000000000000000000000000000000000000000000000000000000000000000000000000000000000000000000000056f776e65720000000000000000000000000000000000000000000000000000000000000000000000000000000000000000000000000000000000000000000003617070000000000000000000000000000000000000000000000000000000000000000000000000000000000000000000000000000000000000000000000000200000000000000000000000000000000000000000000000000000000000000004000000000000000000000000000000000000000000000000000000000000008000000000000000000000000000000000000000000000000000000000000000c0000000000000000000000000000000000000000000000000000000000000010000000000000000000000000000000000000000000000000000000000000001400000000000000000000000000000000000000000000000000000000000000001780000000000000000000000000000000000000000000000000000000000000000000000000000000000000000000000000000000000000000000000000000017900000000000000000000000000000000000000000000000000000000000000000000000000000000000000000000000000000000000000000000000000000c67616d6546696e69736865640000000000000000000000000000000000000000000000000000000000000000000000000000000000000000000000000000000b6d61747269784172726179000000000000000000000000000000000000000000",
          "blockHash": "0xdd7c1e0b3d2f72f00ace3757bca49fba717ac55c45e48cf600eb9259e8014c85",
          "blockNumber": "0x2b",
          "transactionHash": "0xaf2c6edfdbc5ab7187b6d74dd2e2e0ed7aa502e0a5fe6b0d0061eb6c018e2daa",
          "transactionIndex": "0x0",
          "logIndex": "0x0",
          "removed": false
        },
        {
          "address": "0xC44504Ab6a2C4dF9a9ce82aecFc453FeC3C8771C",
          "topics": [
            "0x8c0b5119d4cec7b284c6b1b39252a03d1e2f2d7451a5895562524c113bb952be",
            "0x746273746f72650000000000000000005265736f757263654964730000000000"
          ],
          "data": "0x0000000000000000000000000000000000000000000000000000000000000060000000000000000000000000000000000000000000000000000000000000000000000000000000000000000000000000000000000000000000000000000000a000000000000000000000000000000000000000000000000000000000000000017462706f705374617200000000000000506f705374617200000000000000000000000000000000000000000000000000000000000000000000000000000000010100000000000000000000000000000000000000000000000000000000000000",
          "blockHash": "0xdd7c1e0b3d2f72f00ace3757bca49fba717ac55c45e48cf600eb9259e8014c85",
          "blockNumber": "0x2b",
          "transactionHash": "0xaf2c6edfdbc5ab7187b6d74dd2e2e0ed7aa502e0a5fe6b0d0061eb6c018e2daa",
          "transactionIndex": "0x0",
          "logIndex": "0x1",
          "removed": false
        }
      ],
      "status": "0x1",
      "logsBloom": "0x00000000000000000000000000000000000000001000000000000000000000000000000000000000000000100000000000000000000200000000000000000000000000000000000000000000000000000000000200000000000000000000080000000000000000000000000200001000000000000000008000000000000000000000000000000000000000010000000020000000000000000000000000000000000000000000000000000000000000000000000002000000080080000000000000000000000000000000000000000000000000000000000000000000000000000000000000004000000000000000000000080000000000000000000000000000",
      "type": "0x2",
      "effectiveGasPrice": "0xb32d8be1"
    },
    {
      "transactionHash": "0x554dbf3e38bf5bccd4a2d95a5db011f8e1bf47d8e3a3d13ce77202c83cb1162c",
      "transactionIndex": "0x1",
      "blockHash": "0xdd7c1e0b3d2f72f00ace3757bca49fba717ac55c45e48cf600eb9259e8014c85",
      "blockNumber": "0x2b",
      "from": "0xa0Ee7A142d267C1f36714E4a8F75612F20a79720",
      "to": null,
      "cumulativeGasUsed": "0x3c1139",
      "gasUsed": "0x304f37",
      "contractAddress": "0x5621d0B4D8043524Ac5837918D6a95b1050eF228",
      "logs": [],
      "status": "0x1",
      "logsBloom": "0x00000000000000000000000000000000000000000000000000000000000000000000000000000000000000000000000000000000000000000000000000000000000000000000000000000000000000000000000000000000000000000000000000000000000000000000000000000000000000000000000000000000000000000000000000000000000000000000000000000000000000000000000000000000000000000000000000000000000000000000000000000000000000000000000000000000000000000000000000000000000000000000000000000000000000000000000000000000000000000000000000000000000000000000000000000000",
      "type": "0x2",
      "effectiveGasPrice": "0xb32d8be1"
    },
    {
      "transactionHash": "0x60ed3821cc97bab6caa0463ea7184d9de74861198f75760ae8af90ca297b0c6c",
      "transactionIndex": "0x2",
      "blockHash": "0xdd7c1e0b3d2f72f00ace3757bca49fba717ac55c45e48cf600eb9259e8014c85",
      "blockNumber": "0x2b",
      "from": "0xa0Ee7A142d267C1f36714E4a8F75612F20a79720",
      "to": "0xC44504Ab6a2C4dF9a9ce82aecFc453FeC3C8771C",
      "cumulativeGasUsed": "0x3edf0e",
      "gasUsed": "0x2cdd5",
      "contractAddress": null,
      "logs": [
        {
          "address": "0xC44504Ab6a2C4dF9a9ce82aecFc453FeC3C8771C",
          "topics": [
            "0x8c0b5119d4cec7b284c6b1b39252a03d1e2f2d7451a5895562524c113bb952be",
            "0x746273746f72650000000000000000005265736f757263654964730000000000"
          ],
          "data": "0x0000000000000000000000000000000000000000000000000000000000000060000000000000000000000000000000000000000000000000000000000000000000000000000000000000000000000000000000000000000000000000000000a000000000000000000000000000000000000000000000000000000000000000017379706f705374617200000000000000506f705374617253797374656d00000000000000000000000000000000000000000000000000000000000000000000010100000000000000000000000000000000000000000000000000000000000000",
          "blockHash": "0xdd7c1e0b3d2f72f00ace3757bca49fba717ac55c45e48cf600eb9259e8014c85",
          "blockNumber": "0x2b",
          "transactionHash": "0x60ed3821cc97bab6caa0463ea7184d9de74861198f75760ae8af90ca297b0c6c",
          "transactionIndex": "0x2",
          "logIndex": "0x8",
          "removed": false
        },
        {
          "address": "0xC44504Ab6a2C4dF9a9ce82aecFc453FeC3C8771C",
          "topics": [
            "0x8dbb3a9672eebfd3773e72dd9c102393436816d832c7ba9e1e1ac8fcadcac7a9",
            "0x7462776f726c6400000000000000000053797374656d73000000000000000000"
          ],
          "data": "0x000000000000000000000000000000000000000000000000000000000000008000000000000000000000000000000000000000000000000000000000000000c00000000000000000000000000000000000000000000000000000000000000000000000000000000000000000000000000000000000000000000000000000010000000000000000000000000000000000000000000000000000000000000000017379706f705374617200000000000000506f705374617253797374656d00000000000000000000000000000000000000000000000000000000000000000000155621d0b4d8043524ac5837918d6a95b1050ef2280100000000000000000000000000000000000000000000000000000000000000000000000000000000000000",
          "blockHash": "0xdd7c1e0b3d2f72f00ace3757bca49fba717ac55c45e48cf600eb9259e8014c85",
          "blockNumber": "0x2b",
          "transactionHash": "0x60ed3821cc97bab6caa0463ea7184d9de74861198f75760ae8af90ca297b0c6c",
          "transactionIndex": "0x2",
          "logIndex": "0x9",
          "removed": false
        },
        {
          "address": "0xC44504Ab6a2C4dF9a9ce82aecFc453FeC3C8771C",
          "topics": [
            "0x8c0b5119d4cec7b284c6b1b39252a03d1e2f2d7451a5895562524c113bb952be",
            "0x7462776f726c6400000000000000000053797374656d52656769737472790000"
          ],
          "data": "0x0000000000000000000000000000000000000000000000000000000000000060000000000000000000000000000000000000000000000000000000000000000000000000000000000000000000000000000000000000000000000000000000a000000000000000000000000000000000000000000000000000000000000000010000000000000000000000005621d0b4d8043524ac5837918d6a95b1050ef22800000000000000000000000000000000000000000000000000000000000000207379706f705374617200000000000000506f705374617253797374656d000000",
          "blockHash": "0xdd7c1e0b3d2f72f00ace3757bca49fba717ac55c45e48cf600eb9259e8014c85",
          "blockNumber": "0x2b",
          "transactionHash": "0x60ed3821cc97bab6caa0463ea7184d9de74861198f75760ae8af90ca297b0c6c",
          "transactionIndex": "0x2",
          "logIndex": "0xa",
          "removed": false
        },
        {
          "address": "0xC44504Ab6a2C4dF9a9ce82aecFc453FeC3C8771C",
          "topics": [
            "0x8c0b5119d4cec7b284c6b1b39252a03d1e2f2d7451a5895562524c113bb952be",
            "0x7462776f726c640000000000000000005265736f757263654163636573730000"
          ],
          "data": "0x0000000000000000000000000000000000000000000000000000000000000060000000000000000000000000000000000000000000000000000000000000000000000000000000000000000000000000000000000000000000000000000000c000000000000000000000000000000000000000000000000000000000000000026e73706f705374617200000000000000000000000000000000000000000000000000000000000000000000005621d0b4d8043524ac5837918d6a95b1050ef22800000000000000000000000000000000000000000000000000000000000000010100000000000000000000000000000000000000000000000000000000000000",
          "blockHash": "0xdd7c1e0b3d2f72f00ace3757bca49fba717ac55c45e48cf600eb9259e8014c85",
          "blockNumber": "0x2b",
          "transactionHash": "0x60ed3821cc97bab6caa0463ea7184d9de74861198f75760ae8af90ca297b0c6c",
          "transactionIndex": "0x2",
          "logIndex": "0xb",
          "removed": false
        }
      ],
      "status": "0x1",
      "logsBloom": "0x80000000000000000000000000000000000000001800000080000000000000000000000000000000000000100000000000000000000000000000000000000000000000000000040000000000000000000000000000000000000000000000080000800000000000000000000200001000000000000000008000000000000000000008000000000000000000010000000020000000000000000000000000000000000000000000000000000000000000000100000000000000080081000000000000000000000000000000000000000000000000000000000000000000000000000000000000004000008000000000000000080000000000000000000000000000",
      "type": "0x2",
      "effectiveGasPrice": "0xb32d8be1"
    },
    {
      "transactionHash": "0xdf6d6f2e9803b174ebd48257286f91e82589e05af7e683e0cdd816f980035128",
      "transactionIndex": "0x3",
      "blockHash": "0xdd7c1e0b3d2f72f00ace3757bca49fba717ac55c45e48cf600eb9259e8014c85",
      "blockNumber": "0x2b",
      "from": "0xa0Ee7A142d267C1f36714E4a8F75612F20a79720",
      "to": "0xC44504Ab6a2C4dF9a9ce82aecFc453FeC3C8771C",
      "cumulativeGasUsed": "0x4094d2",
      "gasUsed": "0x1b5c4",
      "contractAddress": null,
      "logs": [
        {
          "address": "0xC44504Ab6a2C4dF9a9ce82aecFc453FeC3C8771C",
          "topics": [
            "0x8dbb3a9672eebfd3773e72dd9c102393436816d832c7ba9e1e1ac8fcadcac7a9",
            "0x7462776f726c6400000000000000000046756e6374696f6e53656c6563746f72"
          ],
          "data": "0x000000000000000000000000000000000000000000000000000000000000008000000000000000000000000000000000000000000000000000000000000000c00000000000000000000000000000000000000000000000000000000000000000000000000000000000000000000000000000000000000000000000000000012000000000000000000000000000000000000000000000000000000000000000018dd2ca7f0000000000000000000000000000000000000000000000000000000000000000000000000000000000000000000000000000000000000000000000247379706f705374617200000000000000506f705374617253797374656d000000e1c7392a000000000000000000000000000000000000000000000000000000000000000000000000000000000000000000000000000000000000000000000000",
          "blockHash": "0xdd7c1e0b3d2f72f00ace3757bca49fba717ac55c45e48cf600eb9259e8014c85",
          "blockNumber": "0x2b",
          "transactionHash": "0xdf6d6f2e9803b174ebd48257286f91e82589e05af7e683e0cdd816f980035128",
          "transactionIndex": "0x3",
          "logIndex": "0x6",
          "removed": false
        },
        {
          "address": "0xC44504Ab6a2C4dF9a9ce82aecFc453FeC3C8771C",
          "topics": [
            "0x8dbb3a9672eebfd3773e72dd9c102393436816d832c7ba9e1e1ac8fcadcac7a9",
            "0x6f74776f726c6400000000000000000046756e6374696f6e5369676e61747572"
          ],
          "data": "0x000000000000000000000000000000000000000000000000000000000000008000000000000000000000000000000000000000000000000000000000000000c00000000000000000000000000000000000000000000000001c0000000000001c00000000000000000000000000000000000000000000000000000000000000e000000000000000000000000000000000000000000000000000000000000000018dd2ca7f000000000000000000000000000000000000000000000000000000000000000000000000000000000000000000000000000000000000000000000000000000000000000000000000000000000000000000000000000000000000001c706f70537461725f506f705374617253797374656d5f696e6974282900000000",
          "blockHash": "0xdd7c1e0b3d2f72f00ace3757bca49fba717ac55c45e48cf600eb9259e8014c85",
          "blockNumber": "0x2b",
          "transactionHash": "0xdf6d6f2e9803b174ebd48257286f91e82589e05af7e683e0cdd816f980035128",
          "transactionIndex": "0x3",
          "logIndex": "0x7",
          "removed": false
        }
      ],
      "status": "0x1",
      "logsBloom": "0x00000800004000000000000000000000000000000000000000000000000000000000000000000000000000100000000000000000000000000000000000000000000000000000000000000000000000000000000000000000000000000000080000000000000000000000000000001000000000000000008000000000000000000000000000000000000000010000000000000000000000000000000000040000000000000000000000000000000000000000000000000000000000000000000000000000000000000100000000000000000000000000000000000000000000000000000000000000000000000000000040080000000000000000000000000200",
      "type": "0x2",
      "effectiveGasPrice": "0xb32d8be1"
    },
    {
      "transactionHash": "0xdc531494866c60ff65ddf597a91db4712a9de11d929b592f144b0a0dcc0bffa2",
      "transactionIndex": "0x0",
      "blockHash": "0x5bda69daf8da40d02a4d839858d73eecbbdca751536b2c658d7891faddfaaf10",
      "blockNumber": "0x2c",
      "from": "0xa0Ee7A142d267C1f36714E4a8F75612F20a79720",
      "to": "0xC44504Ab6a2C4dF9a9ce82aecFc453FeC3C8771C",
      "cumulativeGasUsed": "0x1bc53",
      "gasUsed": "0x1bc53",
      "contractAddress": null,
      "logs": [
        {
          "address": "0xC44504Ab6a2C4dF9a9ce82aecFc453FeC3C8771C",
          "topics": [
            "0x8dbb3a9672eebfd3773e72dd9c102393436816d832c7ba9e1e1ac8fcadcac7a9",
            "0x7462776f726c6400000000000000000046756e6374696f6e53656c6563746f72"
          ],
          "data": "0x000000000000000000000000000000000000000000000000000000000000008000000000000000000000000000000000000000000000000000000000000000c0000000000000000000000000000000000000000000000000000000000000000000000000000000000000000000000000000000000000000000000000000001200000000000000000000000000000000000000000000000000000000000000001bc45450f0000000000000000000000000000000000000000000000000000000000000000000000000000000000000000000000000000000000000000000000247379706f705374617200000000000000506f705374617253797374656d0000009211be97000000000000000000000000000000000000000000000000000000000000000000000000000000000000000000000000000000000000000000000000",
          "blockHash": "0x5bda69daf8da40d02a4d839858d73eecbbdca751536b2c658d7891faddfaaf10",
          "blockNumber": "0x2c",
          "transactionHash": "0xdc531494866c60ff65ddf597a91db4712a9de11d929b592f144b0a0dcc0bffa2",
          "transactionIndex": "0x0",
          "logIndex": "0x0",
          "removed": false
        },
        {
          "address": "0xC44504Ab6a2C4dF9a9ce82aecFc453FeC3C8771C",
          "topics": [
            "0x8dbb3a9672eebfd3773e72dd9c102393436816d832c7ba9e1e1ac8fcadcac7a9",
            "0x6f74776f726c6400000000000000000046756e6374696f6e5369676e61747572"
          ],
          "data": "0x000000000000000000000000000000000000000000000000000000000000008000000000000000000000000000000000000000000000000000000000000000c0000000000000000000000000000000000000000000000000470000000000004700000000000000000000000000000000000000000000000000000000000000e00000000000000000000000000000000000000000000000000000000000000001bc45450f0000000000000000000000000000000000000000000000000000000000000000000000000000000000000000000000000000000000000000000000000000000000000000000000000000000000000000000000000000000000000047706f70537461725f506f705374617253797374656d5f696e7465726163742828616464726573732c737472696e672c2875696e7433322c75696e743332292c737472696e67292900000000000000000000000000000000000000000000000000",
          "blockHash": "0x5bda69daf8da40d02a4d839858d73eecbbdca751536b2c658d7891faddfaaf10",
          "blockNumber": "0x2c",
          "transactionHash": "0xdc531494866c60ff65ddf597a91db4712a9de11d929b592f144b0a0dcc0bffa2",
          "transactionIndex": "0x0",
          "logIndex": "0x1",
          "removed": false
        }
      ],
      "status": "0x1",
      "logsBloom": "0x00000800004000000000000000000000000000000000000000000000000000000000000000000000000000100000000000000000000000000000000000000000000000000000000000000000000000000000000000000000000000000000080000000000000000000000000000001000000000000000008000000000000000000000000000000000000000010000000000000000000000000000000000040000000000000000000000000000000000000000000000000000000000000000000000000000000000000100000000000000000000000000000000000000000000000000000000000000000000000000000040080000000000000000000000000200",
      "type": "0x2",
      "effectiveGasPrice": "0xb3252f79"
    },
    {
      "transactionHash": "0xd60bad7f08da1738dbf50f1ab17029dd1442d918158663297f11f7395629da8b",
      "transactionIndex": "0x1",
      "blockHash": "0x5bda69daf8da40d02a4d839858d73eecbbdca751536b2c658d7891faddfaaf10",
      "blockNumber": "0x2c",
      "from": "0xa0Ee7A142d267C1f36714E4a8F75612F20a79720",
      "to": "0xC44504Ab6a2C4dF9a9ce82aecFc453FeC3C8771C",
      "cumulativeGasUsed": "0x3786a",
      "gasUsed": "0x1bc17",
      "contractAddress": null,
      "logs": [
        {
          "address": "0xC44504Ab6a2C4dF9a9ce82aecFc453FeC3C8771C",
          "topics": [
            "0x8dbb3a9672eebfd3773e72dd9c102393436816d832c7ba9e1e1ac8fcadcac7a9",
            "0x7462776f726c6400000000000000000046756e6374696f6e53656c6563746f72"
          ],
          "data": "0x000000000000000000000000000000000000000000000000000000000000008000000000000000000000000000000000000000000000000000000000000000c00000000000000000000000000000000000000000000000000000000000000000000000000000000000000000000000000000000000000000000000000000012000000000000000000000000000000000000000000000000000000000000000016c2720140000000000000000000000000000000000000000000000000000000000000000000000000000000000000000000000000000000000000000000000247379706f705374617200000000000000506f705374617253797374656d00000019be214b000000000000000000000000000000000000000000000000000000000000000000000000000000000000000000000000000000000000000000000000",
          "blockHash": "0x5bda69daf8da40d02a4d839858d73eecbbdca751536b2c658d7891faddfaaf10",
          "blockNumber": "0x2c",
          "transactionHash": "0xd60bad7f08da1738dbf50f1ab17029dd1442d918158663297f11f7395629da8b",
          "transactionIndex": "0x1",
          "logIndex": "0x2",
          "removed": false
        },
        {
          "address": "0xC44504Ab6a2C4dF9a9ce82aecFc453FeC3C8771C",
          "topics": [
            "0x8dbb3a9672eebfd3773e72dd9c102393436816d832c7ba9e1e1ac8fcadcac7a9",
            "0x6f74776f726c6400000000000000000046756e6374696f6e5369676e61747572"
          ],
          "data": "0x000000000000000000000000000000000000000000000000000000000000008000000000000000000000000000000000000000000000000000000000000000c0000000000000000000000000000000000000000000000000420000000000004200000000000000000000000000000000000000000000000000000000000000e000000000000000000000000000000000000000000000000000000000000000016c2720140000000000000000000000000000000000000000000000000000000000000000000000000000000000000000000000000000000000000000000000000000000000000000000000000000000000000000000000000000000000000042706f70537461725f506f705374617253797374656d5f706f702828616464726573732c737472696e672c2875696e7433322c75696e743332292c737472696e672929000000000000000000000000000000000000000000000000000000000000",
          "blockHash": "0x5bda69daf8da40d02a4d839858d73eecbbdca751536b2c658d7891faddfaaf10",
          "blockNumber": "0x2c",
          "transactionHash": "0xd60bad7f08da1738dbf50f1ab17029dd1442d918158663297f11f7395629da8b",
          "transactionIndex": "0x1",
          "logIndex": "0x3",
          "removed": false
        }
      ],
      "status": "0x1",
      "logsBloom": "0x00000800004000000000000000000000000000000000000000000000000000000000000000000000000000100000000000000000000000000000000000000000000000000000000000000000000000000000000000000000000000000000080000000000000000000000000000001000000000000000008000000000000000000000000000000000000000010000000000000000000000000000000000040000000000000000000000000000000000000000000000000000000000000000000000000000000000000100000000000000000000000000000000000000000000000000000000000000000000000000000040080000000000000000000000000200",
      "type": "0x2",
      "effectiveGasPrice": "0xb3252f79"
    }
  ],
  "libraries": [],
  "pending": [],
  "returns": {},
  "timestamp": 1716091935,
  "chain": 31337,
  "multi": false,
  "commit": "a7f9d7e"
}