{
  "transactions": [
    {
      "hash": "0xb9d7306477721d5ab4637dc6f3903a2ce3e784bbd78d04dac955a0fa105fc7e8",
      "transactionType": "CALL",
      "contractName": null,
      "contractAddress": "0xC44504Ab6a2C4dF9a9ce82aecFc453FeC3C8771C",
      "function": "registerNamespace(bytes32)",
      "arguments": [
        "0x6e73706f70537461720000000000000000000000000000000000000000000000"
      ],
      "transaction": {
        "type": "0x02",
        "from": "0xa0ee7a142d267c1f36714e4a8f75612f20a79720",
        "to": "0xc44504ab6a2c4df9a9ce82aecfc453fec3c8771c",
        "gas": "0x30fe7",
        "value": "0x0",
        "data": "0xb29e40896e73706f70537461720000000000000000000000000000000000000000000000",
        "nonce": "0x1b",
        "accessList": []
      },
      "additionalContracts": [],
      "isFixedGasLimit": false
    },
    {
      "hash": "0x3680032a23aace7516d0ba68da8954716fdad1ba78198930616e4c24afe7d74e",
      "transactionType": "CALL",
      "contractName": null,
      "contractAddress": "0xC44504Ab6a2C4dF9a9ce82aecFc453FeC3C8771C",
      "function": null,
      "arguments": null,
      "transaction": {
        "type": "0x02",
        "from": "0xa0ee7a142d267c1f36714e4a8f75612f20a79720",
        "to": "0xc44504ab6a2c4df9a9ce82aecfc453fec3c8771c",
        "gas": "0x113222",
        "value": "0x0",
        "data": "0x0ba51f497462706f705374617200000000000000506f70537461720000000000000000000009030104040100000000000000000000000000000000000000000000000000005403001f615f00000000000000000000000000000000000000000000000000000903010303608100000000000000000000000000000000000000000000000000000000000000000000000000000000000000000000000000000000000000c000000000000000000000000000000000000000000000000000000000000002000000000000000000000000000000000000000000000000000000000000000003000000000000000000000000000000000000000000000000000000000000006000000000000000000000000000000000000000000000000000000000000000a000000000000000000000000000000000000000000000000000000000000000e0000000000000000000000000000000000000000000000000000000000000000974696d657374616d70000000000000000000000000000000000000000000000000000000000000000000000000000000000000000000000000000000000000056f776e6572000000000000000000000000000000000000000000000000000000000000000000000000000000000000000000000000000000000000000000000361707000000000000000000000000000000000000000000000000000000000000000000000000000000000000000000000000000000000000000000000000004000000000000000000000000000000000000000000000000000000000000008000000000000000000000000000000000000000000000000000000000000000c0000000000000000000000000000000000000000000000000000000000000010000000000000000000000000000000000000000000000000000000000000001400000000000000000000000000000000000000000000000000000000000000001780000000000000000000000000000000000000000000000000000000000000000000000000000000000000000000000000000000000000000000000000000017900000000000000000000000000000000000000000000000000000000000000000000000000000000000000000000000000000000000000000000000000000c67616d6546696e69736865640000000000000000000000000000000000000000000000000000000000000000000000000000000000000000000000000000000b6d61747269784172726179000000000000000000000000000000000000000000",
        "nonce": "0x1c",
        "accessList": []
      },
      "additionalContracts": [],
      "isFixedGasLimit": false
    },
    {
      "hash": "0x08cc0809fdc312035b2317610264e89fb100c48a50e1d9d5cc49865ca8ada261",
      "transactionType": "CREATE",
      "contractName": "PopStarSystem",
      "contractAddress": "0x5621d0B4D8043524Ac5837918D6a95b1050eF228",
      "function": null,
      "arguments": null,
      "transaction": {
        "type": "0x02",
        "from": "0xa0ee7a142d267c1f36714e4a8f75612f20a79720",
        "gas": "0x3ecded",
        "value": "0x0",
        "data": "0x60c060405260076080908152662837b829ba30b960c91b60a05262000024906200003b565b6000553480156200003457600080fd5b506200005c565b805160009082908203620000525750600092915050565b6020015192915050565b613844806200006c6000396000f3fe608060405234801561001057600080fd5b506004361061007d5760003560e01c806345ec93541161005b57806345ec9354146100ec5780639211be97146100ff578063e1af802c14610112578063e1c7392a1461011a57600080fd5b806301ffc9a714610082578063119df25f146100aa57806319be214b146100d7575b600080fd5b610095610090366004612eec565b610122565b60405190151581526020015b60405180910390f35b6100b26101bb565b60405173ffffffffffffffffffffffffffffffffffffffff90911681526020016100a1565b6100ea6100e53660046130a7565b6101ca565b005b604051601f1936013581526020016100a1565b6100ea61010d3660046130a7565b610723565b6100b26109a2565b6100ea6109ac565b60007fffffffff0000000000000000000000000000000000000000000000000000000082167fb5dee1270000000000000000000000000000000000000000000000000000000014806101b557507fffffffff0000000000000000000000000000000000000000000000000000000082167f01ffc9a700000000000000000000000000000000000000000000000000000000145b92915050565b60006101c5610b37565b905090565b6040810151805160208201516000916101e291610b69565b905060006101fb82602001518360000151600054610cfc565b6040517f506f7053746172000000000000000000000000000000000000000000000000006020820152909150602701604051602081830303815290604052805190602001208260e00151604051602001610255919061319a565b60405160208183030381529060405280519060200120148061027c57508060600151516064145b6102e7576040517f08c379a000000000000000000000000000000000000000000000000000000000815260206004820152600f60248201527f4e6f7420506f705374617220617070000000000000000000000000000000000060448201526064015b60405180910390fd5b806040015115610353576040517f08c379a000000000000000000000000000000000000000000000000000000000815260206004820152601060248201527f47616d652069732066696e69736865640000000000000000000000000000000060448201526064016102de565b80516020808301516060840151918601519091906000906103759084906131e5565b61038090600a613209565b8551885161038e91906131e5565b6103989190613231565b63ffffffff16905060008282815181106103b4576103b461324e565b6020026020010151905080600003610428576040517f08c379a000000000000000000000000000000000000000000000000000000000815260206004820152601860248201527f506c6561736520636c69636b206f6e207468652073746172000000000000000060448201526064016102de565b610433828285610e9c565b6104bf576040517f08c379a000000000000000000000000000000000000000000000000000000000815260206004820152602b60248201527f4e65656420746f20636f6e6e6563742074776f206f72206d6f7265206964656e60448201527f746963616c20737461727300000000000000000000000000000000000000000060648201526084016102de565b6104ca828285610fcc565b92506104d583611183565b925060006104e2846113a6565b905060006104fb89602001518a600001516000546114f0565b905060608060005b60648163ffffffff1610156106f657878163ffffffff168151811061052a5761052a61324e565b6020026020010151848263ffffffff168151811061054a5761054a61324e565b6020026020010151146106ee5761057f888263ffffffff16815181106105725761057261324e565b6020026020010151611651565b909350915061058c6109a2565b73ffffffffffffffffffffffffffffffffffffffff16631044b9da604051806101000160405280600a856105c091906132ac565b6105ca908f613231565b63ffffffff1681526020016105e0600a866132cf565b6105ea908e613231565b63ffffffff1681526020018f6000015173ffffffffffffffffffffffffffffffffffffffff1681526020018f6020015181526020018581526020018681526020016040518060400160405280600381526020017f706f70000000000000000000000000000000000000000000000000000000000081525081526020016040518060400160405280600781526020017f506f7053746172000000000000000000000000000000000000000000000000008152508152506040518263ffffffff1660e01b81526004016106bb919061331e565b600060405180830381600087803b1580156106d557600080fd5b505af11580156106e9573d6000803e3d6000fd5b505050505b600101610503565b506020808c01518c516000548d51938e01516107149490898d61181a565b50505050505050505050505050565b60408101518151610733826119d5565b610799576040517f08c379a000000000000000000000000000000000000000000000000000000000815260206004820152601060248201527f506978656c206e6f7420656e6f7567680000000000000000000000000000000060448201526064016102de565b4260006107a4611b17565b905060006107b1826113a6565b90506060806000805b600a8163ffffffff16101561097d5760005b600a8163ffffffff16101561097457806107e783600a613209565b6107f19190613231565b63ffffffff16925061080e8784815181106105725761057261324e565b909550935061081b6109a2565b73ffffffffffffffffffffffffffffffffffffffff16631044b9da604051806101000160405280848e600001516108529190613231565b63ffffffff168152602001858e6020015161086d9190613231565b63ffffffff1681526020018c73ffffffffffffffffffffffffffffffffffffffff1681526020018b81526020018781526020018881526020016040518060400160405280600381526020017f706f70000000000000000000000000000000000000000000000000000000000081525081526020016040518060400160405280600781526020017f506f7053746172000000000000000000000000000000000000000000000000008152508152506040518263ffffffff1660e01b8152600401610936919061331e565b600060405180830381600087803b15801561095057600080fd5b505af1158015610964573d6000803e3d6000fd5b5050600190920191506107cc9050565b506001016107ba565b5061099786886000548b600001518c60200151898b61181a565b505050505050505050565b60006101c5611bca565b6109b46109a2565b604080518082018252600a81527f44482d506f7053746172000000000000000000000000000000000000000000006020808301919091528251808401845260078082527f552b3146333145000000000000000000000000000000000000000000000000008284015284518086018652601281527f424153452f506f705374617253797374656d000000000000000000000000000081850152855180870187529182527f706f7053746172000000000000000000000000000000000000000000000000008285015285518087018752600d81527f506f705374617253797374656d000000000000000000000000000000000000009481019490945294517fc3aceb6000000000000000000000000000000000000000000000000000000000815273ffffffffffffffffffffffffffffffffffffffff969096169563c3aceb6095610b0395949092916004016133ef565b600060405180830381600087803b158015610b1d57600080fd5b505af1158015610b31573d6000803e3d6000fd5b50505050565b7fffffffffffffffffffffffffffffffffffffffffffffffffffffffffffffffcc36013560601c80610b665750335b90565b610bc7604051806101000160405280600073ffffffffffffffffffffffffffffffffffffffff168152602001600081526020016000815260200160008152602001606081526020016060815260200160608152602001606081525090565b6040805160028082526060820183526000926020830190803683370190505090508363ffffffff1660001b81600081518110610c0557610c0561324e565b6020026020010181815250508263ffffffff1660001b81600181518110610c2e57610c2e61324e565b602090810291909101810191909152604080517f7462000000000000000000000000000000000000000000000000000000000000928101929092526000602283018190527f506978656c00000000000000000000000000000000000000000000000000000060308401529182918291610ce09101604051602081830303815290604052610cba9061345c565b857e74040414202020000000000000000000000000000000000000000000000000611c16565b925092509250610cf1838383611d00565b979650505050505050565b6040805160808082018352600080835260208301819052828401819052606080840152835160038082529281019094529192908160200160208202803683370190505090508460001b81600081518110610d5857610d5861324e565b6020026020010181815250508373ffffffffffffffffffffffffffffffffffffffff1660001b81600181518110610d9157610d9161324e565b6020026020010181815250508281600281518110610db157610db161324e565b602090810291909101810191909152604080517f7462000000000000000000000000000000000000000000000000000000000000818401527f706f70537461720000000000000000000000000000000000000000000000000060228201527f506f7053746172000000000000000000000000000000000000000000000000006030820152815180820390930183528101905260009081908190610e7d90610e579061345c565b857e09030104040100000000000000000000000000000000000000000000000000611c16565b925092509250610e8e838383611db3565b9450505050505b9392505050565b600080610eaa600a8661349e565b90506000610eb9600a876134b2565b905060008215610efc57610ece6001886134c6565b905085858281518110610ee357610ee361324e565b602002602001015103610efc5760019350505050610e95565b6009831015610f3e57610f108760016134d9565b905085858281518110610f2557610f2561324e565b602002602001015103610f3e5760019350505050610e95565b8115610f7d57610f4f600a886134c6565b905085858281518110610f6457610f6461324e565b602002602001015103610f7d5760019350505050610e95565b6009821015610fbf57610f9187600a6134d9565b905085858281518110610fa657610fa661324e565b602002602001015103610fbf5760019350505050610e95565b5060009695505050505050565b60606000610fdb600a8661349e565b90506000610fea600a876134b2565b90506000821561104f57610fff6001886134c6565b9050858582815181106110145761101461324e565b60200260200101510361104f5760008582815181106110355761103561324e565b60200260200101818152505061104c818787610fcc565b94505b60098310156110b3576110638760016134d9565b9050858582815181106110785761107861324e565b6020026020010151036110b35760008582815181106110995761109961324e565b6020026020010181815250506110b0818787610fcc565b94505b8115611114576110c4600a886134c6565b9050858582815181106110d9576110d961324e565b6020026020010151036111145760008582815181106110fa576110fa61324e565b602002602001018181525050611111818787610fcc565b94505b60098210156111785761112887600a6134d9565b90508585828151811061113d5761113d61324e565b60200260200101510361117857600085828151811061115e5761115e61324e565b602002602001018181525050611175818787610fcc565b94505b509295945050505050565b60606000806059815b600a81101561139c576111a081605a6134d9565b9250600a5b8015611267578651600a7fffffffffffffffffffffffffffffffffffffffffffffffffffffffffffffffff909201918202830195508790869081106111ec576111ec61324e565b60200260200101516000146112625783851461125b578685815181106112145761121461324e565b602002602001015187858151811061122e5761122e61324e565b602002602001018181525050600087868151811061124e5761124e61324e565b6020026020010181815250505b600a840393505b6111a5565b5060008111801561129157508582815181106112855761128561324e565b60200260200101516000145b1561138657856112a282605a6134d9565b815181106112b2576112b261324e565b60200260200101516000146113815760005b600a811015611372576112d881600a6134ec565b6112e290836134d9565b94508685815181106112f6576112f661324e565b602002602001015160001461136a578685815181106113175761131761324e565b60200260200101518760018761132d91906134c6565b8151811061133d5761133d61324e565b602002602001018181525050600087868151811061135d5761135d61324e565b6020026020010181815250505b6001016112c4565b5061137e6001836134d9565b91505b611394565b6113916001836134d9565b91505b60010161118c565b5093949350505050565b6000805b60638110156114e7578281815181106113c5576113c561324e565b60200260200101516000146114df57605981111561142e57826113e98260016134d9565b815181106113f9576113f961324e565b60200260200101518382815181106114135761141361324e565b6020026020010151036114295750600092915050565b6114df565b611439600a8261349e565b60090361144c57826113e982600a6134d9565b826114588260016134d9565b815181106114685761146861324e565b60200260200101518382815181106114825761148261324e565b602002602001015114806114d157508261149d82600a6134d9565b815181106114ad576114ad61324e565b60200260200101518382815181106114c7576114c761324e565b6020026020010151145b156114df5750600092915050565b6001016113aa565b50600192915050565b60408051600380825260808201909252606091600091906020820184803683370190505090508460001b8160008151811061152d5761152d61324e565b6020026020010181815250508373ffffffffffffffffffffffffffffffffffffffff1660001b816001815181106115665761156661324e565b60200260200101818152505082816002815181106115865761158661324e565b602090810291909101810191909152604080517f7462000000000000000000000000000000000000000000000000000000000000818401527f706f70537461720000000000000000000000000000000000000000000000000060228201527f506f70537461720000000000000000000000000000000000000000000000000060308201528151808203909301835281019052600090611630906116289061345c565b836000611e0f565b90506116476116428260008451611ef0565b611f80565b9695505050505050565b60408051808201909152600681527f552b3236303600000000000000000000000000000000000000000000000000006020820152606060018390036116ca575060408051808201909152600781527f23464646463030000000000000000000000000000000000000000000000000006020820152915091565b8260020361170c575060408051808201909152600781527f23303030304646000000000000000000000000000000000000000000000000006020820152915091565b8260030361174e575060408051808201909152600781527f23646538386636000000000000000000000000000000000000000000000000006020820152915091565b82600403611790575060408051808201909152600781527f23464630303030000000000000000000000000000000000000000000000000006020820152915091565b826005036117d2575060408051808201909152600781527f23663938363930000000000000000000000000000000000000000000000000006020820152915091565b50506040805160208082018352600082528251808401909352600783527f23303030303030000000000000000000000000000000000000000000000000009083015290915091565b604080517fffffffff0000000000000000000000000000000000000000000000000000000060e087811b8216602084015286901b16602482015283151560f81b6028820152815180820360090181526029909101909152600061187c83611f91565b9050600061188984611fa4565b6040805160038082526080820190925291925060009190602082016060803683370190505090508a60001b816000815181106118c7576118c761324e565b6020026020010181815250508973ffffffffffffffffffffffffffffffffffffffff1660001b816001815181106119005761190061324e565b60200260200101818152505088816002815181106119205761192061324e565b602090810291909101810191909152604080517f7462000000000000000000000000000000000000000000000000000000000000818401527f706f70537461720000000000000000000000000000000000000000000000000060228201527f506f705374617200000000000000000000000000000000000000000000000000603082015281518082039093018352810190526119c8906119bf9061345c565b82868686611fd5565b5050505050505050505050565b6000611a35604051806101000160405280600073ffffffffffffffffffffffffffffffffffffffff168152602001600081526020016000815260200160008152602001606081526020016060815260200160608152602001606081525090565b60005b600a8160ff161015611b0d5760005b600a8160ff161015611afa578451611a7f90611a679060ff841690613231565b8360ff168760200151611a7a9190613231565b610b69565b9250826080015151600014611a9957506000949350505050565b60a08301515115611aaf57506000949350505050565b60e083015151151580611ad85750825173ffffffffffffffffffffffffffffffffffffffff1615155b15611ae857506000949350505050565b80611af281613503565b915050611a47565b5080611b0581613503565b915050611a38565b5060019392505050565b604080516064808252610ca082019092526060916000919060208201610c808036833701905050905060005b6064811015611bc4576000600544611b5b84436134d9565b6040805160208101939093528201526060016040516020818303038152906040528051906020012060001c611b90919061349e565b611b9b9060016134d9565b905080838381518110611bb057611bb061324e565b602090810291909101015250600101611b43565b50919050565b7f629a4c26e296b22a8e0856e9f6ecb2d1008d7e00081111962cd175fa7488e1755460009073ffffffffffffffffffffffffffffffffffffffff1680611c11573391505090565b919050565b6060600060606000611c26611bca565b90503073ffffffffffffffffffffffffffffffffffffffff821603611c5c57611c508787876120a5565b93509350935050611cf7565b6040517f419b58fd00000000000000000000000000000000000000000000000000000000815273ffffffffffffffffffffffffffffffffffffffff82169063419b58fd90611cb2908a908a908a9060040161355d565b600060405180830381865afa158015611ccf573d6000803e3d6000fd5b505050506040513d6000823e601f3d908101601f19168201604052611c5091908101906135cb565b93509350939050565b611d5e604051806101000160405280600073ffffffffffffffffffffffffffffffffffffffff168152602001600081526020016000815260200160008152602001606081526020016060815260200160608152602001606081525090565b611d67846121ad565b60608501526040840152602083015273ffffffffffffffffffffffffffffffffffffffff168152611d9883836121e5565b60e085015260c084015260a083015260808201529392505050565b60408051608081018252600080825260208083018281529383019182526060808401528601516024870151602888015160f81c151590925260e091821c9093529190911c8152611e038383612278565b60608201529392505050565b60606000611e1b611bca565b90503073ffffffffffffffffffffffffffffffffffffffff821603611e4d57611e4585858561229f565b915050610e95565b6040517f1e78897700000000000000000000000000000000000000000000000000000000815273ffffffffffffffffffffffffffffffffffffffff821690631e78897790611ea390889088908890600401613638565b600060405180830381865afa158015611ec0573d6000803e3d6000fd5b505050506040513d6000823e601f3d908101601f19168201604052611e459190810190613664565b509392505050565b6000818311158015611f03575083518211155b611f3f578383836040517f23230fa30000000000000000000000000000000000000000000000000000000081526004016102de93929190613699565b60208401611f4d84826134d9565b90506000611f5b85856134c6565b6fffffffffffffffffffffffffffffffff1660809290921b9190911795945050505050565b60606000610e9583602060006122e1565b60006101b58251602002603881901b1790565b6060611faf8261235c565b604051602001611fbf919061319a565b6040516020818303038152906040529050919050565b6000611fdf611bca565b90503073ffffffffffffffffffffffffffffffffffffffff8216036120105761200b868686868661236c565b61209d565b6040517f298314fb00000000000000000000000000000000000000000000000000000000815273ffffffffffffffffffffffffffffffffffffffff82169063298314fb9061206a90899089908990899089906004016136be565b600060405180830381600087803b15801561208457600080fd5b505af1158015612098573d6000803e3d6000fd5b505050505b505050505050565b60606000606060006120b685612389565b90506120c38787836123ac565b935060006120d0866123e5565b905080156121a2576120e28888612422565b935066ffffffffffffff841667ffffffffffffffff81111561210657612106612f2e565b6040519080825280601f01601f191660200182016040528015612130576020820181803683370190505b5092506020830160005b828160ff16101561219f5760006121528b8b84612435565b9050600061216f888460ff166028026038011c64ffffffffff1690565b905061217e82826000876124b5565b61218881856134d9565b93505050808061219790613503565b91505061213a565b50505b505093509350939050565b6000806000806121c285600060209101015190565b6034860151605487015160749097015160609290921c9790969550909350915050565b60608080806000603887901c64ffffffffff1661220b612206888484611ef0565b6125de565b955090508064ffffffffff606089901c160161222b612206888484611ef0565b945090508064ffffffffff608889901c160161224b612206888484611ef0565b935090508064ffffffffff60b089901c160161226b612206888484611ef0565b9250505092959194509250565b60606000603884901c64ffffffffff16612296611642858484611ef0565b95945050505050565b60606122d96122af858585612435565b6122d2846122bd8888612422565b9060ff166028026038011c64ffffffffff1690565b600061265e565b949350505050565b606060006122ef8560801c90565b90506fffffffffffffffffffffffffffffffff851660008582816123155761231561327d565b04905060405193506020840160208202810160405281855260005b82811015612350578451871c825293870193602090910190600101612330565b50505050509392505050565b606081610e958160206000612681565b612382858585858561237d8b6126d5565b612839565b5050505050565b60006008612399600260206134c6565b6123a391906134ec565b9190911c919050565b6060816000036123cb5750604080516020810190915260008152610e95565b60006123d78585612b43565b90506122968184600061265e565b600060086001806123f8600260206134c6565b61240291906134c6565b61240c91906134c6565b61241691906134ec565b8260ff911c1692915050565b6000610e956124318484612b99565b5490565b6000838360405160200161244a929190613703565b604051602081830303815290604052805190602001208260f81b7effffffffffffffffffffffffffffffffffffffffffffffffffffffffffffff19167f3b4102da22e32d82fc925482184f16c09fd4281692720b87d124aef6da48a0f1181860001c90509392505050565b811561257a57602082106124df576020820484019350602082816124db576124db61327d565b0691505b811561257a57602082900360008185101561252157507fffffffffffffffffffffffffffffffffffffffffffffffffffffffffffffffff600885021c1961254a565b507fffffffffffffffffffffffffffffffffffffffffffffffffffffffffffffffff600882021c195b8554600885021b81198451168282161784525081851161256b575050610b31565b50600194909401939283900392015b5b6020831061259c5783548152600190930192601f199092019160200161257b565b8215610b315760007fffffffffffffffffffffffffffffffffffffffffffffffffffffffffffffffff600885021c198251865482169119161782525050505050565b606060006125ec8360801c90565b90506fffffffffffffffffffffffffffffffff83168067ffffffffffffffff81111561261a5761261a612f2e565b6040519080825280601f01601f191660200182016040528015612644576020820181803683370190505b50925060208301612656838284612bef565b505050919050565b60405160208101601f19603f8584010116604052838252611ee8858585846124b5565b8251606090600061269285836134ec565b9050604051925060208301601f19603f83860101166040528184526000602088015b84821015612350578051871b835291870191600191909101906020016126b4565b604080517f746200000000000000000000000000000000000000000000000000000000000060208201527f73746f726500000000000000000000000000000000000000000000000000000060228201527f5461626c657300000000000000000000000000000000000000000000000000006030820152600091016040516020818303038152906040526127679061345c565b820361279357507e60030220202000000000000000000000000000000000000000000000000000919050565b604080517f746200000000000000000000000000000000000000000000000000000000000060208201527f73746f726500000000000000000000000000000000000000000000000000000060228201527f5461626c6573000000000000000000000000000000000000000000000000000060308201526101b591612830910160405160208183030381529060405261282a9061345c565b84612c59565b60206000612c75565b857f8dbb3a9672eebfd3773e72dd9c102393436816d832c7ba9e1e1ac8fcadcac7a98686868660405161286f949392919061373e565b60405180910390a27f7462000000000000000000000000000000000000000000000000000000000000867fffff000000000000000000000000000000000000000000000000000000000000160361209d5760006128cb87612cc6565b905060005b81518110156129ae5760008282815181106128ed576128ed61324e565b602002602001015190506129196001826affffffffffffffffffffff1916612dc190919063ffffffff16565b1561299b576040517f57066c9c000000000000000000000000000000000000000000000000000000008152606082901c906357066c9c90612968908c908c908c908c908c908c9060040161377d565b600060405180830381600087803b15801561298257600080fd5b505af1158015612996573d6000803e3d6000fd5b505050505b50806129a6816137d6565b9150506128d0565b5060006129bb8888612b43565b905060006020870190506129d3826000838a51612ddf565b60006129de856123e5565b1115612a625760006129f08a8a612b99565b878155905060208601915060008060005b612a0a886123e5565b8160ff161015612a5d57612a1f8d8d83612435565b9250612a3a8a8260ff166028026038011c64ffffffffff1690565b9150612a498360008785612ddf565b612a5382866134d9565b9450600101612a01565b505050505b60005b8351811015612098576000848281518110612a8257612a8261324e565b60200260200101519050612aae6002826affffffffffffffffffffff1916612dc190919063ffffffff16565b15612b30576040517f5b28cdaf000000000000000000000000000000000000000000000000000000008152606082901c90635b28cdaf90612afd908e908e908e908e908e908e9060040161377d565b600060405180830381600087803b158015612b1757600080fd5b505af1158015612b2b573d6000803e3d6000fd5b505050505b5080612b3b816137d6565b915050612a65565b60008282604051602001612b58929190613703565b60408051601f1981840301815291905280516020909101207f86425bff6b57326c7859e89024fe4f238ca327a1ae4a230180dd2f0e88aaa7d9189392505050565b60008282604051602001612bae929190613703565b60408051601f1981840301815291905280516020909101207f14e2fcc58e58e68ec7edc30c8d50dccc3ce2714a623ec81f46b6a63922d76569189392505050565b5b60208110612c0f578251825260209283019290910190601f1901612bf0565b80600003612c1c57505050565b60007fffffffffffffffffffffffffffffffffffffffffffffffffffffffffffffffff600883021c19905080198351168185511617835250505050565b6040805160208101849052908101829052600090606001612b58565b600060208210612c9b57602082048401935060208281612c9757612c9761327d565b0691505b508254600882021b602082900380841115611ee8576001850154600882021c82179150509392505050565b60408051600180825281830190925260609160009190602080830190803683370190505090508281600081518110612d0057612d0061324e565b602090810291909101810191909152604080517f7462000000000000000000000000000000000000000000000000000000000000818401527f73746f726500000000000000000000000000000000000000000000000000000060228201527f53746f7265486f6f6b730000000000000000000000000000000000000000000060308201528151808203909301835281019052600090612daa90612da29061345c565b83600061229f565b90506122d9612dbc8260008451611ef0565b612edb565b60008160ff1682612dd28560581c90565b1660ff1614905092915050565b8215612e775760208310612e0957602083048401935060208381612e0557612e0561327d565b0692505b8215612e7757602083900360007fffffffffffffffffffffffffffffffffffffffffffffffffffffffffffffffff600884021c1990506008850281811c91508451811c9050811987541682821617875550818311612e68575050610b31565b50600194909401939182019190035b5b60208110612e995781518455600190930192602090910190601f1901612e78565b8015610b315760007fffffffffffffffffffffffffffffffffffffffffffffffffffffffffffffffff600883021c198554845182169119161785555050505050565b60606000610e9583601560006122e1565b600060208284031215612efe57600080fd5b81357fffffffff0000000000000000000000000000000000000000000000000000000081168114610e9557600080fd5b7f4e487b7100000000000000000000000000000000000000000000000000000000600052604160045260246000fd5b6040516080810167ffffffffffffffff81118282101715612f8057612f80612f2e565b60405290565b604051601f8201601f1916810167ffffffffffffffff81118282101715612faf57612faf612f2e565b604052919050565b600067ffffffffffffffff821115612fd157612fd1612f2e565b50601f01601f191660200190565b600082601f830112612ff057600080fd5b8135613003612ffe82612fb7565b612f86565b81815284602083860101111561301857600080fd5b816020850160208301376000918101602001919091529392505050565b803563ffffffff81168114611c1157600080fd5b60006040828403121561305b57600080fd5b6040516040810181811067ffffffffffffffff8211171561307e5761307e612f2e565b60405290508061308d83613035565b815261309b60208401613035565b60208201525092915050565b6000602082840312156130b957600080fd5b813567ffffffffffffffff808211156130d157600080fd5b9083019060a082860312156130e557600080fd5b6130ed612f5d565b823573ffffffffffffffffffffffffffffffffffffffff8116811461311157600080fd5b815260208301358281111561312557600080fd5b61313187828601612fdf565b6020830152506131448660408501613049565b604082015260808301358281111561315b57600080fd5b61316787828601612fdf565b60608301525095945050505050565b60005b83811015613191578181015183820152602001613179565b50506000910152565b600082516131ac818460208701613176565b9190910192915050565b7f4e487b7100000000000000000000000000000000000000000000000000000000600052601160045260246000fd5b63ffffffff828116828216039080821115613202576132026131b6565b5092915050565b63ffffffff818116838216028082169190828114613229576132296131b6565b505092915050565b63ffffffff818116838216019080821115613202576132026131b6565b7f4e487b7100000000000000000000000000000000000000000000000000000000600052603260045260246000fd5b7f4e487b7100000000000000000000000000000000000000000000000000000000600052601260045260246000fd5b600063ffffffff808416806132c3576132c361327d565b92169190910692915050565b600063ffffffff808416806132e6576132e661327d565b92169190910492915050565b6000815180845261330a816020860160208601613176565b601f01601f19169290920160200192915050565b6020815261333560208201835163ffffffff169052565b6000602083015161334e604084018263ffffffff169052565b50604083015173ffffffffffffffffffffffffffffffffffffffff81166060840152506060830151608083015260808301516101008060a08501526133976101208501836132f2565b915060a0850151601f19808685030160c08701526133b584836132f2565b935060c08701519150808685030160e08701526133d284836132f2565b935060e087015191508086850301838701525061164783826132f2565b60a08152600061340260a08301886132f2565b828103602084015261341481886132f2565b9050828103604084015261342881876132f2565b9050828103606084015261343c81866132f2565b9050828103608084015261345081856132f2565b98975050505050505050565b80516020808301519190811015611bc4577fffffffffffffffffffffffffffffffffffffffffffffffffffffffffffffffff60209190910360031b1b16919050565b6000826134ad576134ad61327d565b500690565b6000826134c1576134c161327d565b500490565b818103818111156101b5576101b56131b6565b808201808211156101b5576101b56131b6565b80820281158282048414176101b5576101b56131b6565b600060ff821660ff8103613519576135196131b6565b60010192915050565b600081518084526020808501945080840160005b8381101561355257815187529582019590820190600101613536565b509495945050505050565b8381526060602082015260006135766060830185613522565b9050826040830152949350505050565b600082601f83011261359757600080fd5b81516135a5612ffe82612fb7565b8181528460208386010111156135ba57600080fd5b6122d9826020830160208701613176565b6000806000606084860312156135e057600080fd5b835167ffffffffffffffff808211156135f857600080fd5b61360487838801613586565b945060208601519350604086015191508082111561362157600080fd5b5061362e86828701613586565b9150509250925092565b8381526060602082015260006136516060830185613522565b905060ff83166040830152949350505050565b60006020828403121561367657600080fd5b815167ffffffffffffffff81111561368d57600080fd5b6122d984828501613586565b6060815260006136ac60608301866132f2565b60208301949094525060400152919050565b85815260a0602082015260006136d760a0830187613522565b82810360408401526136e981876132f2565b9050846060840152828103608084015261345081856132f2565b82815260006020808301845182860160005b8281101561373157815184529284019290840190600101613715565b5091979650505050505050565b6080815260006137516080830187613522565b828103602084015261376381876132f2565b90508460408401528281036060840152610cf181856132f2565b86815260c06020820152600061379660c0830188613522565b82810360408401526137a881886132f2565b905085606084015282810360808401526137c281866132f2565b9150508260a0830152979650505050505050565b60007fffffffffffffffffffffffffffffffffffffffffffffffffffffffffffffffff8203613807576138076131b6565b506001019056fea2646970667358221220540d44ad7f5918f7e126408de217a4103b91dac18f3ef19333df19bf87dfb9f864736f6c63430008150033",
        "nonce": "0x1d",
        "accessList": []
      },
      "additionalContracts": [],
      "isFixedGasLimit": false
    },
    {
      "hash": "0xf1a9fc8e865c5b623bce13c50ed7c9a0ed5b8c5879ca693a39343c866d43481f",
      "transactionType": "CALL",
      "contractName": null,
      "contractAddress": "0xC44504Ab6a2C4dF9a9ce82aecFc453FeC3C8771C",
      "function": "registerSystem(bytes32,address,bool)",
      "arguments": [
        "0x7379706f705374617200000000000000506f705374617253797374656d000000",
        "0x5621d0B4D8043524Ac5837918D6a95b1050eF228",
        "true"
      ],
      "transaction": {
        "type": "0x02",
        "from": "0xa0ee7a142d267c1f36714e4a8f75612f20a79720",
        "to": "0xc44504ab6a2c4df9a9ce82aecfc453fec3c8771c",
        "gas": "0x3df81",
        "value": "0x0",
        "data": "0x3350b6a97379706f705374617200000000000000506f705374617253797374656d0000000000000000000000000000005621d0b4d8043524ac5837918d6a95b1050ef2280000000000000000000000000000000000000000000000000000000000000001",
        "nonce": "0x1e",
        "accessList": []
      },
      "additionalContracts": [],
      "isFixedGasLimit": false
    },
    {
      "hash": "0xc895659b7f2849567c806a7768bbd3fc327781fb5e962f6d5ec1d20904614bda",
      "transactionType": "CALL",
      "contractName": null,
      "contractAddress": "0xC44504Ab6a2C4dF9a9ce82aecFc453FeC3C8771C",
      "function": "registerFunctionSelector(bytes32,string)",
      "arguments": [
        "0x7379706f705374617200000000000000506f705374617253797374656d000000",
        "\"init()\""
      ],
      "transaction": {
        "type": "0x02",
        "from": "0xa0ee7a142d267c1f36714e4a8f75612f20a79720",
        "to": "0xc44504ab6a2c4df9a9ce82aecfc453fec3c8771c",
        "gas": "0x25ca9",
        "value": "0x0",
        "data": "0x26d981027379706f705374617200000000000000506f705374617253797374656d00000000000000000000000000000000000000000000000000000000000000000000400000000000000000000000000000000000000000000000000000000000000006696e697428290000000000000000000000000000000000000000000000000000",
        "nonce": "0x1f",
        "accessList": []
      },
      "additionalContracts": [],
      "isFixedGasLimit": false
    },
    {
      "hash": "0x5584c03110051bb96ade134b8f0c1938c0d98c0efe42fb1acdd86371ce818212",
      "transactionType": "CALL",
      "contractName": null,
      "contractAddress": "0xC44504Ab6a2C4dF9a9ce82aecFc453FeC3C8771C",
      "function": "registerFunctionSelector(bytes32,string)",
      "arguments": [
        "0x7379706f705374617200000000000000506f705374617253797374656d000000",
        "\"interact((address,string,(uint32,uint32),string))\""
      ],
      "transaction": {
        "type": "0x02",
        "from": "0xa0ee7a142d267c1f36714e4a8f75612f20a79720",
        "to": "0xc44504ab6a2c4df9a9ce82aecfc453fec3c8771c",
        "gas": "0x289d2",
        "value": "0x0",
        "data": "0x26d981027379706f705374617200000000000000506f705374617253797374656d00000000000000000000000000000000000000000000000000000000000000000000400000000000000000000000000000000000000000000000000000000000000031696e7465726163742828616464726573732c737472696e672c2875696e7433322c75696e743332292c737472696e672929000000000000000000000000000000",
        "nonce": "0x20",
        "accessList": []
      },
      "additionalContracts": [],
      "isFixedGasLimit": false
    },
    {
      "hash": "0xe116d3bb7447efc0e15a7a5452b2b11bac9b6859bdf3bdcd95a5c11812b7c203",
      "transactionType": "CALL",
      "contractName": null,
      "contractAddress": "0xC44504Ab6a2C4dF9a9ce82aecFc453FeC3C8771C",
      "function": "registerFunctionSelector(bytes32,string)",
      "arguments": [
        "0x7379706f705374617200000000000000506f705374617253797374656d000000",
        "\"pop((address,string,(uint32,uint32),string))\""
      ],
      "transaction": {
        "type": "0x02",
        "from": "0xa0ee7a142d267c1f36714e4a8f75612f20a79720",
        "to": "0xc44504ab6a2c4df9a9ce82aecfc453fec3c8771c",
        "gas": "0x26565",
        "value": "0x0",
        "data": "0x26d981027379706f705374617200000000000000506f705374617253797374656d0000000000000000000000000000000000000000000000000000000000000000000040000000000000000000000000000000000000000000000000000000000000002c706f702828616464726573732c737472696e672c2875696e7433322c75696e743332292c737472696e6729290000000000000000000000000000000000000000",
        "nonce": "0x21",
        "accessList": []
      },
      "additionalContracts": [],
      "isFixedGasLimit": false
    }
  ],
  "receipts": [
    {
      "transactionHash": "0xb9d7306477721d5ab4637dc6f3903a2ce3e784bbd78d04dac955a0fa105fc7e8",
      "transactionIndex": "0x0",
      "blockHash": "0x144abeeeba896662467227d925cf80b732b98f22e3c2cce307c7371eb72493c6",
      "blockNumber": "0x2a",
      "from": "0xa0Ee7A142d267C1f36714E4a8F75612F20a79720",
      "to": "0xC44504Ab6a2C4dF9a9ce82aecFc453FeC3C8771C",
      "cumulativeGasUsed": "0x21801",
      "gasUsed": "0x21801",
      "contractAddress": null,
      "logs": [
        {
          "address": "0xC44504Ab6a2C4dF9a9ce82aecFc453FeC3C8771C",
          "topics": [
            "0x8c0b5119d4cec7b284c6b1b39252a03d1e2f2d7451a5895562524c113bb952be",
            "0x746273746f72650000000000000000005265736f757263654964730000000000"
          ],
          "data": "0x0000000000000000000000000000000000000000000000000000000000000060000000000000000000000000000000000000000000000000000000000000000000000000000000000000000000000000000000000000000000000000000000a000000000000000000000000000000000000000000000000000000000000000016e73706f7053746172000000000000000000000000000000000000000000000000000000000000000000000000000000000000000000000000000000000000010100000000000000000000000000000000000000000000000000000000000000",
          "blockHash": "0x144abeeeba896662467227d925cf80b732b98f22e3c2cce307c7371eb72493c6",
          "blockNumber": "0x2a",
          "transactionHash": "0xb9d7306477721d5ab4637dc6f3903a2ce3e784bbd78d04dac955a0fa105fc7e8",
          "transactionIndex": "0x0",
          "logIndex": "0x0",
          "removed": false
        },
        {
          "address": "0xC44504Ab6a2C4dF9a9ce82aecFc453FeC3C8771C",
          "topics": [
            "0x8c0b5119d4cec7b284c6b1b39252a03d1e2f2d7451a5895562524c113bb952be",
            "0x7462776f726c640000000000000000004e616d6573706163654f776e65720000"
          ],
          "data": "0x0000000000000000000000000000000000000000000000000000000000000060000000000000000000000000000000000000000000000000000000000000000000000000000000000000000000000000000000000000000000000000000000a000000000000000000000000000000000000000000000000000000000000000016e73706f705374617200000000000000000000000000000000000000000000000000000000000000000000000000000000000000000000000000000000000014a0ee7a142d267c1f36714e4a8f75612f20a79720000000000000000000000000",
          "blockHash": "0x144abeeeba896662467227d925cf80b732b98f22e3c2cce307c7371eb72493c6",
          "blockNumber": "0x2a",
          "transactionHash": "0xb9d7306477721d5ab4637dc6f3903a2ce3e784bbd78d04dac955a0fa105fc7e8",
          "transactionIndex": "0x0",
          "logIndex": "0x1",
          "removed": false
        },
        {
          "address": "0xC44504Ab6a2C4dF9a9ce82aecFc453FeC3C8771C",
          "topics": [
            "0x8c0b5119d4cec7b284c6b1b39252a03d1e2f2d7451a5895562524c113bb952be",
            "0x7462776f726c640000000000000000005265736f757263654163636573730000"
          ],
          "data": "0x0000000000000000000000000000000000000000000000000000000000000060000000000000000000000000000000000000000000000000000000000000000000000000000000000000000000000000000000000000000000000000000000c000000000000000000000000000000000000000000000000000000000000000026e73706f70537461720000000000000000000000000000000000000000000000000000000000000000000000a0ee7a142d267c1f36714e4a8f75612f20a7972000000000000000000000000000000000000000000000000000000000000000010100000000000000000000000000000000000000000000000000000000000000",
          "blockHash": "0x144abeeeba896662467227d925cf80b732b98f22e3c2cce307c7371eb72493c6",
          "blockNumber": "0x2a",
          "transactionHash": "0xb9d7306477721d5ab4637dc6f3903a2ce3e784bbd78d04dac955a0fa105fc7e8",
          "transactionIndex": "0x0",
          "logIndex": "0x2",
          "removed": false
        }
      ],
      "status": "0x1",
      "logsBloom": "0x00000000000000000000000000000000000000001000000080000000000000000000000000000000080000000000000000000000000000000000000000000000000000000000000000000000000000000000000000000000000000000000000010800000000000000000000200001000000000000000008000000000000000000008000000000000000000000000000020000000000000000000000000000000000000000000000000000000000000000000000000000000080080000000000000000000000000000020000000000000000000000000000000000000000000000000000000004000000000000000000000080000000000000000000000000000",
      "type": "0x2",
      "effectiveGasPrice": "0xb33abc25"
    },
    {
      "transactionHash": "0x3680032a23aace7516d0ba68da8954716fdad1ba78198930616e4c24afe7d74e",
      "transactionIndex": "0x0",
      "blockHash": "0xc891a5990506c43aa82ed03834541528927e3e9ec3b1faefcd05a17642383e00",
      "blockNumber": "0x2b",
      "from": "0xa0Ee7A142d267C1f36714E4a8F75612F20a79720",
      "to": "0xC44504Ab6a2C4dF9a9ce82aecFc453FeC3C8771C",
      "cumulativeGasUsed": "0xbc202",
      "gasUsed": "0xbc202",
      "contractAddress": null,
      "logs": [
        {
          "address": "0xC44504Ab6a2C4dF9a9ce82aecFc453FeC3C8771C",
          "topics": [
            "0x8dbb3a9672eebfd3773e72dd9c102393436816d832c7ba9e1e1ac8fcadcac7a9",
            "0x746273746f72650000000000000000005461626c657300000000000000000000"
          ],
          "data": "0x000000000000000000000000000000000000000000000000000000000000008000000000000000000000000000000000000000000000000000000000000000c000000000000000000000000000000000000001c0000000016000000000000320000000000000000000000000000000000000000000000000000000000000014000000000000000000000000000000000000000000000000000000000000000017462706f705374617200000000000000506f705374617200000000000000000000000000000000000000000000000000000000000000000000000000000000600009030104040100000000000000000000000000000000000000000000000000005403001f615f000000000000000000000000000000000000000000000000000009030103036081000000000000000000000000000000000000000000000000000000000000000000000000000000000000000000000000000000000000032000000000000000000000000000000000000000000000000000000000000000200000000000000000000000000000000000000000000000000000000000000003000000000000000000000000000000000000000000000000000000000000006000000000000000000000000000000000000000000000000000000000000000a000000000000000000000000000000000000000000000000000000000000000e0000000000000000000000000000000000000000000000000000000000000000974696d657374616d70000000000000000000000000000000000000000000000000000000000000000000000000000000000000000000000000000000000000056f776e65720000000000000000000000000000000000000000000000000000000000000000000000000000000000000000000000000000000000000000000003617070000000000000000000000000000000000000000000000000000000000000000000000000000000000000000000000000000000000000000000000000200000000000000000000000000000000000000000000000000000000000000004000000000000000000000000000000000000000000000000000000000000008000000000000000000000000000000000000000000000000000000000000000c0000000000000000000000000000000000000000000000000000000000000010000000000000000000000000000000000000000000000000000000000000001400000000000000000000000000000000000000000000000000000000000000001780000000000000000000000000000000000000000000000000000000000000000000000000000000000000000000000000000000000000000000000000000017900000000000000000000000000000000000000000000000000000000000000000000000000000000000000000000000000000000000000000000000000000c67616d6546696e69736865640000000000000000000000000000000000000000000000000000000000000000000000000000000000000000000000000000000b6d61747269784172726179000000000000000000000000000000000000000000",
          "blockHash": "0xc891a5990506c43aa82ed03834541528927e3e9ec3b1faefcd05a17642383e00",
          "blockNumber": "0x2b",
          "transactionHash": "0x3680032a23aace7516d0ba68da8954716fdad1ba78198930616e4c24afe7d74e",
          "transactionIndex": "0x0",
          "logIndex": "0x0",
          "removed": false
        },
        {
          "address": "0xC44504Ab6a2C4dF9a9ce82aecFc453FeC3C8771C",
          "topics": [
            "0x8c0b5119d4cec7b284c6b1b39252a03d1e2f2d7451a5895562524c113bb952be",
            "0x746273746f72650000000000000000005265736f757263654964730000000000"
          ],
          "data": "0x0000000000000000000000000000000000000000000000000000000000000060000000000000000000000000000000000000000000000000000000000000000000000000000000000000000000000000000000000000000000000000000000a000000000000000000000000000000000000000000000000000000000000000017462706f705374617200000000000000506f705374617200000000000000000000000000000000000000000000000000000000000000000000000000000000010100000000000000000000000000000000000000000000000000000000000000",
          "blockHash": "0xc891a5990506c43aa82ed03834541528927e3e9ec3b1faefcd05a17642383e00",
          "blockNumber": "0x2b",
          "transactionHash": "0x3680032a23aace7516d0ba68da8954716fdad1ba78198930616e4c24afe7d74e",
          "transactionIndex": "0x0",
          "logIndex": "0x1",
          "removed": false
        }
      ],
      "status": "0x1",
      "logsBloom": "0x00000000000000000000000000000000000000001000000000000000000000000000000000000000000000100000000000000000000200000000000000000000000000000000000000000000000000000000000200000000000000000000080000000000000000000000000200001000000000000000008000000000000000000000000000000000000000010000000020000000000000000000000000000000000000000000000000000000000000000000000002000000080080000000000000000000000000000000000000000000000000000000000000000000000000000000000000004000000000000000000000080000000000000000000000000000",
      "type": "0x2",
      "effectiveGasPrice": "0xb32d8f84"
    },
    {
      "transactionHash": "0x08cc0809fdc312035b2317610264e89fb100c48a50e1d9d5cc49865ca8ada261",
      "transactionIndex": "0x1",
      "blockHash": "0xc891a5990506c43aa82ed03834541528927e3e9ec3b1faefcd05a17642383e00",
      "blockNumber": "0x2b",
      "from": "0xa0Ee7A142d267C1f36714E4a8F75612F20a79720",
      "to": null,
      "cumulativeGasUsed": "0x3c1531",
      "gasUsed": "0x30532f",
      "contractAddress": "0x5621d0B4D8043524Ac5837918D6a95b1050eF228",
      "logs": [],
      "status": "0x1",
      "logsBloom": "0x00000000000000000000000000000000000000000000000000000000000000000000000000000000000000000000000000000000000000000000000000000000000000000000000000000000000000000000000000000000000000000000000000000000000000000000000000000000000000000000000000000000000000000000000000000000000000000000000000000000000000000000000000000000000000000000000000000000000000000000000000000000000000000000000000000000000000000000000000000000000000000000000000000000000000000000000000000000000000000000000000000000000000000000000000000000",
      "type": "0x2",
      "effectiveGasPrice": "0xb32d8f84"
    },
    {
      "transactionHash": "0xf1a9fc8e865c5b623bce13c50ed7c9a0ed5b8c5879ca693a39343c866d43481f",
      "transactionIndex": "0x2",
      "blockHash": "0xc891a5990506c43aa82ed03834541528927e3e9ec3b1faefcd05a17642383e00",
      "blockNumber": "0x2b",
      "from": "0xa0Ee7A142d267C1f36714E4a8F75612F20a79720",
      "to": "0xC44504Ab6a2C4dF9a9ce82aecFc453FeC3C8771C",
      "cumulativeGasUsed": "0x3ee306",
      "gasUsed": "0x2cdd5",
      "contractAddress": null,
      "logs": [
        {
          "address": "0xC44504Ab6a2C4dF9a9ce82aecFc453FeC3C8771C",
          "topics": [
            "0x8c0b5119d4cec7b284c6b1b39252a03d1e2f2d7451a5895562524c113bb952be",
            "0x746273746f72650000000000000000005265736f757263654964730000000000"
          ],
          "data": "0x0000000000000000000000000000000000000000000000000000000000000060000000000000000000000000000000000000000000000000000000000000000000000000000000000000000000000000000000000000000000000000000000a000000000000000000000000000000000000000000000000000000000000000017379706f705374617200000000000000506f705374617253797374656d00000000000000000000000000000000000000000000000000000000000000000000010100000000000000000000000000000000000000000000000000000000000000",
          "blockHash": "0xc891a5990506c43aa82ed03834541528927e3e9ec3b1faefcd05a17642383e00",
          "blockNumber": "0x2b",
          "transactionHash": "0xf1a9fc8e865c5b623bce13c50ed7c9a0ed5b8c5879ca693a39343c866d43481f",
          "transactionIndex": "0x2",
          "logIndex": "0x8",
          "removed": false
        },
        {
          "address": "0xC44504Ab6a2C4dF9a9ce82aecFc453FeC3C8771C",
          "topics": [
            "0x8dbb3a9672eebfd3773e72dd9c102393436816d832c7ba9e1e1ac8fcadcac7a9",
            "0x7462776f726c6400000000000000000053797374656d73000000000000000000"
          ],
          "data": "0x000000000000000000000000000000000000000000000000000000000000008000000000000000000000000000000000000000000000000000000000000000c00000000000000000000000000000000000000000000000000000000000000000000000000000000000000000000000000000000000000000000000000000010000000000000000000000000000000000000000000000000000000000000000017379706f705374617200000000000000506f705374617253797374656d00000000000000000000000000000000000000000000000000000000000000000000155621d0b4d8043524ac5837918d6a95b1050ef2280100000000000000000000000000000000000000000000000000000000000000000000000000000000000000",
          "blockHash": "0xc891a5990506c43aa82ed03834541528927e3e9ec3b1faefcd05a17642383e00",
          "blockNumber": "0x2b",
          "transactionHash": "0xf1a9fc8e865c5b623bce13c50ed7c9a0ed5b8c5879ca693a39343c866d43481f",
          "transactionIndex": "0x2",
          "logIndex": "0x9",
          "removed": false
        },
        {
          "address": "0xC44504Ab6a2C4dF9a9ce82aecFc453FeC3C8771C",
          "topics": [
            "0x8c0b5119d4cec7b284c6b1b39252a03d1e2f2d7451a5895562524c113bb952be",
            "0x7462776f726c6400000000000000000053797374656d52656769737472790000"
          ],
          "data": "0x0000000000000000000000000000000000000000000000000000000000000060000000000000000000000000000000000000000000000000000000000000000000000000000000000000000000000000000000000000000000000000000000a000000000000000000000000000000000000000000000000000000000000000010000000000000000000000005621d0b4d8043524ac5837918d6a95b1050ef22800000000000000000000000000000000000000000000000000000000000000207379706f705374617200000000000000506f705374617253797374656d000000",
          "blockHash": "0xc891a5990506c43aa82ed03834541528927e3e9ec3b1faefcd05a17642383e00",
          "blockNumber": "0x2b",
          "transactionHash": "0xf1a9fc8e865c5b623bce13c50ed7c9a0ed5b8c5879ca693a39343c866d43481f",
          "transactionIndex": "0x2",
          "logIndex": "0xa",
          "removed": false
        },
        {
          "address": "0xC44504Ab6a2C4dF9a9ce82aecFc453FeC3C8771C",
          "topics": [
            "0x8c0b5119d4cec7b284c6b1b39252a03d1e2f2d7451a5895562524c113bb952be",
            "0x7462776f726c640000000000000000005265736f757263654163636573730000"
          ],
          "data": "0x0000000000000000000000000000000000000000000000000000000000000060000000000000000000000000000000000000000000000000000000000000000000000000000000000000000000000000000000000000000000000000000000c000000000000000000000000000000000000000000000000000000000000000026e73706f705374617200000000000000000000000000000000000000000000000000000000000000000000005621d0b4d8043524ac5837918d6a95b1050ef22800000000000000000000000000000000000000000000000000000000000000010100000000000000000000000000000000000000000000000000000000000000",
          "blockHash": "0xc891a5990506c43aa82ed03834541528927e3e9ec3b1faefcd05a17642383e00",
          "blockNumber": "0x2b",
          "transactionHash": "0xf1a9fc8e865c5b623bce13c50ed7c9a0ed5b8c5879ca693a39343c866d43481f",
          "transactionIndex": "0x2",
          "logIndex": "0xb",
          "removed": false
        }
      ],
      "status": "0x1",
      "logsBloom": "0x80000000000000000000000000000000000000001800000080000000000000000000000000000000000000100000000000000000000000000000000000000000000000000000040000000000000000000000000000000000000000000000080000800000000000000000000200001000000000000000008000000000000000000008000000000000000000010000000020000000000000000000000000000000000000000000000000000000000000000100000000000000080081000000000000000000000000000000000000000000000000000000000000000000000000000000000000004000008000000000000000080000000000000000000000000000",
      "type": "0x2",
      "effectiveGasPrice": "0xb32d8f84"
    },
    {
      "transactionHash": "0xc895659b7f2849567c806a7768bbd3fc327781fb5e962f6d5ec1d20904614bda",
      "transactionIndex": "0x3",
      "blockHash": "0xc891a5990506c43aa82ed03834541528927e3e9ec3b1faefcd05a17642383e00",
      "blockNumber": "0x2b",
      "from": "0xa0Ee7A142d267C1f36714E4a8F75612F20a79720",
      "to": "0xC44504Ab6a2C4dF9a9ce82aecFc453FeC3C8771C",
      "cumulativeGasUsed": "0x4098ca",
      "gasUsed": "0x1b5c4",
      "contractAddress": null,
      "logs": [
        {
          "address": "0xC44504Ab6a2C4dF9a9ce82aecFc453FeC3C8771C",
          "topics": [
            "0x8dbb3a9672eebfd3773e72dd9c102393436816d832c7ba9e1e1ac8fcadcac7a9",
            "0x7462776f726c6400000000000000000046756e6374696f6e53656c6563746f72"
          ],
          "data": "0x000000000000000000000000000000000000000000000000000000000000008000000000000000000000000000000000000000000000000000000000000000c00000000000000000000000000000000000000000000000000000000000000000000000000000000000000000000000000000000000000000000000000000012000000000000000000000000000000000000000000000000000000000000000018dd2ca7f0000000000000000000000000000000000000000000000000000000000000000000000000000000000000000000000000000000000000000000000247379706f705374617200000000000000506f705374617253797374656d000000e1c7392a000000000000000000000000000000000000000000000000000000000000000000000000000000000000000000000000000000000000000000000000",
          "blockHash": "0xc891a5990506c43aa82ed03834541528927e3e9ec3b1faefcd05a17642383e00",
          "blockNumber": "0x2b",
          "transactionHash": "0xc895659b7f2849567c806a7768bbd3fc327781fb5e962f6d5ec1d20904614bda",
          "transactionIndex": "0x3",
          "logIndex": "0x6",
          "removed": false
        },
        {
          "address": "0xC44504Ab6a2C4dF9a9ce82aecFc453FeC3C8771C",
          "topics": [
            "0x8dbb3a9672eebfd3773e72dd9c102393436816d832c7ba9e1e1ac8fcadcac7a9",
            "0x6f74776f726c6400000000000000000046756e6374696f6e5369676e61747572"
          ],
          "data": "0x000000000000000000000000000000000000000000000000000000000000008000000000000000000000000000000000000000000000000000000000000000c00000000000000000000000000000000000000000000000001c0000000000001c00000000000000000000000000000000000000000000000000000000000000e000000000000000000000000000000000000000000000000000000000000000018dd2ca7f000000000000000000000000000000000000000000000000000000000000000000000000000000000000000000000000000000000000000000000000000000000000000000000000000000000000000000000000000000000000001c706f70537461725f506f705374617253797374656d5f696e6974282900000000",
          "blockHash": "0xc891a5990506c43aa82ed03834541528927e3e9ec3b1faefcd05a17642383e00",
          "blockNumber": "0x2b",
          "transactionHash": "0xc895659b7f2849567c806a7768bbd3fc327781fb5e962f6d5ec1d20904614bda",
          "transactionIndex": "0x3",
          "logIndex": "0x7",
          "removed": false
        }
      ],
      "status": "0x1",
      "logsBloom": "0x00000800004000000000000000000000000000000000000000000000000000000000000000000000000000100000000000000000000000000000000000000000000000000000000000000000000000000000000000000000000000000000080000000000000000000000000000001000000000000000008000000000000000000000000000000000000000010000000000000000000000000000000000040000000000000000000000000000000000000000000000000000000000000000000000000000000000000100000000000000000000000000000000000000000000000000000000000000000000000000000040080000000000000000000000000200",
      "type": "0x2",
      "effectiveGasPrice": "0xb32d8f84"
    },
    {
      "transactionHash": "0x5584c03110051bb96ade134b8f0c1938c0d98c0efe42fb1acdd86371ce818212",
      "transactionIndex": "0x4",
      "blockHash": "0xc891a5990506c43aa82ed03834541528927e3e9ec3b1faefcd05a17642383e00",
      "blockNumber": "0x2b",
      "from": "0xa0Ee7A142d267C1f36714E4a8F75612F20a79720",
      "to": "0xC44504Ab6a2C4dF9a9ce82aecFc453FeC3C8771C",
      "cumulativeGasUsed": "0x42551d",
      "gasUsed": "0x1bc53",
      "contractAddress": null,
      "logs": [
        {
          "address": "0xC44504Ab6a2C4dF9a9ce82aecFc453FeC3C8771C",
          "topics": [
            "0x8dbb3a9672eebfd3773e72dd9c102393436816d832c7ba9e1e1ac8fcadcac7a9",
            "0x7462776f726c6400000000000000000046756e6374696f6e53656c6563746f72"
          ],
          "data": "0x000000000000000000000000000000000000000000000000000000000000008000000000000000000000000000000000000000000000000000000000000000c0000000000000000000000000000000000000000000000000000000000000000000000000000000000000000000000000000000000000000000000000000001200000000000000000000000000000000000000000000000000000000000000001bc45450f0000000000000000000000000000000000000000000000000000000000000000000000000000000000000000000000000000000000000000000000247379706f705374617200000000000000506f705374617253797374656d0000009211be97000000000000000000000000000000000000000000000000000000000000000000000000000000000000000000000000000000000000000000000000",
          "blockHash": "0xc891a5990506c43aa82ed03834541528927e3e9ec3b1faefcd05a17642383e00",
          "blockNumber": "0x2b",
          "transactionHash": "0x5584c03110051bb96ade134b8f0c1938c0d98c0efe42fb1acdd86371ce818212",
          "transactionIndex": "0x4",
          "logIndex": "0x8",
          "removed": false
        },
        {
          "address": "0xC44504Ab6a2C4dF9a9ce82aecFc453FeC3C8771C",
          "topics": [
            "0x8dbb3a9672eebfd3773e72dd9c102393436816d832c7ba9e1e1ac8fcadcac7a9",
            "0x6f74776f726c6400000000000000000046756e6374696f6e5369676e61747572"
          ],
          "data": "0x000000000000000000000000000000000000000000000000000000000000008000000000000000000000000000000000000000000000000000000000000000c0000000000000000000000000000000000000000000000000470000000000004700000000000000000000000000000000000000000000000000000000000000e00000000000000000000000000000000000000000000000000000000000000001bc45450f0000000000000000000000000000000000000000000000000000000000000000000000000000000000000000000000000000000000000000000000000000000000000000000000000000000000000000000000000000000000000047706f70537461725f506f705374617253797374656d5f696e7465726163742828616464726573732c737472696e672c2875696e7433322c75696e743332292c737472696e67292900000000000000000000000000000000000000000000000000",
          "blockHash": "0xc891a5990506c43aa82ed03834541528927e3e9ec3b1faefcd05a17642383e00",
          "blockNumber": "0x2b",
          "transactionHash": "0x5584c03110051bb96ade134b8f0c1938c0d98c0efe42fb1acdd86371ce818212",
          "transactionIndex": "0x4",
          "logIndex": "0x9",
          "removed": false
        }
      ],
      "status": "0x1",
      "logsBloom": "0x00000800004000000000000000000000000000000000000000000000000000000000000000000000000000100000000000000000000000000000000000000000000000000000000000000000000000000000000000000000000000000000080000000000000000000000000000001000000000000000008000000000000000000000000000000000000000010000000000000000000000000000000000040000000000000000000000000000000000000000000000000000000000000000000000000000000000000100000000000000000000000000000000000000000000000000000000000000000000000000000040080000000000000000000000000200",
      "type": "0x2",
      "effectiveGasPrice": "0xb32d8f84"
    },
    {
      "transactionHash": "0xe116d3bb7447efc0e15a7a5452b2b11bac9b6859bdf3bdcd95a5c11812b7c203",
      "transactionIndex": "0x0",
      "blockHash": "0x2351a74efa809bc7d5bffdcfa3c8462662c9f5f4a6710fb36dae131e60106ae0",
      "blockNumber": "0x2c",
      "from": "0xa0Ee7A142d267C1f36714E4a8F75612F20a79720",
      "to": "0xC44504Ab6a2C4dF9a9ce82aecFc453FeC3C8771C",
      "cumulativeGasUsed": "0x1bc17",
      "gasUsed": "0x1bc17",
      "contractAddress": null,
      "logs": [
        {
          "address": "0xC44504Ab6a2C4dF9a9ce82aecFc453FeC3C8771C",
          "topics": [
            "0x8dbb3a9672eebfd3773e72dd9c102393436816d832c7ba9e1e1ac8fcadcac7a9",
            "0x7462776f726c6400000000000000000046756e6374696f6e53656c6563746f72"
          ],
          "data": "0x000000000000000000000000000000000000000000000000000000000000008000000000000000000000000000000000000000000000000000000000000000c00000000000000000000000000000000000000000000000000000000000000000000000000000000000000000000000000000000000000000000000000000012000000000000000000000000000000000000000000000000000000000000000016c2720140000000000000000000000000000000000000000000000000000000000000000000000000000000000000000000000000000000000000000000000247379706f705374617200000000000000506f705374617253797374656d00000019be214b000000000000000000000000000000000000000000000000000000000000000000000000000000000000000000000000000000000000000000000000",
          "blockHash": "0x2351a74efa809bc7d5bffdcfa3c8462662c9f5f4a6710fb36dae131e60106ae0",
          "blockNumber": "0x2c",
          "transactionHash": "0xe116d3bb7447efc0e15a7a5452b2b11bac9b6859bdf3bdcd95a5c11812b7c203",
          "transactionIndex": "0x0",
          "logIndex": "0x0",
          "removed": false
        },
        {
          "address": "0xC44504Ab6a2C4dF9a9ce82aecFc453FeC3C8771C",
          "topics": [
            "0x8dbb3a9672eebfd3773e72dd9c102393436816d832c7ba9e1e1ac8fcadcac7a9",
            "0x6f74776f726c6400000000000000000046756e6374696f6e5369676e61747572"
          ],
          "data": "0x000000000000000000000000000000000000000000000000000000000000008000000000000000000000000000000000000000000000000000000000000000c0000000000000000000000000000000000000000000000000420000000000004200000000000000000000000000000000000000000000000000000000000000e000000000000000000000000000000000000000000000000000000000000000016c2720140000000000000000000000000000000000000000000000000000000000000000000000000000000000000000000000000000000000000000000000000000000000000000000000000000000000000000000000000000000000000042706f70537461725f506f705374617253797374656d5f706f702828616464726573732c737472696e672c2875696e7433322c75696e743332292c737472696e672929000000000000000000000000000000000000000000000000000000000000",
          "blockHash": "0x2351a74efa809bc7d5bffdcfa3c8462662c9f5f4a6710fb36dae131e60106ae0",
          "blockNumber": "0x2c",
          "transactionHash": "0xe116d3bb7447efc0e15a7a5452b2b11bac9b6859bdf3bdcd95a5c11812b7c203",
          "transactionIndex": "0x0",
          "logIndex": "0x1",
          "removed": false
        }
      ],
      "status": "0x1",
      "logsBloom": "0x00000800004000000000000000000000000000000000000000000000000000000000000000000000000000100000000000000000000000000000000000000000000000000000000000000000000000000000000000000000000000000000080000000000000000000000000000001000000000000000008000000000000000000000000000000000000000010000000000000000000000000000000000040000000000000000000000000000000000000000000000000000000000000000000000000000000000000100000000000000000000000000000000000000000000000000000000000000000000000000000040080000000000000000000000000200",
      "type": "0x2",
      "effectiveGasPrice": "0xb3254999"
    }
  ],
  "libraries": [],
  "pending": [],
  "returns": {},
  "timestamp": 1716095016,
  "chain": 31337,
  "multi": false,
  "commit": "a7f9d7e"
}