{
  "transactions": [
    {
      "hash": "0xc57b402be77b3ae1d9d6c2e3710f520a6710134bc5ddeae2f8eb8546f81b2a51",
      "transactionType": "CALL",
      "contractName": null,
      "contractAddress": "0xC44504Ab6a2C4dF9a9ce82aecFc453FeC3C8771C",
      "function": "registerNamespace(bytes32)",
      "arguments": [
        "0x6e73706f70537461720000000000000000000000000000000000000000000000"
      ],
      "transaction": {
        "type": "0x02",
        "from": "0xa0ee7a142d267c1f36714e4a8f75612f20a79720",
        "to": "0xc44504ab6a2c4df9a9ce82aecfc453fec3c8771c",
        "gas": "0x30fe7",
        "value": "0x0",
        "data": "0xb29e40896e73706f70537461720000000000000000000000000000000000000000000000",
        "nonce": "0x1b",
        "accessList": []
      },
      "additionalContracts": [],
      "isFixedGasLimit": false
    },
    {
      "hash": "0x32609138b414088e820364cb72f852b31d17d3d6fe8ec6da2f41a6f6604f8245",
      "transactionType": "CALL",
      "contractName": null,
      "contractAddress": "0xC44504Ab6a2C4dF9a9ce82aecFc453FeC3C8771C",
      "function": null,
      "arguments": null,
      "transaction": {
        "type": "0x02",
        "from": "0xa0ee7a142d267c1f36714e4a8f75612f20a79720",
        "to": "0xc44504ab6a2c4df9a9ce82aecfc453fec3c8771c",
        "gas": "0x113222",
        "value": "0x0",
        "data": "0x0ba51f497462706f705374617200000000000000506f70537461720000000000000000000009030104040100000000000000000000000000000000000000000000000000005403001f615f00000000000000000000000000000000000000000000000000000903010303608100000000000000000000000000000000000000000000000000000000000000000000000000000000000000000000000000000000000000c000000000000000000000000000000000000000000000000000000000000002000000000000000000000000000000000000000000000000000000000000000003000000000000000000000000000000000000000000000000000000000000006000000000000000000000000000000000000000000000000000000000000000a000000000000000000000000000000000000000000000000000000000000000e0000000000000000000000000000000000000000000000000000000000000000974696d657374616d70000000000000000000000000000000000000000000000000000000000000000000000000000000000000000000000000000000000000056f776e6572000000000000000000000000000000000000000000000000000000000000000000000000000000000000000000000000000000000000000000000361707000000000000000000000000000000000000000000000000000000000000000000000000000000000000000000000000000000000000000000000000004000000000000000000000000000000000000000000000000000000000000008000000000000000000000000000000000000000000000000000000000000000c0000000000000000000000000000000000000000000000000000000000000010000000000000000000000000000000000000000000000000000000000000001400000000000000000000000000000000000000000000000000000000000000001780000000000000000000000000000000000000000000000000000000000000000000000000000000000000000000000000000000000000000000000000000017900000000000000000000000000000000000000000000000000000000000000000000000000000000000000000000000000000000000000000000000000000c67616d6546696e69736865640000000000000000000000000000000000000000000000000000000000000000000000000000000000000000000000000000000b6d61747269784172726179000000000000000000000000000000000000000000",
        "nonce": "0x1c",
        "accessList": []
      },
      "additionalContracts": [],
      "isFixedGasLimit": false
    },
    {
      "hash": "0x76d45e6c49dd778a83e85eb5497cb522b79fe0f7b2dd3a00e5e69b0a7fa159cc",
      "transactionType": "CREATE",
      "contractName": "PopStarSystem",
      "contractAddress": "0x5621d0B4D8043524Ac5837918D6a95b1050eF228",
      "function": null,
      "arguments": null,
      "transaction": {
        "type": "0x02",
        "from": "0xa0ee7a142d267c1f36714e4a8f75612f20a79720",
        "gas": "0x459520",
        "value": "0x0",
        "data": "0x60c060405260076080908152662837b829ba30b960c91b60a05262000024906200003b565b6000553480156200003457600080fd5b506200005c565b805160009082908203620000525750600092915050565b6020015192915050565b613e69806200006c6000396000f3fe608060405234801561001057600080fd5b506004361061007d5760003560e01c806345ec93541161005b57806345ec9354146100ec5780639211be97146100ff578063e1af802c14610112578063e1c7392a1461011a57600080fd5b806301ffc9a714610082578063119df25f146100aa57806319be214b146100d7575b600080fd5b610095610090366004612e73565b610122565b60405190151581526020015b60405180910390f35b6100b26101bb565b60405173ffffffffffffffffffffffffffffffffffffffff90911681526020016100a1565b6100ea6100e536600461302e565b6101ca565b005b604051601f1936013581526020016100a1565b6100ea61010d36600461302e565b610723565b6100b26109a2565b6100ea6109ac565b60007fffffffff0000000000000000000000000000000000000000000000000000000082167fb5dee1270000000000000000000000000000000000000000000000000000000014806101b557507fffffffff0000000000000000000000000000000000000000000000000000000082167f01ffc9a700000000000000000000000000000000000000000000000000000000145b92915050565b60006101c5610b37565b905090565b6040810151805160208201516000916101e291610b69565b905060006101fb82602001518360000151600054610cfc565b6040517f506f7053746172000000000000000000000000000000000000000000000000006020820152909150602701604051602081830303815290604052805190602001208260e001516040516020016102559190613121565b60405160208183030381529060405280519060200120148061027c57508060600151516064145b6102e7576040517f08c379a000000000000000000000000000000000000000000000000000000000815260206004820152600f60248201527f4e6f7420506f705374617220617070000000000000000000000000000000000060448201526064015b60405180910390fd5b806040015115610353576040517f08c379a000000000000000000000000000000000000000000000000000000000815260206004820152601060248201527f47616d652069732066696e69736865640000000000000000000000000000000060448201526064016102de565b805160208083015160608401519186015190919060009061037590849061316c565b61038090600a613190565b8551885161038e919061316c565b61039891906131b8565b63ffffffff16905060008282815181106103b4576103b46131d5565b6020026020010151905080600003610428576040517f08c379a000000000000000000000000000000000000000000000000000000000815260206004820152601860248201527f506c6561736520636c69636b206f6e207468652073746172000000000000000060448201526064016102de565b610433828285610e9c565b6104bf576040517f08c379a000000000000000000000000000000000000000000000000000000000815260206004820152602b60248201527f4e65656420746f20636f6e6e6563742074776f206f72206d6f7265206964656e60448201527f746963616c20737461727300000000000000000000000000000000000000000060648201526084016102de565b6104ca828285610fcc565b92506104d583611183565b925060006104e2846113a6565b905060006104fb89602001518a600001516000546114f0565b905060608060005b60648163ffffffff1610156106f657878163ffffffff168151811061052a5761052a6131d5565b6020026020010151848263ffffffff168151811061054a5761054a6131d5565b6020026020010151146106ee5761057f888263ffffffff1681518110610572576105726131d5565b6020026020010151611651565b909350915061058c6109a2565b73ffffffffffffffffffffffffffffffffffffffff16631044b9da604051806101000160405280600a856105c09190613233565b6105ca908f6131b8565b63ffffffff1681526020016105e0600a86613256565b6105ea908e6131b8565b63ffffffff1681526020018f6000015173ffffffffffffffffffffffffffffffffffffffff1681526020018f6020015181526020018581526020018681526020016040518060400160405280600381526020017f706f70000000000000000000000000000000000000000000000000000000000081525081526020016040518060400160405280600781526020017f506f7053746172000000000000000000000000000000000000000000000000008152508152506040518263ffffffff1660e01b81526004016106bb91906132a5565b600060405180830381600087803b1580156106d557600080fd5b505af11580156106e9573d6000803e3d6000fd5b505050505b600101610503565b506020808c01518c516000548d51938e01516107149490898d6117a1565b50505050505050505050505050565b604081015181516107338261195c565b610799576040517f08c379a000000000000000000000000000000000000000000000000000000000815260206004820152601060248201527f506978656c206e6f7420656e6f7567680000000000000000000000000000000060448201526064016102de565b4260006107a4611a9e565b905060006107b1826113a6565b90506060806000805b600a8163ffffffff16101561097d5760005b600a8163ffffffff16101561097457806107e783600a613190565b6107f191906131b8565b63ffffffff16925061080e878481518110610572576105726131d5565b909550935061081b6109a2565b73ffffffffffffffffffffffffffffffffffffffff16631044b9da604051806101000160405280848e6000015161085291906131b8565b63ffffffff168152602001858e6020015161086d91906131b8565b63ffffffff1681526020018c73ffffffffffffffffffffffffffffffffffffffff1681526020018b81526020018781526020018881526020016040518060400160405280600381526020017f706f70000000000000000000000000000000000000000000000000000000000081525081526020016040518060400160405280600781526020017f506f7053746172000000000000000000000000000000000000000000000000008152508152506040518263ffffffff1660e01b815260040161093691906132a5565b600060405180830381600087803b15801561095057600080fd5b505af1158015610964573d6000803e3d6000fd5b5050600190920191506107cc9050565b506001016107ba565b5061099786886000548b600001518c60200151898b6117a1565b505050505050505050565b60006101c5611b51565b6109b46109a2565b604080518082018252600a81527f44482d506f7053746172000000000000000000000000000000000000000000006020808301919091528251808401845260078082527f552b3146333145000000000000000000000000000000000000000000000000008284015284518086018652601281527f424153452f506f705374617253797374656d000000000000000000000000000081850152855180870187529182527f706f7053746172000000000000000000000000000000000000000000000000008285015285518087018752600d81527f506f705374617253797374656d000000000000000000000000000000000000009481019490945294517fc3aceb6000000000000000000000000000000000000000000000000000000000815273ffffffffffffffffffffffffffffffffffffffff969096169563c3aceb6095610b039594909291600401613376565b600060405180830381600087803b158015610b1d57600080fd5b505af1158015610b31573d6000803e3d6000fd5b50505050565b7fffffffffffffffffffffffffffffffffffffffffffffffffffffffffffffffcc36013560601c80610b665750335b90565b610bc7604051806101000160405280600073ffffffffffffffffffffffffffffffffffffffff168152602001600081526020016000815260200160008152602001606081526020016060815260200160608152602001606081525090565b6040805160028082526060820183526000926020830190803683370190505090508363ffffffff1660001b81600081518110610c0557610c056131d5565b6020026020010181815250508263ffffffff1660001b81600181518110610c2e57610c2e6131d5565b602090810291909101810191909152604080517f7462000000000000000000000000000000000000000000000000000000000000928101929092526000602283018190527f506978656c00000000000000000000000000000000000000000000000000000060308401529182918291610ce09101604051602081830303815290604052610cba906133e3565b857e74040414202020000000000000000000000000000000000000000000000000611b9d565b925092509250610cf1838383611c87565b979650505050505050565b6040805160808082018352600080835260208301819052828401819052606080840152835160038082529281019094529192908160200160208202803683370190505090508460001b81600081518110610d5857610d586131d5565b6020026020010181815250508373ffffffffffffffffffffffffffffffffffffffff1660001b81600181518110610d9157610d916131d5565b6020026020010181815250508281600281518110610db157610db16131d5565b602090810291909101810191909152604080517f7462000000000000000000000000000000000000000000000000000000000000818401527f706f70537461720000000000000000000000000000000000000000000000000060228201527f506f7053746172000000000000000000000000000000000000000000000000006030820152815180820390930183528101905260009081908190610e7d90610e57906133e3565b857e09030104040100000000000000000000000000000000000000000000000000611b9d565b925092509250610e8e838383611d3a565b9450505050505b9392505050565b600080610eaa600a86613425565b90506000610eb9600a87613439565b905060008215610efc57610ece60018861344d565b905085858281518110610ee357610ee36131d5565b602002602001015103610efc5760019350505050610e95565b6009831015610f3e57610f10876001613460565b905085858281518110610f2557610f256131d5565b602002602001015103610f3e5760019350505050610e95565b8115610f7d57610f4f600a8861344d565b905085858281518110610f6457610f646131d5565b602002602001015103610f7d5760019350505050610e95565b6009821015610fbf57610f9187600a613460565b905085858281518110610fa657610fa66131d5565b602002602001015103610fbf5760019350505050610e95565b5060009695505050505050565b60606000610fdb600a86613425565b90506000610fea600a87613439565b90506000821561104f57610fff60018861344d565b905085858281518110611014576110146131d5565b60200260200101510361104f576000858281518110611035576110356131d5565b60200260200101818152505061104c818787610fcc565b94505b60098310156110b357611063876001613460565b905085858281518110611078576110786131d5565b6020026020010151036110b3576000858281518110611099576110996131d5565b6020026020010181815250506110b0818787610fcc565b94505b8115611114576110c4600a8861344d565b9050858582815181106110d9576110d96131d5565b6020026020010151036111145760008582815181106110fa576110fa6131d5565b602002602001018181525050611111818787610fcc565b94505b60098210156111785761112887600a613460565b90508585828151811061113d5761113d6131d5565b60200260200101510361117857600085828151811061115e5761115e6131d5565b602002602001018181525050611175818787610fcc565b94505b509295945050505050565b60606000806059815b600a81101561139c576111a081605a613460565b9250600a5b8015611267578651600a7fffffffffffffffffffffffffffffffffffffffffffffffffffffffffffffffff909201918202830195508790869081106111ec576111ec6131d5565b60200260200101516000146112625783851461125b57868581518110611214576112146131d5565b602002602001015187858151811061122e5761122e6131d5565b602002602001018181525050600087868151811061124e5761124e6131d5565b6020026020010181815250505b600a840393505b6111a5565b506000811180156112915750858281518110611285576112856131d5565b60200260200101516000145b1561138657856112a282605a613460565b815181106112b2576112b26131d5565b60200260200101516000146113815760005b600a811015611372576112d881600a613473565b6112e29083613460565b94508685815181106112f6576112f66131d5565b602002602001015160001461136a57868581518110611317576113176131d5565b60200260200101518760018761132d919061344d565b8151811061133d5761133d6131d5565b602002602001018181525050600087868151811061135d5761135d6131d5565b6020026020010181815250505b6001016112c4565b5061137e600183613460565b91505b611394565b611391600183613460565b91505b60010161118c565b5093949350505050565b6000805b60638110156114e7578281815181106113c5576113c56131d5565b60200260200101516000146114df57605981111561142e57826113e9826001613460565b815181106113f9576113f96131d5565b6020026020010151838281518110611413576114136131d5565b6020026020010151036114295750600092915050565b6114df565b611439600a82613425565b60090361144c57826113e982600a613460565b82611458826001613460565b81518110611468576114686131d5565b6020026020010151838281518110611482576114826131d5565b602002602001015114806114d157508261149d82600a613460565b815181106114ad576114ad6131d5565b60200260200101518382815181106114c7576114c76131d5565b6020026020010151145b156114df5750600092915050565b6001016113aa565b50600192915050565b60408051600380825260808201909252606091600091906020820184803683370190505090508460001b8160008151811061152d5761152d6131d5565b6020026020010181815250508373ffffffffffffffffffffffffffffffffffffffff1660001b81600181518110611566576115666131d5565b6020026020010181815250508281600281518110611586576115866131d5565b602090810291909101810191909152604080517f7462000000000000000000000000000000000000000000000000000000000000818401527f706f70537461720000000000000000000000000000000000000000000000000060228201527f506f7053746172000000000000000000000000000000000000000000000000006030820152815180820390930183528101905260009061163090611628906133e3565b836000611d96565b90506116476116428260008451611e77565b611f07565b9695505050505050565b60408051808201909152600681527f552b3236303600000000000000000000000000000000000000000000000000006020820152606060018390036116b3576040518061022001604052806101e4815260200161397a6101e491399150915091565b826002036116de576040518061022001604052806101e48152602001613b5e6101e491399150915091565b82600303611709576040518061022001604052806101e481526020016137966101e491399150915091565b82600403611731576040518060a0016040528060798152602001613dbb607991399150915091565b82600503611759576040518060a0016040528060798152602001613d42607991399150915091565b50506040805160208082018352600082528251808401909352600783527f23303030303030000000000000000000000000000000000000000000000000009083015290915091565b604080517fffffffff0000000000000000000000000000000000000000000000000000000060e087811b8216602084015286901b16602482015283151560f81b6028820152815180820360090181526029909101909152600061180383611f18565b9050600061181084611f2b565b6040805160038082526080820190925291925060009190602082016060803683370190505090508a60001b8160008151811061184e5761184e6131d5565b6020026020010181815250508973ffffffffffffffffffffffffffffffffffffffff1660001b81600181518110611887576118876131d5565b60200260200101818152505088816002815181106118a7576118a76131d5565b602090810291909101810191909152604080517f7462000000000000000000000000000000000000000000000000000000000000818401527f706f70537461720000000000000000000000000000000000000000000000000060228201527f506f7053746172000000000000000000000000000000000000000000000000006030820152815180820390930183528101905261194f90611946906133e3565b82868686611f5c565b5050505050505050505050565b60006119bc604051806101000160405280600073ffffffffffffffffffffffffffffffffffffffff168152602001600081526020016000815260200160008152602001606081526020016060815260200160608152602001606081525090565b60005b600a8160ff161015611a945760005b600a8160ff161015611a81578451611a06906119ee9060ff8416906131b8565b8360ff168760200151611a0191906131b8565b610b69565b9250826080015151600014611a2057506000949350505050565b60a08301515115611a3657506000949350505050565b60e083015151151580611a5f5750825173ffffffffffffffffffffffffffffffffffffffff1615155b15611a6f57506000949350505050565b80611a798161348a565b9150506119ce565b5080611a8c8161348a565b9150506119bf565b5060019392505050565b604080516064808252610ca082019092526060916000919060208201610c808036833701905050905060005b6064811015611b4b576000600544611ae28443613460565b6040805160208101939093528201526060016040516020818303038152906040528051906020012060001c611b179190613425565b611b22906001613460565b905080838381518110611b3757611b376131d5565b602090810291909101015250600101611aca565b50919050565b7f629a4c26e296b22a8e0856e9f6ecb2d1008d7e00081111962cd175fa7488e1755460009073ffffffffffffffffffffffffffffffffffffffff1680611b98573391505090565b919050565b6060600060606000611bad611b51565b90503073ffffffffffffffffffffffffffffffffffffffff821603611be357611bd787878761202c565b93509350935050611c7e565b6040517f419b58fd00000000000000000000000000000000000000000000000000000000815273ffffffffffffffffffffffffffffffffffffffff82169063419b58fd90611c39908a908a908a906004016134e4565b600060405180830381865afa158015611c56573d6000803e3d6000fd5b505050506040513d6000823e601f3d908101601f19168201604052611bd79190810190613552565b93509350939050565b611ce5604051806101000160405280600073ffffffffffffffffffffffffffffffffffffffff168152602001600081526020016000815260200160008152602001606081526020016060815260200160608152602001606081525090565b611cee84612134565b60608501526040840152602083015273ffffffffffffffffffffffffffffffffffffffff168152611d1f838361216c565b60e085015260c084015260a083015260808201529392505050565b60408051608081018252600080825260208083018281529383019182526060808401528601516024870151602888015160f81c151590925260e091821c9093529190911c8152611d8a83836121ff565b60608201529392505050565b60606000611da2611b51565b90503073ffffffffffffffffffffffffffffffffffffffff821603611dd457611dcc858585612226565b915050610e95565b6040517f1e78897700000000000000000000000000000000000000000000000000000000815273ffffffffffffffffffffffffffffffffffffffff821690631e78897790611e2a908890889088906004016135bf565b600060405180830381865afa158015611e47573d6000803e3d6000fd5b505050506040513d6000823e601f3d908101601f19168201604052611dcc91908101906135eb565b509392505050565b6000818311158015611e8a575083518211155b611ec6578383836040517f23230fa30000000000000000000000000000000000000000000000000000000081526004016102de93929190613620565b60208401611ed48482613460565b90506000611ee2858561344d565b6fffffffffffffffffffffffffffffffff1660809290921b9190911795945050505050565b60606000610e958360206000612268565b60006101b58251602002603881901b1790565b6060611f36826122e3565b604051602001611f469190613121565b6040516020818303038152906040529050919050565b6000611f66611b51565b90503073ffffffffffffffffffffffffffffffffffffffff821603611f9757611f9286868686866122f3565b612024565b6040517f298314fb00000000000000000000000000000000000000000000000000000000815273ffffffffffffffffffffffffffffffffffffffff82169063298314fb90611ff19089908990899089908990600401613645565b600060405180830381600087803b15801561200b57600080fd5b505af115801561201f573d6000803e3d6000fd5b505050505b505050505050565b606060006060600061203d85612310565b905061204a878783612333565b935060006120578661236c565b905080156121295761206988886123a9565b935066ffffffffffffff841667ffffffffffffffff81111561208d5761208d612eb5565b6040519080825280601f01601f1916602001820160405280156120b7576020820181803683370190505b5092506020830160005b828160ff1610156121265760006120d98b8b846123bc565b905060006120f6888460ff166028026038011c64ffffffffff1690565b9050612105828260008761243c565b61210f8185613460565b93505050808061211e9061348a565b9150506120c1565b50505b505093509350939050565b60008060008061214985600060209101015190565b6034860151605487015160749097015160609290921c9790969550909350915050565b60608080806000603887901c64ffffffffff1661219261218d888484611e77565b612565565b955090508064ffffffffff606089901c16016121b261218d888484611e77565b945090508064ffffffffff608889901c16016121d261218d888484611e77565b935090508064ffffffffff60b089901c16016121f261218d888484611e77565b9250505092959194509250565b60606000603884901c64ffffffffff1661221d611642858484611e77565b95945050505050565b60606122606122368585856123bc565b6122598461224488886123a9565b9060ff166028026038011c64ffffffffff1690565b60006125e5565b949350505050565b606060006122768560801c90565b90506fffffffffffffffffffffffffffffffff8516600085828161229c5761229c613204565b04905060405193506020840160208202810160405281855260005b828110156122d7578451871c8252938701936020909101906001016122b7565b50505050509392505050565b606081610e958160206000612608565b61230985858585856123048b61265c565b6127c0565b5050505050565b600060086123206002602061344d565b61232a9190613473565b9190911c919050565b6060816000036123525750604080516020810190915260008152610e95565b600061235e8585612aca565b905061221d818460006125e5565b6000600860018061237f6002602061344d565b612389919061344d565b612393919061344d565b61239d9190613473565b8260ff911c1692915050565b6000610e956123b88484612b20565b5490565b600083836040516020016123d192919061368a565b604051602081830303815290604052805190602001208260f81b7effffffffffffffffffffffffffffffffffffffffffffffffffffffffffffff19167f3b4102da22e32d82fc925482184f16c09fd4281692720b87d124aef6da48a0f1181860001c90509392505050565b811561250157602082106124665760208204840193506020828161246257612462613204565b0691505b81156125015760208290036000818510156124a857507fffffffffffffffffffffffffffffffffffffffffffffffffffffffffffffffff600885021c196124d1565b507fffffffffffffffffffffffffffffffffffffffffffffffffffffffffffffffff600882021c195b8554600885021b8119845116828216178452508185116124f2575050610b31565b50600194909401939283900392015b5b602083106125235783548152600190930192601f1990920191602001612502565b8215610b315760007fffffffffffffffffffffffffffffffffffffffffffffffffffffffffffffffff600885021c198251865482169119161782525050505050565b606060006125738360801c90565b90506fffffffffffffffffffffffffffffffff83168067ffffffffffffffff8111156125a1576125a1612eb5565b6040519080825280601f01601f1916602001820160405280156125cb576020820181803683370190505b509250602083016125dd838284612b76565b505050919050565b60405160208101601f19603f8584010116604052838252611e6f8585858461243c565b825160609060006126198583613473565b9050604051925060208301601f19603f83860101166040528184526000602088015b848210156122d7578051871b8352918701916001919091019060200161263b565b604080517f746200000000000000000000000000000000000000000000000000000000000060208201527f73746f726500000000000000000000000000000000000000000000000000000060228201527f5461626c657300000000000000000000000000000000000000000000000000006030820152600091016040516020818303038152906040526126ee906133e3565b820361271a57507e60030220202000000000000000000000000000000000000000000000000000919050565b604080517f746200000000000000000000000000000000000000000000000000000000000060208201527f73746f726500000000000000000000000000000000000000000000000000000060228201527f5461626c6573000000000000000000000000000000000000000000000000000060308201526101b5916127b791016040516020818303038152906040526127b1906133e3565b84612be0565b60206000612bfc565b857f8dbb3a9672eebfd3773e72dd9c102393436816d832c7ba9e1e1ac8fcadcac7a9868686866040516127f694939291906136c5565b60405180910390a27f7462000000000000000000000000000000000000000000000000000000000000867fffff000000000000000000000000000000000000000000000000000000000000160361202457600061285287612c4d565b905060005b8151811015612935576000828281518110612874576128746131d5565b602002602001015190506128a06001826affffffffffffffffffffff1916612d4890919063ffffffff16565b15612922576040517f57066c9c000000000000000000000000000000000000000000000000000000008152606082901c906357066c9c906128ef908c908c908c908c908c908c90600401613704565b600060405180830381600087803b15801561290957600080fd5b505af115801561291d573d6000803e3d6000fd5b505050505b508061292d8161375d565b915050612857565b5060006129428888612aca565b9050600060208701905061295a826000838a51612d66565b60006129658561236c565b11156129e95760006129778a8a612b20565b878155905060208601915060008060005b6129918861236c565b8160ff1610156129e4576129a68d8d836123bc565b92506129c18a8260ff166028026038011c64ffffffffff1690565b91506129d08360008785612d66565b6129da8286613460565b9450600101612988565b505050505b60005b835181101561201f576000848281518110612a0957612a096131d5565b60200260200101519050612a356002826affffffffffffffffffffff1916612d4890919063ffffffff16565b15612ab7576040517f5b28cdaf000000000000000000000000000000000000000000000000000000008152606082901c90635b28cdaf90612a84908e908e908e908e908e908e90600401613704565b600060405180830381600087803b158015612a9e57600080fd5b505af1158015612ab2573d6000803e3d6000fd5b505050505b5080612ac28161375d565b9150506129ec565b60008282604051602001612adf92919061368a565b60408051601f1981840301815291905280516020909101207f86425bff6b57326c7859e89024fe4f238ca327a1ae4a230180dd2f0e88aaa7d9189392505050565b60008282604051602001612b3592919061368a565b60408051601f1981840301815291905280516020909101207f14e2fcc58e58e68ec7edc30c8d50dccc3ce2714a623ec81f46b6a63922d76569189392505050565b5b60208110612b96578251825260209283019290910190601f1901612b77565b80600003612ba357505050565b60007fffffffffffffffffffffffffffffffffffffffffffffffffffffffffffffffff600883021c19905080198351168185511617835250505050565b6040805160208101849052908101829052600090606001612adf565b600060208210612c2257602082048401935060208281612c1e57612c1e613204565b0691505b508254600882021b602082900380841115611e6f576001850154600882021c82179150509392505050565b60408051600180825281830190925260609160009190602080830190803683370190505090508281600081518110612c8757612c876131d5565b602090810291909101810191909152604080517f7462000000000000000000000000000000000000000000000000000000000000818401527f73746f726500000000000000000000000000000000000000000000000000000060228201527f53746f7265486f6f6b730000000000000000000000000000000000000000000060308201528151808203909301835281019052600090612d3190612d29906133e3565b836000612226565b9050612260612d438260008451611e77565b612e62565b60008160ff1682612d598560581c90565b1660ff1614905092915050565b8215612dfe5760208310612d9057602083048401935060208381612d8c57612d8c613204565b0692505b8215612dfe57602083900360007fffffffffffffffffffffffffffffffffffffffffffffffffffffffffffffffff600884021c1990506008850281811c91508451811c9050811987541682821617875550818311612def575050610b31565b50600194909401939182019190035b5b60208110612e205781518455600190930192602090910190601f1901612dff565b8015610b315760007fffffffffffffffffffffffffffffffffffffffffffffffffffffffffffffffff600883021c198554845182169119161785555050505050565b60606000610e958360156000612268565b600060208284031215612e8557600080fd5b81357fffffffff0000000000000000000000000000000000000000000000000000000081168114610e9557600080fd5b7f4e487b7100000000000000000000000000000000000000000000000000000000600052604160045260246000fd5b6040516080810167ffffffffffffffff81118282101715612f0757612f07612eb5565b60405290565b604051601f8201601f1916810167ffffffffffffffff81118282101715612f3657612f36612eb5565b604052919050565b600067ffffffffffffffff821115612f5857612f58612eb5565b50601f01601f191660200190565b600082601f830112612f7757600080fd5b8135612f8a612f8582612f3e565b612f0d565b818152846020838601011115612f9f57600080fd5b816020850160208301376000918101602001919091529392505050565b803563ffffffff81168114611b9857600080fd5b600060408284031215612fe257600080fd5b6040516040810181811067ffffffffffffffff8211171561300557613005612eb5565b60405290508061301483612fbc565b815261302260208401612fbc565b60208201525092915050565b60006020828403121561304057600080fd5b813567ffffffffffffffff8082111561305857600080fd5b9083019060a0828603121561306c57600080fd5b613074612ee4565b823573ffffffffffffffffffffffffffffffffffffffff8116811461309857600080fd5b81526020830135828111156130ac57600080fd5b6130b887828601612f66565b6020830152506130cb8660408501612fd0565b60408201526080830135828111156130e257600080fd5b6130ee87828601612f66565b60608301525095945050505050565b60005b83811015613118578181015183820152602001613100565b50506000910152565b600082516131338184602087016130fd565b9190910192915050565b7f4e487b7100000000000000000000000000000000000000000000000000000000600052601160045260246000fd5b63ffffffff8281168282160390808211156131895761318961313d565b5092915050565b63ffffffff8181168382160280821691908281146131b0576131b061313d565b505092915050565b63ffffffff8181168382160190808211156131895761318961313d565b7f4e487b7100000000000000000000000000000000000000000000000000000000600052603260045260246000fd5b7f4e487b7100000000000000000000000000000000000000000000000000000000600052601260045260246000fd5b600063ffffffff8084168061324a5761324a613204565b92169190910692915050565b600063ffffffff8084168061326d5761326d613204565b92169190910492915050565b600081518084526132918160208601602086016130fd565b601f01601f19169290920160200192915050565b602081526132bc60208201835163ffffffff169052565b600060208301516132d5604084018263ffffffff169052565b50604083015173ffffffffffffffffffffffffffffffffffffffff81166060840152506060830151608083015260808301516101008060a085015261331e610120850183613279565b915060a0850151601f19808685030160c087015261333c8483613279565b935060c08701519150808685030160e08701526133598483613279565b935060e08701519150808685030183870152506116478382613279565b60a08152600061338960a0830188613279565b828103602084015261339b8188613279565b905082810360408401526133af8187613279565b905082810360608401526133c38186613279565b905082810360808401526133d78185613279565b98975050505050505050565b80516020808301519190811015611b4b577fffffffffffffffffffffffffffffffffffffffffffffffffffffffffffffffff60209190910360031b1b16919050565b60008261343457613434613204565b500690565b60008261344857613448613204565b500490565b818103818111156101b5576101b561313d565b808201808211156101b5576101b561313d565b80820281158282048414176101b5576101b561313d565b600060ff821660ff81036134a0576134a061313d565b60010192915050565b600081518084526020808501945080840160005b838110156134d9578151875295820195908201906001016134bd565b509495945050505050565b8381526060602082015260006134fd60608301856134a9565b9050826040830152949350505050565b600082601f83011261351e57600080fd5b815161352c612f8582612f3e565b81815284602083860101111561354157600080fd5b6122608260208301602087016130fd565b60008060006060848603121561356757600080fd5b835167ffffffffffffffff8082111561357f57600080fd5b61358b8783880161350d565b94506020860151935060408601519150808211156135a857600080fd5b506135b58682870161350d565b9150509250925092565b8381526060602082015260006135d860608301856134a9565b905060ff83166040830152949350505050565b6000602082840312156135fd57600080fd5b815167ffffffffffffffff81111561361457600080fd5b6122608482850161350d565b6060815260006136336060830186613279565b60208301949094525060400152919050565b85815260a06020820152600061365e60a08301876134a9565b82810360408401526136708187613279565b905084606084015282810360808401526133d78185613279565b82815260006020808301845182860160005b828110156136b85781518452928401929084019060010161369c565b5091979650505050505050565b6080815260006136d860808301876134a9565b82810360208401526136ea8187613279565b90508460408401528281036060840152610cf18185613279565b86815260c06020820152600061371d60c08301886134a9565b828103604084015261372f8188613279565b905085606084015282810360808401526137498186613279565b9150508260a0830152979650505050505050565b60007fffffffffffffffffffffffffffffffffffffffffffffffffffffffffffffffff820361378e5761378e61313d565b506001019056fe68747470733a2f2f73332d616c7068612d7369672e6669676d612e636f6d2f696d672f623534662f313064632f66373566653639336239386332366432383062643163383935343361653062633f457870697265733d31373136373638303030264b65792d506169722d49643d41504b415134474f53465743564e45484e334f34265369676e61747572653d71577543765937776e2d487e4c4b726264576666314a76304e3273776a324568553778745161487352473156377e3644476c73733276424d786a694e4a33676d32794c36714d675550317732686d6b6c305872506c4c3261736378775331566d6a387e73504958324841574b35547631745152466a6f4f6f70397250794a5758395973526c41523551644b4e47595a724c7834486b45674d46534963696b6c48794a6a3941716d6154777e587751547759664a41576273326a62463962654b7e534f6f45357a6b6c7177482d7635534a31586c44534c7667527253736d784e41786a4b2d452d37544e56302d746a3143537e577e494b3774722d654356774d42673955616330315a47705057415346684a366e4c3369346a364a704a71585261474a6d364a62544b4247557048384f4266492d77393453534f6b556d77486545575867555772433533527534355430577644457053515f5f68747470733a2f2f73332d616c7068612d7369672e6669676d612e636f6d2f696d672f393831622f393131652f38356536376163393636643263666530373536343734336465393663353738393f457870697265733d31373136373638303030264b65792d506169722d49643d41504b415134474f53465743564e45484e334f34265369676e61747572653d5a6e45664d4b593577383733674d646b764e42467a39714b75736a384e4267565177616a6862344d764f4d576438585a716d36464330593278353350775a32304c533844514f6f425775416e386d696a7531764d74764a5045365459447132536746447046714c4d7e6870715368542d374a4c377a6c396556503046354e755959524779776d64373955762d7a304d356958387e4176332d4f396853556d33307e5171383969734c637861657a73506536367a7e6d4f71484d573465657a61434d2d307151547e6b37654d52594a477e6f5057647e6b463164427e396f51687152524a56533677524e333333703272747554456f3846693274417e4e4470373555514a5a3530526a5539354a55796a486c327063334e45414a4e68576d43556f7548637a7251636e46766243684e7e446256494e7973587e3377484a78506e523568416e333762356854753549473832642d72367e775f5f68747470733a2f2f73332d616c7068612d7369672e6669676d612e636f6d2f696d672f616562642f363763612f30326336366338363234313366366533663634353432343363393239623137363f457870697265733d31373136373638303030264b65792d506169722d49643d41504b415134474f53465743564e45484e334f34265369676e61747572653d5836636b6742395073414d727e6f31423545717a7a776d6a5636564b524850755742717465354f68613166625273316a774f4f795438466837497770716e577836555a656d7157474369587638785745444c4d71703649564152794d3750484446454d7a7e5069535a6867507a55374435516e4c72324171342d6130444f464b415a6c694e552d755953736e495a4472526f552d61724333584942746d54514554506f4e3864316d6c43593054724b497241554d575a67376f583750495277464e386775526a4e32466d4c4c5a7474376c4269444350716f7e3934476c416a5945486f6a63784b74675a79517e77447a583466795371635758734c6f794e56666a63726576556d727a636163674d4f7132645167424e442d67796a316a713666374d794a314f5a5264796a6e6b346a524b52307668336849526d43506a4455494d734b766a79725858377972684c3932495a525246515f5f68747470733a2f2f63646e2e73616e6974792e696f2f696d616765732f37306b7a6b656f722f70726f64756374696f6e2f323435646535333038383834623038643937313539303330303638346533653962653965383434622d3230303078323030302e706e673f773d323030266175746f3d666f726d617468747470733a2f2f63646e2e73616e6974792e696f2f696d616765732f37306b7a6b656f722f70726f64756374696f6e2f666463663934663833623339613461626335303163363539313466313163633862386535393666642d3230303078323030302e706e673f773d323030266175746f3d666f726d6174a264697066735822122014535a1918ce2da0781bc581c1f7d7b544d5aed15dbe8bff9b26599f5bde279364736f6c63430008150033",
        "nonce": "0x1d",
        "accessList": []
      },
      "additionalContracts": [],
      "isFixedGasLimit": false
    },
    {
      "hash": "0xb73e45efdb5f43c1b1046442d40aa17110588c6d5877f76d02de17c327228ef5",
      "transactionType": "CALL",
      "contractName": null,
      "contractAddress": "0xC44504Ab6a2C4dF9a9ce82aecFc453FeC3C8771C",
      "function": "registerSystem(bytes32,address,bool)",
      "arguments": [
        "0x7379706f705374617200000000000000506f705374617253797374656d000000",
        "0x5621d0B4D8043524Ac5837918D6a95b1050eF228",
        "true"
      ],
      "transaction": {
        "type": "0x02",
        "from": "0xa0ee7a142d267c1f36714e4a8f75612f20a79720",
        "to": "0xc44504ab6a2c4df9a9ce82aecfc453fec3c8771c",
        "gas": "0x3df81",
        "value": "0x0",
        "data": "0x3350b6a97379706f705374617200000000000000506f705374617253797374656d0000000000000000000000000000005621d0b4d8043524ac5837918d6a95b1050ef2280000000000000000000000000000000000000000000000000000000000000001",
        "nonce": "0x1e",
        "accessList": []
      },
      "additionalContracts": [],
      "isFixedGasLimit": false
    },
    {
      "hash": "0x80dcb1a39f28f57ef54dd2ecce9908b7564fce57d8783ef798bf8ac2c82cc606",
      "transactionType": "CALL",
      "contractName": null,
      "contractAddress": "0xC44504Ab6a2C4dF9a9ce82aecFc453FeC3C8771C",
      "function": "registerFunctionSelector(bytes32,string)",
      "arguments": [
        "0x7379706f705374617200000000000000506f705374617253797374656d000000",
        "\"init()\""
      ],
      "transaction": {
        "type": "0x02",
        "from": "0xa0ee7a142d267c1f36714e4a8f75612f20a79720",
        "to": "0xc44504ab6a2c4df9a9ce82aecfc453fec3c8771c",
        "gas": "0x25ca9",
        "value": "0x0",
        "data": "0x26d981027379706f705374617200000000000000506f705374617253797374656d00000000000000000000000000000000000000000000000000000000000000000000400000000000000000000000000000000000000000000000000000000000000006696e697428290000000000000000000000000000000000000000000000000000",
        "nonce": "0x1f",
        "accessList": []
      },
      "additionalContracts": [],
      "isFixedGasLimit": false
    },
    {
      "hash": "0x38a7e557372bd739e04f7ba8f8c973e81c639e1caf3ba96bc6344e8d4d9e9e19",
      "transactionType": "CALL",
      "contractName": null,
      "contractAddress": "0xC44504Ab6a2C4dF9a9ce82aecFc453FeC3C8771C",
      "function": "registerFunctionSelector(bytes32,string)",
      "arguments": [
        "0x7379706f705374617200000000000000506f705374617253797374656d000000",
        "\"interact((address,string,(uint32,uint32),string))\""
      ],
      "transaction": {
        "type": "0x02",
        "from": "0xa0ee7a142d267c1f36714e4a8f75612f20a79720",
        "to": "0xc44504ab6a2c4df9a9ce82aecfc453fec3c8771c",
        "gas": "0x289d2",
        "value": "0x0",
        "data": "0x26d981027379706f705374617200000000000000506f705374617253797374656d00000000000000000000000000000000000000000000000000000000000000000000400000000000000000000000000000000000000000000000000000000000000031696e7465726163742828616464726573732c737472696e672c2875696e7433322c75696e743332292c737472696e672929000000000000000000000000000000",
        "nonce": "0x20",
        "accessList": []
      },
      "additionalContracts": [],
      "isFixedGasLimit": false
    },
    {
      "hash": "0x60d457f42388c80a6061dcf5f44d5362daccae9d8e91bd3dabd38ab0ad377c5d",
      "transactionType": "CALL",
      "contractName": null,
      "contractAddress": "0xC44504Ab6a2C4dF9a9ce82aecFc453FeC3C8771C",
      "function": "registerFunctionSelector(bytes32,string)",
      "arguments": [
        "0x7379706f705374617200000000000000506f705374617253797374656d000000",
        "\"pop((address,string,(uint32,uint32),string))\""
      ],
      "transaction": {
        "type": "0x02",
        "from": "0xa0ee7a142d267c1f36714e4a8f75612f20a79720",
        "to": "0xc44504ab6a2c4df9a9ce82aecfc453fec3c8771c",
        "gas": "0x26565",
        "value": "0x0",
        "data": "0x26d981027379706f705374617200000000000000506f705374617253797374656d0000000000000000000000000000000000000000000000000000000000000000000040000000000000000000000000000000000000000000000000000000000000002c706f702828616464726573732c737472696e672c2875696e7433322c75696e743332292c737472696e6729290000000000000000000000000000000000000000",
        "nonce": "0x21",
        "accessList": []
      },
      "additionalContracts": [],
      "isFixedGasLimit": false
    }
  ],
  "receipts": [
    {
      "transactionHash": "0xc57b402be77b3ae1d9d6c2e3710f520a6710134bc5ddeae2f8eb8546f81b2a51",
      "transactionIndex": "0x0",
      "blockHash": "0x2065dd547b1965fbda0ff51e4af6e3cbf1f82aa284f78ad40274eec125308707",
      "blockNumber": "0x29",
      "from": "0xa0Ee7A142d267C1f36714E4a8F75612F20a79720",
      "to": "0xC44504Ab6a2C4dF9a9ce82aecFc453FeC3C8771C",
      "cumulativeGasUsed": "0x21801",
      "gasUsed": "0x21801",
      "contractAddress": null,
      "logs": [
        {
          "address": "0xC44504Ab6a2C4dF9a9ce82aecFc453FeC3C8771C",
          "topics": [
            "0x8c0b5119d4cec7b284c6b1b39252a03d1e2f2d7451a5895562524c113bb952be",
            "0x746273746f72650000000000000000005265736f757263654964730000000000"
          ],
          "data": "0x0000000000000000000000000000000000000000000000000000000000000060000000000000000000000000000000000000000000000000000000000000000000000000000000000000000000000000000000000000000000000000000000a000000000000000000000000000000000000000000000000000000000000000016e73706f7053746172000000000000000000000000000000000000000000000000000000000000000000000000000000000000000000000000000000000000010100000000000000000000000000000000000000000000000000000000000000",
          "blockHash": "0x2065dd547b1965fbda0ff51e4af6e3cbf1f82aa284f78ad40274eec125308707",
          "blockNumber": "0x29",
          "transactionHash": "0xc57b402be77b3ae1d9d6c2e3710f520a6710134bc5ddeae2f8eb8546f81b2a51",
          "transactionIndex": "0x0",
          "logIndex": "0x0",
          "removed": false
        },
        {
          "address": "0xC44504Ab6a2C4dF9a9ce82aecFc453FeC3C8771C",
          "topics": [
            "0x8c0b5119d4cec7b284c6b1b39252a03d1e2f2d7451a5895562524c113bb952be",
            "0x7462776f726c640000000000000000004e616d6573706163654f776e65720000"
          ],
          "data": "0x0000000000000000000000000000000000000000000000000000000000000060000000000000000000000000000000000000000000000000000000000000000000000000000000000000000000000000000000000000000000000000000000a000000000000000000000000000000000000000000000000000000000000000016e73706f705374617200000000000000000000000000000000000000000000000000000000000000000000000000000000000000000000000000000000000014a0ee7a142d267c1f36714e4a8f75612f20a79720000000000000000000000000",
          "blockHash": "0x2065dd547b1965fbda0ff51e4af6e3cbf1f82aa284f78ad40274eec125308707",
          "blockNumber": "0x29",
          "transactionHash": "0xc57b402be77b3ae1d9d6c2e3710f520a6710134bc5ddeae2f8eb8546f81b2a51",
          "transactionIndex": "0x0",
          "logIndex": "0x1",
          "removed": false
        },
        {
          "address": "0xC44504Ab6a2C4dF9a9ce82aecFc453FeC3C8771C",
          "topics": [
            "0x8c0b5119d4cec7b284c6b1b39252a03d1e2f2d7451a5895562524c113bb952be",
            "0x7462776f726c640000000000000000005265736f757263654163636573730000"
          ],
          "data": "0x0000000000000000000000000000000000000000000000000000000000000060000000000000000000000000000000000000000000000000000000000000000000000000000000000000000000000000000000000000000000000000000000c000000000000000000000000000000000000000000000000000000000000000026e73706f70537461720000000000000000000000000000000000000000000000000000000000000000000000a0ee7a142d267c1f36714e4a8f75612f20a7972000000000000000000000000000000000000000000000000000000000000000010100000000000000000000000000000000000000000000000000000000000000",
          "blockHash": "0x2065dd547b1965fbda0ff51e4af6e3cbf1f82aa284f78ad40274eec125308707",
          "blockNumber": "0x29",
          "transactionHash": "0xc57b402be77b3ae1d9d6c2e3710f520a6710134bc5ddeae2f8eb8546f81b2a51",
          "transactionIndex": "0x0",
          "logIndex": "0x2",
          "removed": false
        }
      ],
      "status": "0x1",
      "logsBloom": "0x00000000000000000000000000000000000000001000000080000000000000000000000000000000080000000000000000000000000000000000000000000000000000000000000000000000000000000000000000000000000000000000000010800000000000000000000200001000000000000000008000000000000000000008000000000000000000000000000020000000000000000000000000000000000000000000000000000000000000000000000000000000080080000000000000000000000000000020000000000000000000000000000000000000000000000000000000004000000000000000000000080000000000000000000000000000",
      "type": "0x2",
      "effectiveGasPrice": "0xb349e22b"
    },
    {
      "transactionHash": "0x32609138b414088e820364cb72f852b31d17d3d6fe8ec6da2f41a6f6604f8245",
      "transactionIndex": "0x0",
      "blockHash": "0xf0809c937e88a4305ded95b898fbaa97a4b7799bc2340be199408cbdd6af05d9",
      "blockNumber": "0x2a",
      "from": "0xa0Ee7A142d267C1f36714E4a8F75612F20a79720",
      "to": "0xC44504Ab6a2C4dF9a9ce82aecFc453FeC3C8771C",
      "cumulativeGasUsed": "0xbc202",
      "gasUsed": "0xbc202",
      "contractAddress": null,
      "logs": [
        {
          "address": "0xC44504Ab6a2C4dF9a9ce82aecFc453FeC3C8771C",
          "topics": [
            "0x8dbb3a9672eebfd3773e72dd9c102393436816d832c7ba9e1e1ac8fcadcac7a9",
            "0x746273746f72650000000000000000005461626c657300000000000000000000"
          ],
          "data": "0x000000000000000000000000000000000000000000000000000000000000008000000000000000000000000000000000000000000000000000000000000000c000000000000000000000000000000000000001c0000000016000000000000320000000000000000000000000000000000000000000000000000000000000014000000000000000000000000000000000000000000000000000000000000000017462706f705374617200000000000000506f705374617200000000000000000000000000000000000000000000000000000000000000000000000000000000600009030104040100000000000000000000000000000000000000000000000000005403001f615f000000000000000000000000000000000000000000000000000009030103036081000000000000000000000000000000000000000000000000000000000000000000000000000000000000000000000000000000000000032000000000000000000000000000000000000000000000000000000000000000200000000000000000000000000000000000000000000000000000000000000003000000000000000000000000000000000000000000000000000000000000006000000000000000000000000000000000000000000000000000000000000000a000000000000000000000000000000000000000000000000000000000000000e0000000000000000000000000000000000000000000000000000000000000000974696d657374616d70000000000000000000000000000000000000000000000000000000000000000000000000000000000000000000000000000000000000056f776e65720000000000000000000000000000000000000000000000000000000000000000000000000000000000000000000000000000000000000000000003617070000000000000000000000000000000000000000000000000000000000000000000000000000000000000000000000000000000000000000000000000200000000000000000000000000000000000000000000000000000000000000004000000000000000000000000000000000000000000000000000000000000008000000000000000000000000000000000000000000000000000000000000000c0000000000000000000000000000000000000000000000000000000000000010000000000000000000000000000000000000000000000000000000000000001400000000000000000000000000000000000000000000000000000000000000001780000000000000000000000000000000000000000000000000000000000000000000000000000000000000000000000000000000000000000000000000000017900000000000000000000000000000000000000000000000000000000000000000000000000000000000000000000000000000000000000000000000000000c67616d6546696e69736865640000000000000000000000000000000000000000000000000000000000000000000000000000000000000000000000000000000b6d61747269784172726179000000000000000000000000000000000000000000",
          "blockHash": "0xf0809c937e88a4305ded95b898fbaa97a4b7799bc2340be199408cbdd6af05d9",
          "blockNumber": "0x2a",
          "transactionHash": "0x32609138b414088e820364cb72f852b31d17d3d6fe8ec6da2f41a6f6604f8245",
          "transactionIndex": "0x0",
          "logIndex": "0x0",
          "removed": false
        },
        {
          "address": "0xC44504Ab6a2C4dF9a9ce82aecFc453FeC3C8771C",
          "topics": [
            "0x8c0b5119d4cec7b284c6b1b39252a03d1e2f2d7451a5895562524c113bb952be",
            "0x746273746f72650000000000000000005265736f757263654964730000000000"
          ],
          "data": "0x0000000000000000000000000000000000000000000000000000000000000060000000000000000000000000000000000000000000000000000000000000000000000000000000000000000000000000000000000000000000000000000000a000000000000000000000000000000000000000000000000000000000000000017462706f705374617200000000000000506f705374617200000000000000000000000000000000000000000000000000000000000000000000000000000000010100000000000000000000000000000000000000000000000000000000000000",
          "blockHash": "0xf0809c937e88a4305ded95b898fbaa97a4b7799bc2340be199408cbdd6af05d9",
          "blockNumber": "0x2a",
          "transactionHash": "0x32609138b414088e820364cb72f852b31d17d3d6fe8ec6da2f41a6f6604f8245",
          "transactionIndex": "0x0",
          "logIndex": "0x1",
          "removed": false
        }
      ],
      "status": "0x1",
      "logsBloom": "0x00000000000000000000000000000000000000001000000000000000000000000000000000000000000000100000000000000000000200000000000000000000000000000000000000000000000000000000000200000000000000000000080000000000000000000000000200001000000000000000008000000000000000000000000000000000000000010000000020000000000000000000000000000000000000000000000000000000000000000000000002000000080080000000000000000000000000000000000000000000000000000000000000000000000000000000000000004000000000000000000000080000000000000000000000000000",
      "type": "0x2",
      "effectiveGasPrice": "0xb33ad538"
    },
    {
      "transactionHash": "0x76d45e6c49dd778a83e85eb5497cb522b79fe0f7b2dd3a00e5e69b0a7fa159cc",
      "transactionIndex": "0x1",
      "blockHash": "0xf0809c937e88a4305ded95b898fbaa97a4b7799bc2340be199408cbdd6af05d9",
      "blockNumber": "0x2a",
      "from": "0xa0Ee7A142d267C1f36714E4a8F75612F20a79720",
      "to": null,
      "cumulativeGasUsed": "0x414c58",
      "gasUsed": "0x358a56",
      "contractAddress": "0x5621d0B4D8043524Ac5837918D6a95b1050eF228",
      "logs": [],
      "status": "0x1",
      "logsBloom": "0x00000000000000000000000000000000000000000000000000000000000000000000000000000000000000000000000000000000000000000000000000000000000000000000000000000000000000000000000000000000000000000000000000000000000000000000000000000000000000000000000000000000000000000000000000000000000000000000000000000000000000000000000000000000000000000000000000000000000000000000000000000000000000000000000000000000000000000000000000000000000000000000000000000000000000000000000000000000000000000000000000000000000000000000000000000000",
      "type": "0x2",
      "effectiveGasPrice": "0xb33ad538"
    },
    {
      "transactionHash": "0xb73e45efdb5f43c1b1046442d40aa17110588c6d5877f76d02de17c327228ef5",
      "transactionIndex": "0x2",
      "blockHash": "0xf0809c937e88a4305ded95b898fbaa97a4b7799bc2340be199408cbdd6af05d9",
      "blockNumber": "0x2a",
      "from": "0xa0Ee7A142d267C1f36714E4a8F75612F20a79720",
      "to": "0xC44504Ab6a2C4dF9a9ce82aecFc453FeC3C8771C",
      "cumulativeGasUsed": "0x441a2d",
      "gasUsed": "0x2cdd5",
      "contractAddress": null,
      "logs": [
        {
          "address": "0xC44504Ab6a2C4dF9a9ce82aecFc453FeC3C8771C",
          "topics": [
            "0x8c0b5119d4cec7b284c6b1b39252a03d1e2f2d7451a5895562524c113bb952be",
            "0x746273746f72650000000000000000005265736f757263654964730000000000"
          ],
          "data": "0x0000000000000000000000000000000000000000000000000000000000000060000000000000000000000000000000000000000000000000000000000000000000000000000000000000000000000000000000000000000000000000000000a000000000000000000000000000000000000000000000000000000000000000017379706f705374617200000000000000506f705374617253797374656d00000000000000000000000000000000000000000000000000000000000000000000010100000000000000000000000000000000000000000000000000000000000000",
          "blockHash": "0xf0809c937e88a4305ded95b898fbaa97a4b7799bc2340be199408cbdd6af05d9",
          "blockNumber": "0x2a",
          "transactionHash": "0xb73e45efdb5f43c1b1046442d40aa17110588c6d5877f76d02de17c327228ef5",
          "transactionIndex": "0x2",
          "logIndex": "0x8",
          "removed": false
        },
        {
          "address": "0xC44504Ab6a2C4dF9a9ce82aecFc453FeC3C8771C",
          "topics": [
            "0x8dbb3a9672eebfd3773e72dd9c102393436816d832c7ba9e1e1ac8fcadcac7a9",
            "0x7462776f726c6400000000000000000053797374656d73000000000000000000"
          ],
          "data": "0x000000000000000000000000000000000000000000000000000000000000008000000000000000000000000000000000000000000000000000000000000000c00000000000000000000000000000000000000000000000000000000000000000000000000000000000000000000000000000000000000000000000000000010000000000000000000000000000000000000000000000000000000000000000017379706f705374617200000000000000506f705374617253797374656d00000000000000000000000000000000000000000000000000000000000000000000155621d0b4d8043524ac5837918d6a95b1050ef2280100000000000000000000000000000000000000000000000000000000000000000000000000000000000000",
          "blockHash": "0xf0809c937e88a4305ded95b898fbaa97a4b7799bc2340be199408cbdd6af05d9",
          "blockNumber": "0x2a",
          "transactionHash": "0xb73e45efdb5f43c1b1046442d40aa17110588c6d5877f76d02de17c327228ef5",
          "transactionIndex": "0x2",
          "logIndex": "0x9",
          "removed": false
        },
        {
          "address": "0xC44504Ab6a2C4dF9a9ce82aecFc453FeC3C8771C",
          "topics": [
            "0x8c0b5119d4cec7b284c6b1b39252a03d1e2f2d7451a5895562524c113bb952be",
            "0x7462776f726c6400000000000000000053797374656d52656769737472790000"
          ],
          "data": "0x0000000000000000000000000000000000000000000000000000000000000060000000000000000000000000000000000000000000000000000000000000000000000000000000000000000000000000000000000000000000000000000000a000000000000000000000000000000000000000000000000000000000000000010000000000000000000000005621d0b4d8043524ac5837918d6a95b1050ef22800000000000000000000000000000000000000000000000000000000000000207379706f705374617200000000000000506f705374617253797374656d000000",
          "blockHash": "0xf0809c937e88a4305ded95b898fbaa97a4b7799bc2340be199408cbdd6af05d9",
          "blockNumber": "0x2a",
          "transactionHash": "0xb73e45efdb5f43c1b1046442d40aa17110588c6d5877f76d02de17c327228ef5",
          "transactionIndex": "0x2",
          "logIndex": "0xa",
          "removed": false
        },
        {
          "address": "0xC44504Ab6a2C4dF9a9ce82aecFc453FeC3C8771C",
          "topics": [
            "0x8c0b5119d4cec7b284c6b1b39252a03d1e2f2d7451a5895562524c113bb952be",
            "0x7462776f726c640000000000000000005265736f757263654163636573730000"
          ],
          "data": "0x0000000000000000000000000000000000000000000000000000000000000060000000000000000000000000000000000000000000000000000000000000000000000000000000000000000000000000000000000000000000000000000000c000000000000000000000000000000000000000000000000000000000000000026e73706f705374617200000000000000000000000000000000000000000000000000000000000000000000005621d0b4d8043524ac5837918d6a95b1050ef22800000000000000000000000000000000000000000000000000000000000000010100000000000000000000000000000000000000000000000000000000000000",
          "blockHash": "0xf0809c937e88a4305ded95b898fbaa97a4b7799bc2340be199408cbdd6af05d9",
          "blockNumber": "0x2a",
          "transactionHash": "0xb73e45efdb5f43c1b1046442d40aa17110588c6d5877f76d02de17c327228ef5",
          "transactionIndex": "0x2",
          "logIndex": "0xb",
          "removed": false
        }
      ],
      "status": "0x1",
      "logsBloom": "0x80000000000000000000000000000000000000001800000080000000000000000000000000000000000000100000000000000000000000000000000000000000000000000000040000000000000000000000000000000000000000000000080000800000000000000000000200001000000000000000008000000000000000000008000000000000000000010000000020000000000000000000000000000000000000000000000000000000000000000100000000000000080081000000000000000000000000000000000000000000000000000000000000000000000000000000000000004000008000000000000000080000000000000000000000000000",
      "type": "0x2",
      "effectiveGasPrice": "0xb33ad538"
    },
    {
      "transactionHash": "0x80dcb1a39f28f57ef54dd2ecce9908b7564fce57d8783ef798bf8ac2c82cc606",
      "transactionIndex": "0x3",
      "blockHash": "0xf0809c937e88a4305ded95b898fbaa97a4b7799bc2340be199408cbdd6af05d9",
      "blockNumber": "0x2a",
      "from": "0xa0Ee7A142d267C1f36714E4a8F75612F20a79720",
      "to": "0xC44504Ab6a2C4dF9a9ce82aecFc453FeC3C8771C",
      "cumulativeGasUsed": "0x45cff1",
      "gasUsed": "0x1b5c4",
      "contractAddress": null,
      "logs": [
        {
          "address": "0xC44504Ab6a2C4dF9a9ce82aecFc453FeC3C8771C",
          "topics": [
            "0x8dbb3a9672eebfd3773e72dd9c102393436816d832c7ba9e1e1ac8fcadcac7a9",
            "0x7462776f726c6400000000000000000046756e6374696f6e53656c6563746f72"
          ],
          "data": "0x000000000000000000000000000000000000000000000000000000000000008000000000000000000000000000000000000000000000000000000000000000c00000000000000000000000000000000000000000000000000000000000000000000000000000000000000000000000000000000000000000000000000000012000000000000000000000000000000000000000000000000000000000000000018dd2ca7f0000000000000000000000000000000000000000000000000000000000000000000000000000000000000000000000000000000000000000000000247379706f705374617200000000000000506f705374617253797374656d000000e1c7392a000000000000000000000000000000000000000000000000000000000000000000000000000000000000000000000000000000000000000000000000",
          "blockHash": "0xf0809c937e88a4305ded95b898fbaa97a4b7799bc2340be199408cbdd6af05d9",
          "blockNumber": "0x2a",
          "transactionHash": "0x80dcb1a39f28f57ef54dd2ecce9908b7564fce57d8783ef798bf8ac2c82cc606",
          "transactionIndex": "0x3",
          "logIndex": "0x6",
          "removed": false
        },
        {
          "address": "0xC44504Ab6a2C4dF9a9ce82aecFc453FeC3C8771C",
          "topics": [
            "0x8dbb3a9672eebfd3773e72dd9c102393436816d832c7ba9e1e1ac8fcadcac7a9",
            "0x6f74776f726c6400000000000000000046756e6374696f6e5369676e61747572"
          ],
          "data": "0x000000000000000000000000000000000000000000000000000000000000008000000000000000000000000000000000000000000000000000000000000000c00000000000000000000000000000000000000000000000001c0000000000001c00000000000000000000000000000000000000000000000000000000000000e000000000000000000000000000000000000000000000000000000000000000018dd2ca7f000000000000000000000000000000000000000000000000000000000000000000000000000000000000000000000000000000000000000000000000000000000000000000000000000000000000000000000000000000000000001c706f70537461725f506f705374617253797374656d5f696e6974282900000000",
          "blockHash": "0xf0809c937e88a4305ded95b898fbaa97a4b7799bc2340be199408cbdd6af05d9",
          "blockNumber": "0x2a",
          "transactionHash": "0x80dcb1a39f28f57ef54dd2ecce9908b7564fce57d8783ef798bf8ac2c82cc606",
          "transactionIndex": "0x3",
          "logIndex": "0x7",
          "removed": false
        }
      ],
      "status": "0x1",
      "logsBloom": "0x00000800004000000000000000000000000000000000000000000000000000000000000000000000000000100000000000000000000000000000000000000000000000000000000000000000000000000000000000000000000000000000080000000000000000000000000000001000000000000000008000000000000000000000000000000000000000010000000000000000000000000000000000040000000000000000000000000000000000000000000000000000000000000000000000000000000000000100000000000000000000000000000000000000000000000000000000000000000000000000000040080000000000000000000000000200",
      "type": "0x2",
      "effectiveGasPrice": "0xb33ad538"
    },
    {
      "transactionHash": "0x38a7e557372bd739e04f7ba8f8c973e81c639e1caf3ba96bc6344e8d4d9e9e19",
      "transactionIndex": "0x4",
      "blockHash": "0xf0809c937e88a4305ded95b898fbaa97a4b7799bc2340be199408cbdd6af05d9",
      "blockNumber": "0x2a",
      "from": "0xa0Ee7A142d267C1f36714E4a8F75612F20a79720",
      "to": "0xC44504Ab6a2C4dF9a9ce82aecFc453FeC3C8771C",
      "cumulativeGasUsed": "0x478c44",
      "gasUsed": "0x1bc53",
      "contractAddress": null,
      "logs": [
        {
          "address": "0xC44504Ab6a2C4dF9a9ce82aecFc453FeC3C8771C",
          "topics": [
            "0x8dbb3a9672eebfd3773e72dd9c102393436816d832c7ba9e1e1ac8fcadcac7a9",
            "0x7462776f726c6400000000000000000046756e6374696f6e53656c6563746f72"
          ],
          "data": "0x000000000000000000000000000000000000000000000000000000000000008000000000000000000000000000000000000000000000000000000000000000c0000000000000000000000000000000000000000000000000000000000000000000000000000000000000000000000000000000000000000000000000000001200000000000000000000000000000000000000000000000000000000000000001bc45450f0000000000000000000000000000000000000000000000000000000000000000000000000000000000000000000000000000000000000000000000247379706f705374617200000000000000506f705374617253797374656d0000009211be97000000000000000000000000000000000000000000000000000000000000000000000000000000000000000000000000000000000000000000000000",
          "blockHash": "0xf0809c937e88a4305ded95b898fbaa97a4b7799bc2340be199408cbdd6af05d9",
          "blockNumber": "0x2a",
          "transactionHash": "0x38a7e557372bd739e04f7ba8f8c973e81c639e1caf3ba96bc6344e8d4d9e9e19",
          "transactionIndex": "0x4",
          "logIndex": "0x8",
          "removed": false
        },
        {
          "address": "0xC44504Ab6a2C4dF9a9ce82aecFc453FeC3C8771C",
          "topics": [
            "0x8dbb3a9672eebfd3773e72dd9c102393436816d832c7ba9e1e1ac8fcadcac7a9",
            "0x6f74776f726c6400000000000000000046756e6374696f6e5369676e61747572"
          ],
          "data": "0x000000000000000000000000000000000000000000000000000000000000008000000000000000000000000000000000000000000000000000000000000000c0000000000000000000000000000000000000000000000000470000000000004700000000000000000000000000000000000000000000000000000000000000e00000000000000000000000000000000000000000000000000000000000000001bc45450f0000000000000000000000000000000000000000000000000000000000000000000000000000000000000000000000000000000000000000000000000000000000000000000000000000000000000000000000000000000000000047706f70537461725f506f705374617253797374656d5f696e7465726163742828616464726573732c737472696e672c2875696e7433322c75696e743332292c737472696e67292900000000000000000000000000000000000000000000000000",
          "blockHash": "0xf0809c937e88a4305ded95b898fbaa97a4b7799bc2340be199408cbdd6af05d9",
          "blockNumber": "0x2a",
          "transactionHash": "0x38a7e557372bd739e04f7ba8f8c973e81c639e1caf3ba96bc6344e8d4d9e9e19",
          "transactionIndex": "0x4",
          "logIndex": "0x9",
          "removed": false
        }
      ],
      "status": "0x1",
      "logsBloom": "0x00000800004000000000000000000000000000000000000000000000000000000000000000000000000000100000000000000000000000000000000000000000000000000000000000000000000000000000000000000000000000000000080000000000000000000000000000001000000000000000008000000000000000000000000000000000000000010000000000000000000000000000000000040000000000000000000000000000000000000000000000000000000000000000000000000000000000000100000000000000000000000000000000000000000000000000000000000000000000000000000040080000000000000000000000000200",
      "type": "0x2",
      "effectiveGasPrice": "0xb33ad538"
    },
    {
      "transactionHash": "0x60d457f42388c80a6061dcf5f44d5362daccae9d8e91bd3dabd38ab0ad377c5d",
      "transactionIndex": "0x5",
      "blockHash": "0xf0809c937e88a4305ded95b898fbaa97a4b7799bc2340be199408cbdd6af05d9",
      "blockNumber": "0x2a",
      "from": "0xa0Ee7A142d267C1f36714E4a8F75612F20a79720",
      "to": "0xC44504Ab6a2C4dF9a9ce82aecFc453FeC3C8771C",
      "cumulativeGasUsed": "0x49485b",
      "gasUsed": "0x1bc17",
      "contractAddress": null,
      "logs": [
        {
          "address": "0xC44504Ab6a2C4dF9a9ce82aecFc453FeC3C8771C",
          "topics": [
            "0x8dbb3a9672eebfd3773e72dd9c102393436816d832c7ba9e1e1ac8fcadcac7a9",
            "0x7462776f726c6400000000000000000046756e6374696f6e53656c6563746f72"
          ],
          "data": "0x000000000000000000000000000000000000000000000000000000000000008000000000000000000000000000000000000000000000000000000000000000c00000000000000000000000000000000000000000000000000000000000000000000000000000000000000000000000000000000000000000000000000000012000000000000000000000000000000000000000000000000000000000000000016c2720140000000000000000000000000000000000000000000000000000000000000000000000000000000000000000000000000000000000000000000000247379706f705374617200000000000000506f705374617253797374656d00000019be214b000000000000000000000000000000000000000000000000000000000000000000000000000000000000000000000000000000000000000000000000",
          "blockHash": "0xf0809c937e88a4305ded95b898fbaa97a4b7799bc2340be199408cbdd6af05d9",
          "blockNumber": "0x2a",
          "transactionHash": "0x60d457f42388c80a6061dcf5f44d5362daccae9d8e91bd3dabd38ab0ad377c5d",
          "transactionIndex": "0x5",
          "logIndex": "0xa",
          "removed": false
        },
        {
          "address": "0xC44504Ab6a2C4dF9a9ce82aecFc453FeC3C8771C",
          "topics": [
            "0x8dbb3a9672eebfd3773e72dd9c102393436816d832c7ba9e1e1ac8fcadcac7a9",
            "0x6f74776f726c6400000000000000000046756e6374696f6e5369676e61747572"
          ],
          "data": "0x000000000000000000000000000000000000000000000000000000000000008000000000000000000000000000000000000000000000000000000000000000c0000000000000000000000000000000000000000000000000420000000000004200000000000000000000000000000000000000000000000000000000000000e000000000000000000000000000000000000000000000000000000000000000016c2720140000000000000000000000000000000000000000000000000000000000000000000000000000000000000000000000000000000000000000000000000000000000000000000000000000000000000000000000000000000000000042706f70537461725f506f705374617253797374656d5f706f702828616464726573732c737472696e672c2875696e7433322c75696e743332292c737472696e672929000000000000000000000000000000000000000000000000000000000000",
          "blockHash": "0xf0809c937e88a4305ded95b898fbaa97a4b7799bc2340be199408cbdd6af05d9",
          "blockNumber": "0x2a",
          "transactionHash": "0x60d457f42388c80a6061dcf5f44d5362daccae9d8e91bd3dabd38ab0ad377c5d",
          "transactionIndex": "0x5",
          "logIndex": "0xb",
          "removed": false
        }
      ],
      "status": "0x1",
      "logsBloom": "0x00000800004000000000000000000000000000000000000000000000000000000000000000000000000000100000000000000000000000000000000000000000000000000000000000000000000000000000000000000000000000000000080000000000000000000000000000001000000000000000008000000000000000000000000000000000000000010000000000000000000000000000000000040000000000000000000000000000000000000000000000000000000000000000000000000000000000000100000000000000000000000000000000000000000000000000000000000000000000000000000040080000000000000000000000000200",
      "type": "0x2",
      "effectiveGasPrice": "0xb33ad538"
    }
  ],
  "libraries": [],
  "pending": [],
  "returns": {},
  "timestamp": 1716090648,
  "chain": 31337,
  "multi": false,
  "commit": "a7f9d7e"
}