{
  "transactions": [
    {
      "hash": "0xb520f7d28d491d7adba89b00230f6ad0f5a9c71b1417dd5b0fdb9f3bbb840f2f",
      "transactionType": "CALL",
      "contractName": null,
      "contractAddress": "0xC44504Ab6a2C4dF9a9ce82aecFc453FeC3C8771C",
      "function": "registerNamespace(bytes32)",
      "arguments": [
        "0x6e73706f70537461720000000000000000000000000000000000000000000000"
      ],
      "transaction": {
        "type": "0x02",
        "from": "0xa0ee7a142d267c1f36714e4a8f75612f20a79720",
        "to": "0xc44504ab6a2c4df9a9ce82aecfc453fec3c8771c",
        "gas": "0x30fe7",
        "value": "0x0",
        "data": "0xb29e40896e73706f70537461720000000000000000000000000000000000000000000000",
        "nonce": "0x1b",
        "accessList": []
      },
      "additionalContracts": [],
      "isFixedGasLimit": false
    },
    {
      "hash": "0x6538eba628c5fd05816122ef634dc6197af9b28200048e869c04abfdb8357a7b",
      "transactionType": "CALL",
      "contractName": null,
      "contractAddress": "0xC44504Ab6a2C4dF9a9ce82aecFc453FeC3C8771C",
      "function": null,
      "arguments": null,
      "transaction": {
        "type": "0x02",
        "from": "0xa0ee7a142d267c1f36714e4a8f75612f20a79720",
        "to": "0xc44504ab6a2c4df9a9ce82aecfc453fec3c8771c",
        "gas": "0x113222",
        "value": "0x0",
        "data": "0x0ba51f497462706f705374617200000000000000506f70537461720000000000000000000009030104040100000000000000000000000000000000000000000000000000005403001f615f00000000000000000000000000000000000000000000000000000903010303608100000000000000000000000000000000000000000000000000000000000000000000000000000000000000000000000000000000000000c000000000000000000000000000000000000000000000000000000000000002000000000000000000000000000000000000000000000000000000000000000003000000000000000000000000000000000000000000000000000000000000006000000000000000000000000000000000000000000000000000000000000000a000000000000000000000000000000000000000000000000000000000000000e0000000000000000000000000000000000000000000000000000000000000000974696d657374616d70000000000000000000000000000000000000000000000000000000000000000000000000000000000000000000000000000000000000056f776e6572000000000000000000000000000000000000000000000000000000000000000000000000000000000000000000000000000000000000000000000361707000000000000000000000000000000000000000000000000000000000000000000000000000000000000000000000000000000000000000000000000004000000000000000000000000000000000000000000000000000000000000008000000000000000000000000000000000000000000000000000000000000000c0000000000000000000000000000000000000000000000000000000000000010000000000000000000000000000000000000000000000000000000000000001400000000000000000000000000000000000000000000000000000000000000001780000000000000000000000000000000000000000000000000000000000000000000000000000000000000000000000000000000000000000000000000000017900000000000000000000000000000000000000000000000000000000000000000000000000000000000000000000000000000000000000000000000000000c67616d6546696e69736865640000000000000000000000000000000000000000000000000000000000000000000000000000000000000000000000000000000b6d61747269784172726179000000000000000000000000000000000000000000",
        "nonce": "0x1c",
        "accessList": []
      },
      "additionalContracts": [],
      "isFixedGasLimit": false
    },
    {
      "hash": "0x02aec230557fc75f6f6bbd251f548e04edc37963060874ed92450416ab772cd9",
      "transactionType": "CREATE",
      "contractName": "PopStarSystem",
      "contractAddress": "0x5621d0B4D8043524Ac5837918D6a95b1050eF228",
      "function": null,
      "arguments": null,
      "transaction": {
        "type": "0x02",
        "from": "0xa0ee7a142d267c1f36714e4a8f75612f20a79720",
        "gas": "0x40d6c4",
        "value": "0x0",
        "data": "0x60c060405260076080908152662837b829ba30b960c91b60a05262000024906200003b565b6000553480156200003457600080fd5b506200005c565b805160009082908203620000525750600092915050565b6020015192915050565b613a1d806200006c6000396000f3fe608060405234801561001057600080fd5b506004361061007d5760003560e01c806345ec93541161005b57806345ec9354146100ec5780639211be97146100ff578063e1af802c14610112578063e1c7392a1461011a57600080fd5b806301ffc9a714610082578063119df25f146100aa57806319be214b146100d7575b600080fd5b610095610090366004612ee1565b610122565b60405190151581526020015b60405180910390f35b6100b26101bb565b60405173ffffffffffffffffffffffffffffffffffffffff90911681526020016100a1565b6100ea6100e536600461309c565b6101ca565b005b604051601f1936013581526020016100a1565b6100ea61010d36600461309c565b610723565b6100b26109a2565b6100ea6109ac565b60007fffffffff0000000000000000000000000000000000000000000000000000000082167fb5dee1270000000000000000000000000000000000000000000000000000000014806101b557507fffffffff0000000000000000000000000000000000000000000000000000000082167f01ffc9a700000000000000000000000000000000000000000000000000000000145b92915050565b60006101c5610b37565b905090565b6040810151805160208201516000916101e291610b69565b905060006101fb82602001518360000151600054610cfc565b6040517f506f7053746172000000000000000000000000000000000000000000000000006020820152909150602701604051602081830303815290604052805190602001208260e00151604051602001610255919061318f565b60405160208183030381529060405280519060200120148061027c57508060600151516064145b6102e7576040517f08c379a000000000000000000000000000000000000000000000000000000000815260206004820152600f60248201527f4e6f7420506f705374617220617070000000000000000000000000000000000060448201526064015b60405180910390fd5b806040015115610353576040517f08c379a000000000000000000000000000000000000000000000000000000000815260206004820152601060248201527f47616d652069732066696e69736865640000000000000000000000000000000060448201526064016102de565b80516020808301516060840151918601519091906000906103759084906131da565b61038090600a6131fe565b8551885161038e91906131da565b6103989190613226565b63ffffffff16905060008282815181106103b4576103b4613243565b6020026020010151905080600003610428576040517f08c379a000000000000000000000000000000000000000000000000000000000815260206004820152601860248201527f506c6561736520636c69636b206f6e207468652073746172000000000000000060448201526064016102de565b610433828285610e9c565b6104bf576040517f08c379a000000000000000000000000000000000000000000000000000000000815260206004820152602b60248201527f4e65656420746f20636f6e6e6563742074776f206f72206d6f7265206964656e60448201527f746963616c20737461727300000000000000000000000000000000000000000060648201526084016102de565b6104ca828285610fcc565b92506104d583611183565b925060006104e2846113a6565b905060006104fb89602001518a600001516000546114f0565b905060608060005b60648163ffffffff1610156106f657878163ffffffff168151811061052a5761052a613243565b6020026020010151848263ffffffff168151811061054a5761054a613243565b6020026020010151146106ee5761057f888263ffffffff168151811061057257610572613243565b6020026020010151611651565b909350915061058c6109a2565b73ffffffffffffffffffffffffffffffffffffffff16631044b9da604051806101000160405280600a856105c091906132a1565b6105ca908f613226565b63ffffffff1681526020016105e0600a866132c4565b6105ea908e613226565b63ffffffff1681526020018f6000015173ffffffffffffffffffffffffffffffffffffffff1681526020018f6020015181526020018581526020018681526020016040518060400160405280600381526020017f706f70000000000000000000000000000000000000000000000000000000000081525081526020016040518060400160405280600781526020017f506f7053746172000000000000000000000000000000000000000000000000008152508152506040518263ffffffff1660e01b81526004016106bb9190613313565b600060405180830381600087803b1580156106d557600080fd5b505af11580156106e9573d6000803e3d6000fd5b505050505b600101610503565b506020808c01518c516000548d51938e01516107149490898d61180f565b50505050505050505050505050565b60408101518151610733826119ca565b610799576040517f08c379a000000000000000000000000000000000000000000000000000000000815260206004820152601060248201527f506978656c206e6f7420656e6f7567680000000000000000000000000000000060448201526064016102de565b4260006107a4611b0c565b905060006107b1826113a6565b90506060806000805b600a8163ffffffff16101561097d5760005b600a8163ffffffff16101561097457806107e783600a6131fe565b6107f19190613226565b63ffffffff16925061080e87848151811061057257610572613243565b909550935061081b6109a2565b73ffffffffffffffffffffffffffffffffffffffff16631044b9da604051806101000160405280848e600001516108529190613226565b63ffffffff168152602001858e6020015161086d9190613226565b63ffffffff1681526020018c73ffffffffffffffffffffffffffffffffffffffff1681526020018b81526020018781526020018881526020016040518060400160405280600381526020017f706f70000000000000000000000000000000000000000000000000000000000081525081526020016040518060400160405280600781526020017f506f7053746172000000000000000000000000000000000000000000000000008152508152506040518263ffffffff1660e01b81526004016109369190613313565b600060405180830381600087803b15801561095057600080fd5b505af1158015610964573d6000803e3d6000fd5b5050600190920191506107cc9050565b506001016107ba565b5061099786886000548b600001518c60200151898b61180f565b505050505050505050565b60006101c5611bbf565b6109b46109a2565b604080518082018252600a81527f44482d506f7053746172000000000000000000000000000000000000000000006020808301919091528251808401845260078082527f552b3146333145000000000000000000000000000000000000000000000000008284015284518086018652601281527f424153452f506f705374617253797374656d000000000000000000000000000081850152855180870187529182527f706f7053746172000000000000000000000000000000000000000000000000008285015285518087018752600d81527f506f705374617253797374656d000000000000000000000000000000000000009481019490945294517fc3aceb6000000000000000000000000000000000000000000000000000000000815273ffffffffffffffffffffffffffffffffffffffff969096169563c3aceb6095610b0395949092916004016133e4565b600060405180830381600087803b158015610b1d57600080fd5b505af1158015610b31573d6000803e3d6000fd5b50505050565b7fffffffffffffffffffffffffffffffffffffffffffffffffffffffffffffffcc36013560601c80610b665750335b90565b610bc7604051806101000160405280600073ffffffffffffffffffffffffffffffffffffffff168152602001600081526020016000815260200160008152602001606081526020016060815260200160608152602001606081525090565b6040805160028082526060820183526000926020830190803683370190505090508363ffffffff1660001b81600081518110610c0557610c05613243565b6020026020010181815250508263ffffffff1660001b81600181518110610c2e57610c2e613243565b602090810291909101810191909152604080517f7462000000000000000000000000000000000000000000000000000000000000928101929092526000602283018190527f506978656c00000000000000000000000000000000000000000000000000000060308401529182918291610ce09101604051602081830303815290604052610cba90613451565b857e74040414202020000000000000000000000000000000000000000000000000611c0b565b925092509250610cf1838383611cf5565b979650505050505050565b6040805160808082018352600080835260208301819052828401819052606080840152835160038082529281019094529192908160200160208202803683370190505090508460001b81600081518110610d5857610d58613243565b6020026020010181815250508373ffffffffffffffffffffffffffffffffffffffff1660001b81600181518110610d9157610d91613243565b6020026020010181815250508281600281518110610db157610db1613243565b602090810291909101810191909152604080517f7462000000000000000000000000000000000000000000000000000000000000818401527f706f70537461720000000000000000000000000000000000000000000000000060228201527f506f7053746172000000000000000000000000000000000000000000000000006030820152815180820390930183528101905260009081908190610e7d90610e5790613451565b857e09030104040100000000000000000000000000000000000000000000000000611c0b565b925092509250610e8e838383611da8565b9450505050505b9392505050565b600080610eaa600a86613493565b90506000610eb9600a876134a7565b905060008215610efc57610ece6001886134bb565b905085858281518110610ee357610ee3613243565b602002602001015103610efc5760019350505050610e95565b6009831015610f3e57610f108760016134ce565b905085858281518110610f2557610f25613243565b602002602001015103610f3e5760019350505050610e95565b8115610f7d57610f4f600a886134bb565b905085858281518110610f6457610f64613243565b602002602001015103610f7d5760019350505050610e95565b6009821015610fbf57610f9187600a6134ce565b905085858281518110610fa657610fa6613243565b602002602001015103610fbf5760019350505050610e95565b5060009695505050505050565b60606000610fdb600a86613493565b90506000610fea600a876134a7565b90506000821561104f57610fff6001886134bb565b90508585828151811061101457611014613243565b60200260200101510361104f57600085828151811061103557611035613243565b60200260200101818152505061104c818787610fcc565b94505b60098310156110b3576110638760016134ce565b90508585828151811061107857611078613243565b6020026020010151036110b357600085828151811061109957611099613243565b6020026020010181815250506110b0818787610fcc565b94505b8115611114576110c4600a886134bb565b9050858582815181106110d9576110d9613243565b6020026020010151036111145760008582815181106110fa576110fa613243565b602002602001018181525050611111818787610fcc565b94505b60098210156111785761112887600a6134ce565b90508585828151811061113d5761113d613243565b60200260200101510361117857600085828151811061115e5761115e613243565b602002602001018181525050611175818787610fcc565b94505b509295945050505050565b60606000806059815b600a81101561139c576111a081605a6134ce565b9250600a5b8015611267578651600a7fffffffffffffffffffffffffffffffffffffffffffffffffffffffffffffffff909201918202830195508790869081106111ec576111ec613243565b60200260200101516000146112625783851461125b5786858151811061121457611214613243565b602002602001015187858151811061122e5761122e613243565b602002602001018181525050600087868151811061124e5761124e613243565b6020026020010181815250505b600a840393505b6111a5565b50600081118015611291575085828151811061128557611285613243565b60200260200101516000145b1561138657856112a282605a6134ce565b815181106112b2576112b2613243565b60200260200101516000146113815760005b600a811015611372576112d881600a6134e1565b6112e290836134ce565b94508685815181106112f6576112f6613243565b602002602001015160001461136a5786858151811061131757611317613243565b60200260200101518760018761132d91906134bb565b8151811061133d5761133d613243565b602002602001018181525050600087868151811061135d5761135d613243565b6020026020010181815250505b6001016112c4565b5061137e6001836134ce565b91505b611394565b6113916001836134ce565b91505b60010161118c565b5093949350505050565b6000805b60638110156114e7578281815181106113c5576113c5613243565b60200260200101516000146114df57605981111561142e57826113e98260016134ce565b815181106113f9576113f9613243565b602002602001015183828151811061141357611413613243565b6020026020010151036114295750600092915050565b6114df565b611439600a82613493565b60090361144c57826113e982600a6134ce565b826114588260016134ce565b8151811061146857611468613243565b602002602001015183828151811061148257611482613243565b602002602001015114806114d157508261149d82600a6134ce565b815181106114ad576114ad613243565b60200260200101518382815181106114c7576114c7613243565b6020026020010151145b156114df5750600092915050565b6001016113aa565b50600192915050565b60408051600380825260808201909252606091600091906020820184803683370190505090508460001b8160008151811061152d5761152d613243565b6020026020010181815250508373ffffffffffffffffffffffffffffffffffffffff1660001b8160018151811061156657611566613243565b602002602001018181525050828160028151811061158657611586613243565b602090810291909101810191909152604080517f7462000000000000000000000000000000000000000000000000000000000000818401527f706f70537461720000000000000000000000000000000000000000000000000060228201527f506f705374617200000000000000000000000000000000000000000000000000603082015281518082039093018352810190526000906116309061162890613451565b836000611e04565b90506116476116428260008451611ee5565b611f75565b9695505050505050565b60408051808201909152600681527f552b3236303600000000000000000000000000000000000000000000000000006020820152606060018390036116b3576040518061022001604052806101e481526020016138046101e491399150915091565b826002036116f8576040518060400160405280600681526020017f552b3236303600000000000000000000000000000000000000000000000000008152509150915091565b8260030361173d576040518060400160405280600681526020017f552b3237323600000000000000000000000000000000000000000000000000008152509150915091565b82600403611782576040518060400160405280600681526020017f552b3237324300000000000000000000000000000000000000000000000000008152509150915091565b826005036117c7576040518060400160405280600681526020017f552b3237324100000000000000000000000000000000000000000000000000008152509150915091565b50506040805160208082018352600082528251808401909352600783527f23303030303030000000000000000000000000000000000000000000000000009083015290915091565b604080517fffffffff0000000000000000000000000000000000000000000000000000000060e087811b8216602084015286901b16602482015283151560f81b6028820152815180820360090181526029909101909152600061187183611f86565b9050600061187e84611f99565b6040805160038082526080820190925291925060009190602082016060803683370190505090508a60001b816000815181106118bc576118bc613243565b6020026020010181815250508973ffffffffffffffffffffffffffffffffffffffff1660001b816001815181106118f5576118f5613243565b602002602001018181525050888160028151811061191557611915613243565b602090810291909101810191909152604080517f7462000000000000000000000000000000000000000000000000000000000000818401527f706f70537461720000000000000000000000000000000000000000000000000060228201527f506f705374617200000000000000000000000000000000000000000000000000603082015281518082039093018352810190526119bd906119b490613451565b82868686611fca565b5050505050505050505050565b6000611a2a604051806101000160405280600073ffffffffffffffffffffffffffffffffffffffff168152602001600081526020016000815260200160008152602001606081526020016060815260200160608152602001606081525090565b60005b600a8160ff161015611b025760005b600a8160ff161015611aef578451611a7490611a5c9060ff841690613226565b8360ff168760200151611a6f9190613226565b610b69565b9250826080015151600014611a8e57506000949350505050565b60a08301515115611aa457506000949350505050565b60e083015151151580611acd5750825173ffffffffffffffffffffffffffffffffffffffff1615155b15611add57506000949350505050565b80611ae7816134f8565b915050611a3c565b5080611afa816134f8565b915050611a2d565b5060019392505050565b604080516064808252610ca082019092526060916000919060208201610c808036833701905050905060005b6064811015611bb9576000600544611b5084436134ce565b6040805160208101939093528201526060016040516020818303038152906040528051906020012060001c611b859190613493565b611b909060016134ce565b905080838381518110611ba557611ba5613243565b602090810291909101015250600101611b38565b50919050565b7f629a4c26e296b22a8e0856e9f6ecb2d1008d7e00081111962cd175fa7488e1755460009073ffffffffffffffffffffffffffffffffffffffff1680611c06573391505090565b919050565b6060600060606000611c1b611bbf565b90503073ffffffffffffffffffffffffffffffffffffffff821603611c5157611c4587878761209a565b93509350935050611cec565b6040517f419b58fd00000000000000000000000000000000000000000000000000000000815273ffffffffffffffffffffffffffffffffffffffff82169063419b58fd90611ca7908a908a908a90600401613552565b600060405180830381865afa158015611cc4573d6000803e3d6000fd5b505050506040513d6000823e601f3d908101601f19168201604052611c4591908101906135c0565b93509350939050565b611d53604051806101000160405280600073ffffffffffffffffffffffffffffffffffffffff168152602001600081526020016000815260200160008152602001606081526020016060815260200160608152602001606081525090565b611d5c846121a2565b60608501526040840152602083015273ffffffffffffffffffffffffffffffffffffffff168152611d8d83836121da565b60e085015260c084015260a083015260808201529392505050565b60408051608081018252600080825260208083018281529383019182526060808401528601516024870151602888015160f81c151590925260e091821c9093529190911c8152611df8838361226d565b60608201529392505050565b60606000611e10611bbf565b90503073ffffffffffffffffffffffffffffffffffffffff821603611e4257611e3a858585612294565b915050610e95565b6040517f1e78897700000000000000000000000000000000000000000000000000000000815273ffffffffffffffffffffffffffffffffffffffff821690631e78897790611e989088908890889060040161362d565b600060405180830381865afa158015611eb5573d6000803e3d6000fd5b505050506040513d6000823e601f3d908101601f19168201604052611e3a9190810190613659565b509392505050565b6000818311158015611ef8575083518211155b611f34578383836040517f23230fa30000000000000000000000000000000000000000000000000000000081526004016102de9392919061368e565b60208401611f4284826134ce565b90506000611f5085856134bb565b6fffffffffffffffffffffffffffffffff1660809290921b9190911795945050505050565b60606000610e9583602060006122d6565b60006101b58251602002603881901b1790565b6060611fa482612351565b604051602001611fb4919061318f565b6040516020818303038152906040529050919050565b6000611fd4611bbf565b90503073ffffffffffffffffffffffffffffffffffffffff821603612005576120008686868686612361565b612092565b6040517f298314fb00000000000000000000000000000000000000000000000000000000815273ffffffffffffffffffffffffffffffffffffffff82169063298314fb9061205f90899089908990899089906004016136b3565b600060405180830381600087803b15801561207957600080fd5b505af115801561208d573d6000803e3d6000fd5b505050505b505050505050565b60606000606060006120ab8561237e565b90506120b88787836123a1565b935060006120c5866123da565b90508015612197576120d78888612417565b935066ffffffffffffff841667ffffffffffffffff8111156120fb576120fb612f23565b6040519080825280601f01601f191660200182016040528015612125576020820181803683370190505b5092506020830160005b828160ff1610156121945760006121478b8b8461242a565b90506000612164888460ff166028026038011c64ffffffffff1690565b905061217382826000876124aa565b61217d81856134ce565b93505050808061218c906134f8565b91505061212f565b50505b505093509350939050565b6000806000806121b785600060209101015190565b6034860151605487015160749097015160609290921c9790969550909350915050565b60608080806000603887901c64ffffffffff166122006121fb888484611ee5565b6125d3565b955090508064ffffffffff606089901c16016122206121fb888484611ee5565b945090508064ffffffffff608889901c16016122406121fb888484611ee5565b935090508064ffffffffff60b089901c16016122606121fb888484611ee5565b9250505092959194509250565b60606000603884901c64ffffffffff1661228b611642858484611ee5565b95945050505050565b60606122ce6122a485858561242a565b6122c7846122b28888612417565b9060ff166028026038011c64ffffffffff1690565b6000612653565b949350505050565b606060006122e48560801c90565b90506fffffffffffffffffffffffffffffffff8516600085828161230a5761230a613272565b04905060405193506020840160208202810160405281855260005b82811015612345578451871c825293870193602090910190600101612325565b50505050509392505050565b606081610e958160206000612676565b61237785858585856123728b6126ca565b61282e565b5050505050565b6000600861238e600260206134bb565b61239891906134e1565b9190911c919050565b6060816000036123c05750604080516020810190915260008152610e95565b60006123cc8585612b38565b905061228b81846000612653565b600060086001806123ed600260206134bb565b6123f791906134bb565b61240191906134bb565b61240b91906134e1565b8260ff911c1692915050565b6000610e956124268484612b8e565b5490565b6000838360405160200161243f9291906136f8565b604051602081830303815290604052805190602001208260f81b7effffffffffffffffffffffffffffffffffffffffffffffffffffffffffffff19167f3b4102da22e32d82fc925482184f16c09fd4281692720b87d124aef6da48a0f1181860001c90509392505050565b811561256f57602082106124d4576020820484019350602082816124d0576124d0613272565b0691505b811561256f57602082900360008185101561251657507fffffffffffffffffffffffffffffffffffffffffffffffffffffffffffffffff600885021c1961253f565b507fffffffffffffffffffffffffffffffffffffffffffffffffffffffffffffffff600882021c195b8554600885021b811984511682821617845250818511612560575050610b31565b50600194909401939283900392015b5b602083106125915783548152600190930192601f1990920191602001612570565b8215610b315760007fffffffffffffffffffffffffffffffffffffffffffffffffffffffffffffffff600885021c198251865482169119161782525050505050565b606060006125e18360801c90565b90506fffffffffffffffffffffffffffffffff83168067ffffffffffffffff81111561260f5761260f612f23565b6040519080825280601f01601f191660200182016040528015612639576020820181803683370190505b5092506020830161264b838284612be4565b505050919050565b60405160208101601f19603f8584010116604052838252611edd858585846124aa565b8251606090600061268785836134e1565b9050604051925060208301601f19603f83860101166040528184526000602088015b84821015612345578051871b835291870191600191909101906020016126a9565b604080517f746200000000000000000000000000000000000000000000000000000000000060208201527f73746f726500000000000000000000000000000000000000000000000000000060228201527f5461626c6573000000000000000000000000000000000000000000000000000060308201526000910160405160208183030381529060405261275c90613451565b820361278857507e60030220202000000000000000000000000000000000000000000000000000919050565b604080517f746200000000000000000000000000000000000000000000000000000000000060208201527f73746f726500000000000000000000000000000000000000000000000000000060228201527f5461626c6573000000000000000000000000000000000000000000000000000060308201526101b591612825910160405160208183030381529060405261281f90613451565b84612c4e565b60206000612c6a565b857f8dbb3a9672eebfd3773e72dd9c102393436816d832c7ba9e1e1ac8fcadcac7a9868686866040516128649493929190613733565b60405180910390a27f7462000000000000000000000000000000000000000000000000000000000000867fffff00000000000000000000000000000000000000000000000000000000000016036120925760006128c087612cbb565b905060005b81518110156129a35760008282815181106128e2576128e2613243565b6020026020010151905061290e6001826affffffffffffffffffffff1916612db690919063ffffffff16565b15612990576040517f57066c9c000000000000000000000000000000000000000000000000000000008152606082901c906357066c9c9061295d908c908c908c908c908c908c90600401613772565b600060405180830381600087803b15801561297757600080fd5b505af115801561298b573d6000803e3d6000fd5b505050505b508061299b816137cb565b9150506128c5565b5060006129b08888612b38565b905060006020870190506129c8826000838a51612dd4565b60006129d3856123da565b1115612a575760006129e58a8a612b8e565b878155905060208601915060008060005b6129ff886123da565b8160ff161015612a5257612a148d8d8361242a565b9250612a2f8a8260ff166028026038011c64ffffffffff1690565b9150612a3e8360008785612dd4565b612a4882866134ce565b94506001016129f6565b505050505b60005b835181101561208d576000848281518110612a7757612a77613243565b60200260200101519050612aa36002826affffffffffffffffffffff1916612db690919063ffffffff16565b15612b25576040517f5b28cdaf000000000000000000000000000000000000000000000000000000008152606082901c90635b28cdaf90612af2908e908e908e908e908e908e90600401613772565b600060405180830381600087803b158015612b0c57600080fd5b505af1158015612b20573d6000803e3d6000fd5b505050505b5080612b30816137cb565b915050612a5a565b60008282604051602001612b4d9291906136f8565b60408051601f1981840301815291905280516020909101207f86425bff6b57326c7859e89024fe4f238ca327a1ae4a230180dd2f0e88aaa7d9189392505050565b60008282604051602001612ba39291906136f8565b60408051601f1981840301815291905280516020909101207f14e2fcc58e58e68ec7edc30c8d50dccc3ce2714a623ec81f46b6a63922d76569189392505050565b5b60208110612c04578251825260209283019290910190601f1901612be5565b80600003612c1157505050565b60007fffffffffffffffffffffffffffffffffffffffffffffffffffffffffffffffff600883021c19905080198351168185511617835250505050565b6040805160208101849052908101829052600090606001612b4d565b600060208210612c9057602082048401935060208281612c8c57612c8c613272565b0691505b508254600882021b602082900380841115611edd576001850154600882021c82179150509392505050565b60408051600180825281830190925260609160009190602080830190803683370190505090508281600081518110612cf557612cf5613243565b602090810291909101810191909152604080517f7462000000000000000000000000000000000000000000000000000000000000818401527f73746f726500000000000000000000000000000000000000000000000000000060228201527f53746f7265486f6f6b730000000000000000000000000000000000000000000060308201528151808203909301835281019052600090612d9f90612d9790613451565b836000612294565b90506122ce612db18260008451611ee5565b612ed0565b60008160ff1682612dc78560581c90565b1660ff1614905092915050565b8215612e6c5760208310612dfe57602083048401935060208381612dfa57612dfa613272565b0692505b8215612e6c57602083900360007fffffffffffffffffffffffffffffffffffffffffffffffffffffffffffffffff600884021c1990506008850281811c91508451811c9050811987541682821617875550818311612e5d575050610b31565b50600194909401939182019190035b5b60208110612e8e5781518455600190930192602090910190601f1901612e6d565b8015610b315760007fffffffffffffffffffffffffffffffffffffffffffffffffffffffffffffffff600883021c198554845182169119161785555050505050565b60606000610e9583601560006122d6565b600060208284031215612ef357600080fd5b81357fffffffff0000000000000000000000000000000000000000000000000000000081168114610e9557600080fd5b7f4e487b7100000000000000000000000000000000000000000000000000000000600052604160045260246000fd5b6040516080810167ffffffffffffffff81118282101715612f7557612f75612f23565b60405290565b604051601f8201601f1916810167ffffffffffffffff81118282101715612fa457612fa4612f23565b604052919050565b600067ffffffffffffffff821115612fc657612fc6612f23565b50601f01601f191660200190565b600082601f830112612fe557600080fd5b8135612ff8612ff382612fac565b612f7b565b81815284602083860101111561300d57600080fd5b816020850160208301376000918101602001919091529392505050565b803563ffffffff81168114611c0657600080fd5b60006040828403121561305057600080fd5b6040516040810181811067ffffffffffffffff8211171561307357613073612f23565b6040529050806130828361302a565b81526130906020840161302a565b60208201525092915050565b6000602082840312156130ae57600080fd5b813567ffffffffffffffff808211156130c657600080fd5b9083019060a082860312156130da57600080fd5b6130e2612f52565b823573ffffffffffffffffffffffffffffffffffffffff8116811461310657600080fd5b815260208301358281111561311a57600080fd5b61312687828601612fd4565b602083015250613139866040850161303e565b604082015260808301358281111561315057600080fd5b61315c87828601612fd4565b60608301525095945050505050565b60005b8381101561318657818101518382015260200161316e565b50506000910152565b600082516131a181846020870161316b565b9190910192915050565b7f4e487b7100000000000000000000000000000000000000000000000000000000600052601160045260246000fd5b63ffffffff8281168282160390808211156131f7576131f76131ab565b5092915050565b63ffffffff81811683821602808216919082811461321e5761321e6131ab565b505092915050565b63ffffffff8181168382160190808211156131f7576131f76131ab565b7f4e487b7100000000000000000000000000000000000000000000000000000000600052603260045260246000fd5b7f4e487b7100000000000000000000000000000000000000000000000000000000600052601260045260246000fd5b600063ffffffff808416806132b8576132b8613272565b92169190910692915050565b600063ffffffff808416806132db576132db613272565b92169190910492915050565b600081518084526132ff81602086016020860161316b565b601f01601f19169290920160200192915050565b6020815261332a60208201835163ffffffff169052565b60006020830151613343604084018263ffffffff169052565b50604083015173ffffffffffffffffffffffffffffffffffffffff81166060840152506060830151608083015260808301516101008060a085015261338c6101208501836132e7565b915060a0850151601f19808685030160c08701526133aa84836132e7565b935060c08701519150808685030160e08701526133c784836132e7565b935060e087015191508086850301838701525061164783826132e7565b60a0815260006133f760a08301886132e7565b828103602084015261340981886132e7565b9050828103604084015261341d81876132e7565b9050828103606084015261343181866132e7565b9050828103608084015261344581856132e7565b98975050505050505050565b80516020808301519190811015611bb9577fffffffffffffffffffffffffffffffffffffffffffffffffffffffffffffffff60209190910360031b1b16919050565b6000826134a2576134a2613272565b500690565b6000826134b6576134b6613272565b500490565b818103818111156101b5576101b56131ab565b808201808211156101b5576101b56131ab565b80820281158282048414176101b5576101b56131ab565b600060ff821660ff810361350e5761350e6131ab565b60010192915050565b600081518084526020808501945080840160005b838110156135475781518752958201959082019060010161352b565b509495945050505050565b83815260606020820152600061356b6060830185613517565b9050826040830152949350505050565b600082601f83011261358c57600080fd5b815161359a612ff382612fac565b8181528460208386010111156135af57600080fd5b6122ce82602083016020870161316b565b6000806000606084860312156135d557600080fd5b835167ffffffffffffffff808211156135ed57600080fd5b6135f98783880161357b565b945060208601519350604086015191508082111561361657600080fd5b506136238682870161357b565b9150509250925092565b8381526060602082015260006136466060830185613517565b905060ff83166040830152949350505050565b60006020828403121561366b57600080fd5b815167ffffffffffffffff81111561368257600080fd5b6122ce8482850161357b565b6060815260006136a160608301866132e7565b60208301949094525060400152919050565b85815260a0602082015260006136cc60a0830187613517565b82810360408401526136de81876132e7565b9050846060840152828103608084015261344581856132e7565b82815260006020808301845182860160005b828110156137265781518452928401929084019060010161370a565b5091979650505050505050565b6080815260006137466080830187613517565b828103602084015261375881876132e7565b90508460408401528281036060840152610cf181856132e7565b86815260c06020820152600061378b60c0830188613517565b828103604084015261379d81886132e7565b905085606084015282810360808401526137b781866132e7565b9150508260a0830152979650505050505050565b60007fffffffffffffffffffffffffffffffffffffffffffffffffffffffffffffffff82036137fc576137fc6131ab565b506001019056fe68747470733a2f2f73332d616c7068612d7369672e6669676d612e636f6d2f696d672f393831622f393131652f38356536376163393636643263666530373536343734336465393663353738393f457870697265733d31373136373638303030264b65792d506169722d49643d41504b415134474f53465743564e45484e334f34265369676e61747572653d5a6e45664d4b593577383733674d646b764e42467a39714b75736a384e4267565177616a6862344d764f4d576438585a716d36464330593278353350775a32304c533844514f6f425775416e386d696a7531764d74764a5045365459447132536746447046714c4d7e6870715368542d374a4c377a6c396556503046354e755959524779776d64373955762d7a304d356958387e4176332d4f396853556d33307e5171383969734c637861657a73506536367a7e6d4f71484d573465657a61434d2d307151547e6b37654d52594a477e6f5057647e6b463164427e396f51687152524a56533677524e333333703272747554456f3846693274417e4e4470373555514a5a3530526a5539354a55796a486c327063334e45414a4e68576d43556f7548637a7251636e46766243684e7e446256494e7973587e3377484a78506e523568416e333762356854753549473832642d72367e775f5fa264697066735822122081cd1c3bf19865d6ad9fecd51b3c1f7e687eb3367548f63b6380b9886cc35d0264736f6c63430008150033",
        "nonce": "0x1d",
        "accessList": []
      },
      "additionalContracts": [],
      "isFixedGasLimit": false
    },
    {
      "hash": "0x7e1c5b61af6241fa8de21c0ac9a5b6ed0b41e81e7c32e2cbb4292013892d50a2",
      "transactionType": "CALL",
      "contractName": null,
      "contractAddress": "0xC44504Ab6a2C4dF9a9ce82aecFc453FeC3C8771C",
      "function": "registerSystem(bytes32,address,bool)",
      "arguments": [
        "0x7379706f705374617200000000000000506f705374617253797374656d000000",
        "0x5621d0B4D8043524Ac5837918D6a95b1050eF228",
        "true"
      ],
      "transaction": {
        "type": "0x02",
        "from": "0xa0ee7a142d267c1f36714e4a8f75612f20a79720",
        "to": "0xc44504ab6a2c4df9a9ce82aecfc453fec3c8771c",
        "gas": "0x3df81",
        "value": "0x0",
        "data": "0x3350b6a97379706f705374617200000000000000506f705374617253797374656d0000000000000000000000000000005621d0b4d8043524ac5837918d6a95b1050ef2280000000000000000000000000000000000000000000000000000000000000001",
        "nonce": "0x1e",
        "accessList": []
      },
      "additionalContracts": [],
      "isFixedGasLimit": false
    },
    {
      "hash": "0x55b5dacde40e416886bdf4ec0caae4f9a69c7f5819a7af58b2083cbfc2107d64",
      "transactionType": "CALL",
      "contractName": null,
      "contractAddress": "0xC44504Ab6a2C4dF9a9ce82aecFc453FeC3C8771C",
      "function": "registerFunctionSelector(bytes32,string)",
      "arguments": [
        "0x7379706f705374617200000000000000506f705374617253797374656d000000",
        "\"init()\""
      ],
      "transaction": {
        "type": "0x02",
        "from": "0xa0ee7a142d267c1f36714e4a8f75612f20a79720",
        "to": "0xc44504ab6a2c4df9a9ce82aecfc453fec3c8771c",
        "gas": "0x25ca9",
        "value": "0x0",
        "data": "0x26d981027379706f705374617200000000000000506f705374617253797374656d00000000000000000000000000000000000000000000000000000000000000000000400000000000000000000000000000000000000000000000000000000000000006696e697428290000000000000000000000000000000000000000000000000000",
        "nonce": "0x1f",
        "accessList": []
      },
      "additionalContracts": [],
      "isFixedGasLimit": false
    },
    {
      "hash": "0x6634e9e1c00f86925dbc09e725a60929021afecd989a6a6ab480c8dbf26b6125",
      "transactionType": "CALL",
      "contractName": null,
      "contractAddress": "0xC44504Ab6a2C4dF9a9ce82aecFc453FeC3C8771C",
      "function": "registerFunctionSelector(bytes32,string)",
      "arguments": [
        "0x7379706f705374617200000000000000506f705374617253797374656d000000",
        "\"interact((address,string,(uint32,uint32),string))\""
      ],
      "transaction": {
        "type": "0x02",
        "from": "0xa0ee7a142d267c1f36714e4a8f75612f20a79720",
        "to": "0xc44504ab6a2c4df9a9ce82aecfc453fec3c8771c",
        "gas": "0x289d2",
        "value": "0x0",
        "data": "0x26d981027379706f705374617200000000000000506f705374617253797374656d00000000000000000000000000000000000000000000000000000000000000000000400000000000000000000000000000000000000000000000000000000000000031696e7465726163742828616464726573732c737472696e672c2875696e7433322c75696e743332292c737472696e672929000000000000000000000000000000",
        "nonce": "0x20",
        "accessList": []
      },
      "additionalContracts": [],
      "isFixedGasLimit": false
    },
    {
      "hash": "0x47ea5ce918ce8d898660ab65915bb3e809e10e56ef2d5dbc09f4803411a20c00",
      "transactionType": "CALL",
      "contractName": null,
      "contractAddress": "0xC44504Ab6a2C4dF9a9ce82aecFc453FeC3C8771C",
      "function": "registerFunctionSelector(bytes32,string)",
      "arguments": [
        "0x7379706f705374617200000000000000506f705374617253797374656d000000",
        "\"pop((address,string,(uint32,uint32),string))\""
      ],
      "transaction": {
        "type": "0x02",
        "from": "0xa0ee7a142d267c1f36714e4a8f75612f20a79720",
        "to": "0xc44504ab6a2c4df9a9ce82aecfc453fec3c8771c",
        "gas": "0x26565",
        "value": "0x0",
        "data": "0x26d981027379706f705374617200000000000000506f705374617253797374656d0000000000000000000000000000000000000000000000000000000000000000000040000000000000000000000000000000000000000000000000000000000000002c706f702828616464726573732c737472696e672c2875696e7433322c75696e743332292c737472696e6729290000000000000000000000000000000000000000",
        "nonce": "0x21",
        "accessList": []
      },
      "additionalContracts": [],
      "isFixedGasLimit": false
    }
  ],
  "receipts": [
    {
      "transactionHash": "0xb520f7d28d491d7adba89b00230f6ad0f5a9c71b1417dd5b0fdb9f3bbb840f2f",
      "transactionIndex": "0x0",
      "blockHash": "0x8627520de2f2c07c643a9795c7935a45249a23806f1c191a73c48eaabab5bca0",
      "blockNumber": "0x2a",
      "from": "0xa0Ee7A142d267C1f36714E4a8F75612F20a79720",
      "to": "0xC44504Ab6a2C4dF9a9ce82aecFc453FeC3C8771C",
      "cumulativeGasUsed": "0x21801",
      "gasUsed": "0x21801",
      "contractAddress": null,
      "logs": [
        {
          "address": "0xC44504Ab6a2C4dF9a9ce82aecFc453FeC3C8771C",
          "topics": [
            "0x8c0b5119d4cec7b284c6b1b39252a03d1e2f2d7451a5895562524c113bb952be",
            "0x746273746f72650000000000000000005265736f757263654964730000000000"
          ],
          "data": "0x0000000000000000000000000000000000000000000000000000000000000060000000000000000000000000000000000000000000000000000000000000000000000000000000000000000000000000000000000000000000000000000000a000000000000000000000000000000000000000000000000000000000000000016e73706f7053746172000000000000000000000000000000000000000000000000000000000000000000000000000000000000000000000000000000000000010100000000000000000000000000000000000000000000000000000000000000",
          "blockHash": "0x8627520de2f2c07c643a9795c7935a45249a23806f1c191a73c48eaabab5bca0",
          "blockNumber": "0x2a",
          "transactionHash": "0xb520f7d28d491d7adba89b00230f6ad0f5a9c71b1417dd5b0fdb9f3bbb840f2f",
          "transactionIndex": "0x0",
          "logIndex": "0x0",
          "removed": false
        },
        {
          "address": "0xC44504Ab6a2C4dF9a9ce82aecFc453FeC3C8771C",
          "topics": [
            "0x8c0b5119d4cec7b284c6b1b39252a03d1e2f2d7451a5895562524c113bb952be",
            "0x7462776f726c640000000000000000004e616d6573706163654f776e65720000"
          ],
          "data": "0x0000000000000000000000000000000000000000000000000000000000000060000000000000000000000000000000000000000000000000000000000000000000000000000000000000000000000000000000000000000000000000000000a000000000000000000000000000000000000000000000000000000000000000016e73706f705374617200000000000000000000000000000000000000000000000000000000000000000000000000000000000000000000000000000000000014a0ee7a142d267c1f36714e4a8f75612f20a79720000000000000000000000000",
          "blockHash": "0x8627520de2f2c07c643a9795c7935a45249a23806f1c191a73c48eaabab5bca0",
          "blockNumber": "0x2a",
          "transactionHash": "0xb520f7d28d491d7adba89b00230f6ad0f5a9c71b1417dd5b0fdb9f3bbb840f2f",
          "transactionIndex": "0x0",
          "logIndex": "0x1",
          "removed": false
        },
        {
          "address": "0xC44504Ab6a2C4dF9a9ce82aecFc453FeC3C8771C",
          "topics": [
            "0x8c0b5119d4cec7b284c6b1b39252a03d1e2f2d7451a5895562524c113bb952be",
            "0x7462776f726c640000000000000000005265736f757263654163636573730000"
          ],
          "data": "0x0000000000000000000000000000000000000000000000000000000000000060000000000000000000000000000000000000000000000000000000000000000000000000000000000000000000000000000000000000000000000000000000c000000000000000000000000000000000000000000000000000000000000000026e73706f70537461720000000000000000000000000000000000000000000000000000000000000000000000a0ee7a142d267c1f36714e4a8f75612f20a7972000000000000000000000000000000000000000000000000000000000000000010100000000000000000000000000000000000000000000000000000000000000",
          "blockHash": "0x8627520de2f2c07c643a9795c7935a45249a23806f1c191a73c48eaabab5bca0",
          "blockNumber": "0x2a",
          "transactionHash": "0xb520f7d28d491d7adba89b00230f6ad0f5a9c71b1417dd5b0fdb9f3bbb840f2f",
          "transactionIndex": "0x0",
          "logIndex": "0x2",
          "removed": false
        }
      ],
      "status": "0x1",
      "logsBloom": "0x00000000000000000000000000000000000000001000000080000000000000000000000000000000080000000000000000000000000000000000000000000000000000000000000000000000000000000000000000000000000000000000000010800000000000000000000200001000000000000000008000000000000000000008000000000000000000000000000020000000000000000000000000000000000000000000000000000000000000000000000000000000080080000000000000000000000000000020000000000000000000000000000000000000000000000000000000004000000000000000000000080000000000000000000000000000",
      "type": "0x2",
      "effectiveGasPrice": "0xb33ab7ff"
    },
    {
      "transactionHash": "0x6538eba628c5fd05816122ef634dc6197af9b28200048e869c04abfdb8357a7b",
      "transactionIndex": "0x0",
      "blockHash": "0x77d6eed522b64b274c8ea04dd072ca7e6d5108c01f8a3398c731ea6cc4e181d9",
      "blockNumber": "0x2b",
      "from": "0xa0Ee7A142d267C1f36714E4a8F75612F20a79720",
      "to": "0xC44504Ab6a2C4dF9a9ce82aecFc453FeC3C8771C",
      "cumulativeGasUsed": "0xbc202",
      "gasUsed": "0xbc202",
      "contractAddress": null,
      "logs": [
        {
          "address": "0xC44504Ab6a2C4dF9a9ce82aecFc453FeC3C8771C",
          "topics": [
            "0x8dbb3a9672eebfd3773e72dd9c102393436816d832c7ba9e1e1ac8fcadcac7a9",
            "0x746273746f72650000000000000000005461626c657300000000000000000000"
          ],
          "data": "0x000000000000000000000000000000000000000000000000000000000000008000000000000000000000000000000000000000000000000000000000000000c000000000000000000000000000000000000001c0000000016000000000000320000000000000000000000000000000000000000000000000000000000000014000000000000000000000000000000000000000000000000000000000000000017462706f705374617200000000000000506f705374617200000000000000000000000000000000000000000000000000000000000000000000000000000000600009030104040100000000000000000000000000000000000000000000000000005403001f615f000000000000000000000000000000000000000000000000000009030103036081000000000000000000000000000000000000000000000000000000000000000000000000000000000000000000000000000000000000032000000000000000000000000000000000000000000000000000000000000000200000000000000000000000000000000000000000000000000000000000000003000000000000000000000000000000000000000000000000000000000000006000000000000000000000000000000000000000000000000000000000000000a000000000000000000000000000000000000000000000000000000000000000e0000000000000000000000000000000000000000000000000000000000000000974696d657374616d70000000000000000000000000000000000000000000000000000000000000000000000000000000000000000000000000000000000000056f776e65720000000000000000000000000000000000000000000000000000000000000000000000000000000000000000000000000000000000000000000003617070000000000000000000000000000000000000000000000000000000000000000000000000000000000000000000000000000000000000000000000000200000000000000000000000000000000000000000000000000000000000000004000000000000000000000000000000000000000000000000000000000000008000000000000000000000000000000000000000000000000000000000000000c0000000000000000000000000000000000000000000000000000000000000010000000000000000000000000000000000000000000000000000000000000001400000000000000000000000000000000000000000000000000000000000000001780000000000000000000000000000000000000000000000000000000000000000000000000000000000000000000000000000000000000000000000000000017900000000000000000000000000000000000000000000000000000000000000000000000000000000000000000000000000000000000000000000000000000c67616d6546696e69736865640000000000000000000000000000000000000000000000000000000000000000000000000000000000000000000000000000000b6d61747269784172726179000000000000000000000000000000000000000000",
          "blockHash": "0x77d6eed522b64b274c8ea04dd072ca7e6d5108c01f8a3398c731ea6cc4e181d9",
          "blockNumber": "0x2b",
          "transactionHash": "0x6538eba628c5fd05816122ef634dc6197af9b28200048e869c04abfdb8357a7b",
          "transactionIndex": "0x0",
          "logIndex": "0x0",
          "removed": false
        },
        {
          "address": "0xC44504Ab6a2C4dF9a9ce82aecFc453FeC3C8771C",
          "topics": [
            "0x8c0b5119d4cec7b284c6b1b39252a03d1e2f2d7451a5895562524c113bb952be",
            "0x746273746f72650000000000000000005265736f757263654964730000000000"
          ],
          "data": "0x0000000000000000000000000000000000000000000000000000000000000060000000000000000000000000000000000000000000000000000000000000000000000000000000000000000000000000000000000000000000000000000000a000000000000000000000000000000000000000000000000000000000000000017462706f705374617200000000000000506f705374617200000000000000000000000000000000000000000000000000000000000000000000000000000000010100000000000000000000000000000000000000000000000000000000000000",
          "blockHash": "0x77d6eed522b64b274c8ea04dd072ca7e6d5108c01f8a3398c731ea6cc4e181d9",
          "blockNumber": "0x2b",
          "transactionHash": "0x6538eba628c5fd05816122ef634dc6197af9b28200048e869c04abfdb8357a7b",
          "transactionIndex": "0x0",
          "logIndex": "0x1",
          "removed": false
        }
      ],
      "status": "0x1",
      "logsBloom": "0x00000000000000000000000000000000000000001000000000000000000000000000000000000000000000100000000000000000000200000000000000000000000000000000000000000000000000000000000200000000000000000000080000000000000000000000000200001000000000000000008000000000000000000000000000000000000000010000000020000000000000000000000000000000000000000000000000000000000000000000000002000000080080000000000000000000000000000000000000000000000000000000000000000000000000000000000000004000000000000000000000080000000000000000000000000000",
      "type": "0x2",
      "effectiveGasPrice": "0xb32d8be1"
    },
    {
      "transactionHash": "0x02aec230557fc75f6f6bbd251f548e04edc37963060874ed92450416ab772cd9",
      "transactionIndex": "0x1",
      "blockHash": "0x77d6eed522b64b274c8ea04dd072ca7e6d5108c01f8a3398c731ea6cc4e181d9",
      "blockNumber": "0x2b",
      "from": "0xa0Ee7A142d267C1f36714E4a8F75612F20a79720",
      "to": null,
      "cumulativeGasUsed": "0x3da5f4",
      "gasUsed": "0x31e3f2",
      "contractAddress": "0x5621d0B4D8043524Ac5837918D6a95b1050eF228",
      "logs": [],
      "status": "0x1",
      "logsBloom": "0x00000000000000000000000000000000000000000000000000000000000000000000000000000000000000000000000000000000000000000000000000000000000000000000000000000000000000000000000000000000000000000000000000000000000000000000000000000000000000000000000000000000000000000000000000000000000000000000000000000000000000000000000000000000000000000000000000000000000000000000000000000000000000000000000000000000000000000000000000000000000000000000000000000000000000000000000000000000000000000000000000000000000000000000000000000000",
      "type": "0x2",
      "effectiveGasPrice": "0xb32d8be1"
    },
    {
      "transactionHash": "0x7e1c5b61af6241fa8de21c0ac9a5b6ed0b41e81e7c32e2cbb4292013892d50a2",
      "transactionIndex": "0x2",
      "blockHash": "0x77d6eed522b64b274c8ea04dd072ca7e6d5108c01f8a3398c731ea6cc4e181d9",
      "blockNumber": "0x2b",
      "from": "0xa0Ee7A142d267C1f36714E4a8F75612F20a79720",
      "to": "0xC44504Ab6a2C4dF9a9ce82aecFc453FeC3C8771C",
      "cumulativeGasUsed": "0x4073c9",
      "gasUsed": "0x2cdd5",
      "contractAddress": null,
      "logs": [
        {
          "address": "0xC44504Ab6a2C4dF9a9ce82aecFc453FeC3C8771C",
          "topics": [
            "0x8c0b5119d4cec7b284c6b1b39252a03d1e2f2d7451a5895562524c113bb952be",
            "0x746273746f72650000000000000000005265736f757263654964730000000000"
          ],
          "data": "0x0000000000000000000000000000000000000000000000000000000000000060000000000000000000000000000000000000000000000000000000000000000000000000000000000000000000000000000000000000000000000000000000a000000000000000000000000000000000000000000000000000000000000000017379706f705374617200000000000000506f705374617253797374656d00000000000000000000000000000000000000000000000000000000000000000000010100000000000000000000000000000000000000000000000000000000000000",
          "blockHash": "0x77d6eed522b64b274c8ea04dd072ca7e6d5108c01f8a3398c731ea6cc4e181d9",
          "blockNumber": "0x2b",
          "transactionHash": "0x7e1c5b61af6241fa8de21c0ac9a5b6ed0b41e81e7c32e2cbb4292013892d50a2",
          "transactionIndex": "0x2",
          "logIndex": "0x8",
          "removed": false
        },
        {
          "address": "0xC44504Ab6a2C4dF9a9ce82aecFc453FeC3C8771C",
          "topics": [
            "0x8dbb3a9672eebfd3773e72dd9c102393436816d832c7ba9e1e1ac8fcadcac7a9",
            "0x7462776f726c6400000000000000000053797374656d73000000000000000000"
          ],
          "data": "0x000000000000000000000000000000000000000000000000000000000000008000000000000000000000000000000000000000000000000000000000000000c00000000000000000000000000000000000000000000000000000000000000000000000000000000000000000000000000000000000000000000000000000010000000000000000000000000000000000000000000000000000000000000000017379706f705374617200000000000000506f705374617253797374656d00000000000000000000000000000000000000000000000000000000000000000000155621d0b4d8043524ac5837918d6a95b1050ef2280100000000000000000000000000000000000000000000000000000000000000000000000000000000000000",
          "blockHash": "0x77d6eed522b64b274c8ea04dd072ca7e6d5108c01f8a3398c731ea6cc4e181d9",
          "blockNumber": "0x2b",
          "transactionHash": "0x7e1c5b61af6241fa8de21c0ac9a5b6ed0b41e81e7c32e2cbb4292013892d50a2",
          "transactionIndex": "0x2",
          "logIndex": "0x9",
          "removed": false
        },
        {
          "address": "0xC44504Ab6a2C4dF9a9ce82aecFc453FeC3C8771C",
          "topics": [
            "0x8c0b5119d4cec7b284c6b1b39252a03d1e2f2d7451a5895562524c113bb952be",
            "0x7462776f726c6400000000000000000053797374656d52656769737472790000"
          ],
          "data": "0x0000000000000000000000000000000000000000000000000000000000000060000000000000000000000000000000000000000000000000000000000000000000000000000000000000000000000000000000000000000000000000000000a000000000000000000000000000000000000000000000000000000000000000010000000000000000000000005621d0b4d8043524ac5837918d6a95b1050ef22800000000000000000000000000000000000000000000000000000000000000207379706f705374617200000000000000506f705374617253797374656d000000",
          "blockHash": "0x77d6eed522b64b274c8ea04dd072ca7e6d5108c01f8a3398c731ea6cc4e181d9",
          "blockNumber": "0x2b",
          "transactionHash": "0x7e1c5b61af6241fa8de21c0ac9a5b6ed0b41e81e7c32e2cbb4292013892d50a2",
          "transactionIndex": "0x2",
          "logIndex": "0xa",
          "removed": false
        },
        {
          "address": "0xC44504Ab6a2C4dF9a9ce82aecFc453FeC3C8771C",
          "topics": [
            "0x8c0b5119d4cec7b284c6b1b39252a03d1e2f2d7451a5895562524c113bb952be",
            "0x7462776f726c640000000000000000005265736f757263654163636573730000"
          ],
          "data": "0x0000000000000000000000000000000000000000000000000000000000000060000000000000000000000000000000000000000000000000000000000000000000000000000000000000000000000000000000000000000000000000000000c000000000000000000000000000000000000000000000000000000000000000026e73706f705374617200000000000000000000000000000000000000000000000000000000000000000000005621d0b4d8043524ac5837918d6a95b1050ef22800000000000000000000000000000000000000000000000000000000000000010100000000000000000000000000000000000000000000000000000000000000",
          "blockHash": "0x77d6eed522b64b274c8ea04dd072ca7e6d5108c01f8a3398c731ea6cc4e181d9",
          "blockNumber": "0x2b",
          "transactionHash": "0x7e1c5b61af6241fa8de21c0ac9a5b6ed0b41e81e7c32e2cbb4292013892d50a2",
          "transactionIndex": "0x2",
          "logIndex": "0xb",
          "removed": false
        }
      ],
      "status": "0x1",
      "logsBloom": "0x80000000000000000000000000000000000000001800000080000000000000000000000000000000000000100000000000000000000000000000000000000000000000000000040000000000000000000000000000000000000000000000080000800000000000000000000200001000000000000000008000000000000000000008000000000000000000010000000020000000000000000000000000000000000000000000000000000000000000000100000000000000080081000000000000000000000000000000000000000000000000000000000000000000000000000000000000004000008000000000000000080000000000000000000000000000",
      "type": "0x2",
      "effectiveGasPrice": "0xb32d8be1"
    },
    {
      "transactionHash": "0x55b5dacde40e416886bdf4ec0caae4f9a69c7f5819a7af58b2083cbfc2107d64",
      "transactionIndex": "0x3",
      "blockHash": "0x77d6eed522b64b274c8ea04dd072ca7e6d5108c01f8a3398c731ea6cc4e181d9",
      "blockNumber": "0x2b",
      "from": "0xa0Ee7A142d267C1f36714E4a8F75612F20a79720",
      "to": "0xC44504Ab6a2C4dF9a9ce82aecFc453FeC3C8771C",
      "cumulativeGasUsed": "0x42298d",
      "gasUsed": "0x1b5c4",
      "contractAddress": null,
      "logs": [
        {
          "address": "0xC44504Ab6a2C4dF9a9ce82aecFc453FeC3C8771C",
          "topics": [
            "0x8dbb3a9672eebfd3773e72dd9c102393436816d832c7ba9e1e1ac8fcadcac7a9",
            "0x7462776f726c6400000000000000000046756e6374696f6e53656c6563746f72"
          ],
          "data": "0x000000000000000000000000000000000000000000000000000000000000008000000000000000000000000000000000000000000000000000000000000000c00000000000000000000000000000000000000000000000000000000000000000000000000000000000000000000000000000000000000000000000000000012000000000000000000000000000000000000000000000000000000000000000018dd2ca7f0000000000000000000000000000000000000000000000000000000000000000000000000000000000000000000000000000000000000000000000247379706f705374617200000000000000506f705374617253797374656d000000e1c7392a000000000000000000000000000000000000000000000000000000000000000000000000000000000000000000000000000000000000000000000000",
          "blockHash": "0x77d6eed522b64b274c8ea04dd072ca7e6d5108c01f8a3398c731ea6cc4e181d9",
          "blockNumber": "0x2b",
          "transactionHash": "0x55b5dacde40e416886bdf4ec0caae4f9a69c7f5819a7af58b2083cbfc2107d64",
          "transactionIndex": "0x3",
          "logIndex": "0x6",
          "removed": false
        },
        {
          "address": "0xC44504Ab6a2C4dF9a9ce82aecFc453FeC3C8771C",
          "topics": [
            "0x8dbb3a9672eebfd3773e72dd9c102393436816d832c7ba9e1e1ac8fcadcac7a9",
            "0x6f74776f726c6400000000000000000046756e6374696f6e5369676e61747572"
          ],
          "data": "0x000000000000000000000000000000000000000000000000000000000000008000000000000000000000000000000000000000000000000000000000000000c00000000000000000000000000000000000000000000000001c0000000000001c00000000000000000000000000000000000000000000000000000000000000e000000000000000000000000000000000000000000000000000000000000000018dd2ca7f000000000000000000000000000000000000000000000000000000000000000000000000000000000000000000000000000000000000000000000000000000000000000000000000000000000000000000000000000000000000001c706f70537461725f506f705374617253797374656d5f696e6974282900000000",
          "blockHash": "0x77d6eed522b64b274c8ea04dd072ca7e6d5108c01f8a3398c731ea6cc4e181d9",
          "blockNumber": "0x2b",
          "transactionHash": "0x55b5dacde40e416886bdf4ec0caae4f9a69c7f5819a7af58b2083cbfc2107d64",
          "transactionIndex": "0x3",
          "logIndex": "0x7",
          "removed": false
        }
      ],
      "status": "0x1",
      "logsBloom": "0x00000800004000000000000000000000000000000000000000000000000000000000000000000000000000100000000000000000000000000000000000000000000000000000000000000000000000000000000000000000000000000000080000000000000000000000000000001000000000000000008000000000000000000000000000000000000000010000000000000000000000000000000000040000000000000000000000000000000000000000000000000000000000000000000000000000000000000100000000000000000000000000000000000000000000000000000000000000000000000000000040080000000000000000000000000200",
      "type": "0x2",
      "effectiveGasPrice": "0xb32d8be1"
    },
    {
      "transactionHash": "0x6634e9e1c00f86925dbc09e725a60929021afecd989a6a6ab480c8dbf26b6125",
      "transactionIndex": "0x4",
      "blockHash": "0x77d6eed522b64b274c8ea04dd072ca7e6d5108c01f8a3398c731ea6cc4e181d9",
      "blockNumber": "0x2b",
      "from": "0xa0Ee7A142d267C1f36714E4a8F75612F20a79720",
      "to": "0xC44504Ab6a2C4dF9a9ce82aecFc453FeC3C8771C",
      "cumulativeGasUsed": "0x43e5e0",
      "gasUsed": "0x1bc53",
      "contractAddress": null,
      "logs": [
        {
          "address": "0xC44504Ab6a2C4dF9a9ce82aecFc453FeC3C8771C",
          "topics": [
            "0x8dbb3a9672eebfd3773e72dd9c102393436816d832c7ba9e1e1ac8fcadcac7a9",
            "0x7462776f726c6400000000000000000046756e6374696f6e53656c6563746f72"
          ],
          "data": "0x000000000000000000000000000000000000000000000000000000000000008000000000000000000000000000000000000000000000000000000000000000c0000000000000000000000000000000000000000000000000000000000000000000000000000000000000000000000000000000000000000000000000000001200000000000000000000000000000000000000000000000000000000000000001bc45450f0000000000000000000000000000000000000000000000000000000000000000000000000000000000000000000000000000000000000000000000247379706f705374617200000000000000506f705374617253797374656d0000009211be97000000000000000000000000000000000000000000000000000000000000000000000000000000000000000000000000000000000000000000000000",
          "blockHash": "0x77d6eed522b64b274c8ea04dd072ca7e6d5108c01f8a3398c731ea6cc4e181d9",
          "blockNumber": "0x2b",
          "transactionHash": "0x6634e9e1c00f86925dbc09e725a60929021afecd989a6a6ab480c8dbf26b6125",
          "transactionIndex": "0x4",
          "logIndex": "0x8",
          "removed": false
        },
        {
          "address": "0xC44504Ab6a2C4dF9a9ce82aecFc453FeC3C8771C",
          "topics": [
            "0x8dbb3a9672eebfd3773e72dd9c102393436816d832c7ba9e1e1ac8fcadcac7a9",
            "0x6f74776f726c6400000000000000000046756e6374696f6e5369676e61747572"
          ],
          "data": "0x000000000000000000000000000000000000000000000000000000000000008000000000000000000000000000000000000000000000000000000000000000c0000000000000000000000000000000000000000000000000470000000000004700000000000000000000000000000000000000000000000000000000000000e00000000000000000000000000000000000000000000000000000000000000001bc45450f0000000000000000000000000000000000000000000000000000000000000000000000000000000000000000000000000000000000000000000000000000000000000000000000000000000000000000000000000000000000000047706f70537461725f506f705374617253797374656d5f696e7465726163742828616464726573732c737472696e672c2875696e7433322c75696e743332292c737472696e67292900000000000000000000000000000000000000000000000000",
          "blockHash": "0x77d6eed522b64b274c8ea04dd072ca7e6d5108c01f8a3398c731ea6cc4e181d9",
          "blockNumber": "0x2b",
          "transactionHash": "0x6634e9e1c00f86925dbc09e725a60929021afecd989a6a6ab480c8dbf26b6125",
          "transactionIndex": "0x4",
          "logIndex": "0x9",
          "removed": false
        }
      ],
      "status": "0x1",
      "logsBloom": "0x00000800004000000000000000000000000000000000000000000000000000000000000000000000000000100000000000000000000000000000000000000000000000000000000000000000000000000000000000000000000000000000080000000000000000000000000000001000000000000000008000000000000000000000000000000000000000010000000000000000000000000000000000040000000000000000000000000000000000000000000000000000000000000000000000000000000000000100000000000000000000000000000000000000000000000000000000000000000000000000000040080000000000000000000000000200",
      "type": "0x2",
      "effectiveGasPrice": "0xb32d8be1"
    },
    {
      "transactionHash": "0x47ea5ce918ce8d898660ab65915bb3e809e10e56ef2d5dbc09f4803411a20c00",
      "transactionIndex": "0x5",
      "blockHash": "0x77d6eed522b64b274c8ea04dd072ca7e6d5108c01f8a3398c731ea6cc4e181d9",
      "blockNumber": "0x2b",
      "from": "0xa0Ee7A142d267C1f36714E4a8F75612F20a79720",
      "to": "0xC44504Ab6a2C4dF9a9ce82aecFc453FeC3C8771C",
      "cumulativeGasUsed": "0x45a1f7",
      "gasUsed": "0x1bc17",
      "contractAddress": null,
      "logs": [
        {
          "address": "0xC44504Ab6a2C4dF9a9ce82aecFc453FeC3C8771C",
          "topics": [
            "0x8dbb3a9672eebfd3773e72dd9c102393436816d832c7ba9e1e1ac8fcadcac7a9",
            "0x7462776f726c6400000000000000000046756e6374696f6e53656c6563746f72"
          ],
          "data": "0x000000000000000000000000000000000000000000000000000000000000008000000000000000000000000000000000000000000000000000000000000000c00000000000000000000000000000000000000000000000000000000000000000000000000000000000000000000000000000000000000000000000000000012000000000000000000000000000000000000000000000000000000000000000016c2720140000000000000000000000000000000000000000000000000000000000000000000000000000000000000000000000000000000000000000000000247379706f705374617200000000000000506f705374617253797374656d00000019be214b000000000000000000000000000000000000000000000000000000000000000000000000000000000000000000000000000000000000000000000000",
          "blockHash": "0x77d6eed522b64b274c8ea04dd072ca7e6d5108c01f8a3398c731ea6cc4e181d9",
          "blockNumber": "0x2b",
          "transactionHash": "0x47ea5ce918ce8d898660ab65915bb3e809e10e56ef2d5dbc09f4803411a20c00",
          "transactionIndex": "0x5",
          "logIndex": "0xa",
          "removed": false
        },
        {
          "address": "0xC44504Ab6a2C4dF9a9ce82aecFc453FeC3C8771C",
          "topics": [
            "0x8dbb3a9672eebfd3773e72dd9c102393436816d832c7ba9e1e1ac8fcadcac7a9",
            "0x6f74776f726c6400000000000000000046756e6374696f6e5369676e61747572"
          ],
          "data": "0x000000000000000000000000000000000000000000000000000000000000008000000000000000000000000000000000000000000000000000000000000000c0000000000000000000000000000000000000000000000000420000000000004200000000000000000000000000000000000000000000000000000000000000e000000000000000000000000000000000000000000000000000000000000000016c2720140000000000000000000000000000000000000000000000000000000000000000000000000000000000000000000000000000000000000000000000000000000000000000000000000000000000000000000000000000000000000042706f70537461725f506f705374617253797374656d5f706f702828616464726573732c737472696e672c2875696e7433322c75696e743332292c737472696e672929000000000000000000000000000000000000000000000000000000000000",
          "blockHash": "0x77d6eed522b64b274c8ea04dd072ca7e6d5108c01f8a3398c731ea6cc4e181d9",
          "blockNumber": "0x2b",
          "transactionHash": "0x47ea5ce918ce8d898660ab65915bb3e809e10e56ef2d5dbc09f4803411a20c00",
          "transactionIndex": "0x5",
          "logIndex": "0xb",
          "removed": false
        }
      ],
      "status": "0x1",
      "logsBloom": "0x00000800004000000000000000000000000000000000000000000000000000000000000000000000000000100000000000000000000000000000000000000000000000000000000000000000000000000000000000000000000000000000080000000000000000000000000000001000000000000000008000000000000000000000000000000000000000010000000000000000000000000000000000040000000000000000000000000000000000000000000000000000000000000000000000000000000000000100000000000000000000000000000000000000000000000000000000000000000000000000000040080000000000000000000000000200",
      "type": "0x2",
      "effectiveGasPrice": "0xb32d8be1"
    }
  ],
  "libraries": [],
  "pending": [],
  "returns": {},
  "timestamp": 1716092420,
  "chain": 31337,
  "multi": false,
  "commit": "a7f9d7e"
}